:100000000C9486030C94CD030C94CD030C94CD0377
:100010000C94CD030C94CD030C94CD030C94CD0320
:100020000C94CD030C94CD030C94A8280C947B293C
:100030000C9486200C94CD030C94CD030C94CD032A
:100040000C94CD030C94CD030C94CD030C94CD03F0
:100050000C94D8040C94E7200C94CD030C94CD039D
:100060000C94CD030C94CD030C94CD030C94CD03D0
:100070000C94CD030C94CD030C94CD030C94CD03C0
:100080000C94CD030C94CD030C94CD030C94CD03B0
:100090000C94CD030C94CD030C94CD030C94CD03A0
:1000A0000C94CD030C94CD030C94CD0329001E00B9
:1000B0001F0020002100220023002400250026002C
:1000C00027002D002E002A002A0035002B000000FA
:1000D00014001A000800150017001C0018000C007E
:1000E000120013002F00300031004C0029000000E6
:1000F00004001600070009000A000B000D000E00A6
:100100000F0033003400280000004B00E100E10044
:100110001D001B000600190005001100100036002C
:10012000370038000000E10052004E00E000E3001C
:100130000000E20000002C0000002C002C00000059
:10014000E30001510000500051004F00005C0253D9
:10015000000000000000000000000000000000009F
:100160000000470048000000000000000000000000
:10017000000052000000000000000000000000002D
:10018000CB5CCC5CC55CC65C0000C25C01000000BE
:10019000500051004F000000000000000000D25C41
:1001A0000000C95CCA5C00000000C35C01000100E3
:1001B000000000000000000000000000000000003F
:1001C0000000AE0000000100A900C45C00000000B7
:1001D000000000000000000000000000000000001F
:1001E000000001000000AC00AA00AB0035001E00BA
:1001F0001F002000210022002300240025002600EB
:1002000027002D002E002A002A007F002B0000006E
:1002100014001A000800150017001C0018000C003C
:10022000120013002F00300031004C0029000000A4
:1002300004001600070009000A000B000D000E0064
:100240000F0033003400280000004B00D75CD75C5F
:100250001D001B00060019000500110010003600EB
:10026000370038000000D85C52004E00E000E20089
:100270000000E30000002C0000002C002C00000017
:10028000E70003510000500051004F0000000253EE
:10029000000000000000000000000000000000005E
:1002A000000047007F000000000000000000000088
:1002B00000005200000000000000000000000000EC
:1002C000CB5CCC5CC55CC65C0000C25C010000007D
:1002D000500051004F000000000000000000D25C00
:1002E0000000C95CCA5C00000000C35C01000100A2
:1002F00000000000000000000000000000000000FE
:100300000000AE00000001008000C45C000000009E
:1003100000000000000000000000000000000000DD
:10032000000001000000BC008100BB0000000000D4
:100330000000000000000001010203040506080A95
:100340000C0F1114181C2024292E33393F464C530E
:100350005B626A7179818A929AA2AAB2B9C1C8CF46
:10036000D5DCE1E7EBF0F4F7FAFCFDFEFFFEFDFC67
:10037000FAF7F4F0EBE7E1DCD5CFC8C1B9B2AAA235
:100380009A928A8179716A625B534C463F39332E67
:100390002924201C1814110F0C0A08060504030256
:1003A00001010000000000000000000000047F3F89
:1003B0001F643214643214783C1E1E140A05222372
:1003C000252628292A2C2D2F3032333536383A3B32
:1003D0003D3E4042434547494A4C4E505153555784
:1003E000595A5C5E6062646668696B6D6F717375A3
:1003F00077797B7D7F81838587898A8C8E909294A3
:1004000096989A9C9E9FA1A3A5A7A8AAACAEAFB1AF
:10041000B3B4B6B8B9BBBCBEBFC1C2C3C5C6C7C9F9
:10042000CACBCCCDCED0D1D2D2D3D4D5D6D7D7D8B3
:10043000D9D9DADADBDBDBDCDCDCDCDCDDDDDDDD05
:10044000DCDCDCDCDCDBDBDBDADAD9D9D8D7D7D60D
:10045000D5D4D3D2D2D1D0CECDCCCBCAC9C7C6C5C4
:10046000C3C2C1BFBEBCBBB9B8B6B4B3B1AFAEAC0A
:10047000AAA8A7A5A3A19F9E9C9A98969492908EB5
:100480008C8A89878583817F7D7B79777573716F8E
:100490006D6B6968666462605E5C5A59575553516A
:1004A000504E4C4A4947454342403E3D3B3A383620
:1004B000353332302F2D2C2A292826252322FFAA36
:1004C0007F55400000000000000000000001010115
:1004D0000101010101010202020202020202030300
:1004E00003030303030404040404050505050506CA
:1004F0000606060607070707080808080909090A83
:100500000A0A0B0B0B0C0C0C0D0D0D0E0E0E0F0F23
:1005100010101011111212131314141515161617AA
:1005200017181819191A1A1B1C1C1D1D1E1F1F2015
:10053000212122232324252526272828292A2B2C5C
:100540002C2D2E2F30313132333435363738393A7D
:100550003B3C3D3E3F404142434445464748494B72
:100560004C4D4E4F50525354555758595A5C5D5E3E
:10057000606163646567686A6B6C6E6F71727476D4
:1005800077797A7C7D7F8182848687898B8D8E9036
:1005900092949597999B9D9FA1A2A4A6A8AAACAE60
:1005A000B0B2B4B6B9BBBDBFC1C3C5C8CACCCED04A
:1005B000D3D5D7DADCDEE1E3E6E8EAEDEFF2F4F7F3
:1005C000F9FCFF04033000000010035300700061C9
:1005D0000063006500360035000000180347007214
:1005E0000061007900200053007400750064006908
:1005F000006F0000000403090409023B000201002F
:10060000A0FA090400000103010100092111010001
:10061000012240000705810308000A0904010001C6
:100620000300000009211101000122850007058255
:100630000320000A1201100100000008EDFE000076
:1006400001000102030105010902A101850209015E
:10065000A100050919012905150025019505750158
:100660008102950175038101050109300931158168
:10067000257F95027508810609381581257F95012A
:1006800075088106050C0A38021581257F950175CC
:10069000088106C0C005010980A10185031601007B
:1006A0002603001A81002A8300751095018100C07D
:1006B000050C0901A1018504160100269C021A01FE
:1006C000002A9C02751095018100C005010906A150
:1006D00001050719E029E715002501950875018135
:1006E000029501750881010508190129059505750F
:1006F0000191029501750391010507190029FF1564
:100700000026FF00950675088100C00011241FBE59
:10071000CFEFDAE0DEBFCDBF04B603FE27C0809185
:10072000610290916202A0916302B09164028730ED
:10073000904BA740B04BD1F410926102109262022C
:10074000109263021092640214BE84B7877F84BF44
:100750000FB6F894A895809160008861809360003E
:10076000109260000FBEE0E0F8E3099511E0A0E010
:10077000B1E0E0E9F8E502C005900D92AE35B107B1
:10078000D9F722E0AEE5B1E001C01D92A136B20773
:10079000E1F70E94D7250C94FC2B0C9400000C94DC
:1007A000E6090C94E7090C94280481FF03C0769AAB
:1007B0000C9465057698FCCFCF93DF93CDB7DEB769
:1007C00028970FB6F894DEBF0FBECDBF8C3724E15B
:1007D000920770F469E070E00E943D2BCB012896EF
:1007E0000FB6F894DEBF0FBECDBFDF91CF91089555
:1007F000B0E0A0E08A50974DAF4FBF4F2227382F6F
:10080000492F5A2FCA01B90125EF38E241E050E0E3
:100810000E94652B29833A834B835C83CA01B9010B
:100820000E942D2B9B01AC0169817A818B819C8177
:100830000E942D2BBB27A92F982F872F009731E0DF
:10084000A307B10561F68FEF9FEFC9CF81E008954F
:1008500081E008951F93CF93DF9300D000D00F92D3
:10086000CDB7DEB749835A836B8320919B01898181
:100870009A8121111BC06623A9F00E94F11D182F37
:10088000682F89819A810E949D1D69817A81812FBB
:100890000F900F900F900F900F90DF91CF911F91BD
:1008A0000C943D070E94C91D182FEFCF0E94F11D27
:1008B00069817A81EDCFFC01408151816281738130
:1008C00084810C942A040E94580A8FE39CE90197C2
:1008D000F1F700C000000E94580A80E00E94E80979
:1008E00080FF04C00E94401F0C940B2108950C94BB
:1008F000D103E82FE295EF70F0E032A1282F2F709E
:1009000081E090E001C0880F2A95EAF78095832363
:1009100082A30895CF93DF9300D000D0CDB7DEB788
:10092000863028F5811124C090918000977F9093A4
:100930008000282F30E0AFEFBFEF0E948D2B69833E
:100940007A838B839C8325E030E040E050E00E9476
:10095000652BC9010E94DC0390938D0080938C006D
:100960000F900F900F900F90DF91CF91089585E039
:10097000909180009860DBCF10925F0110925E0131
:1009800010926001EFE6F0E080818160808308953D
:10099000EFE6F0E080818E7F80830E9426240C9415
:1009A0008A0480916F0080FD0C94C8040C94BC04F0
:1009B0001F920F920FB60F9211242F933F934F93D4
:1009C0005F936F937F938F939F93AF93BF93CF93D7
:1009D000EF93FF932091000180915E0190915F0160
:1009E000019644EF249F90011124B9010E943D2BF0
:1009F00090935F0180935E01B901660F672F661FB8
:100A0000770B71950E943D2B6F778091600182304A
:100A100041F4603451F480916F008E7F80936F00B9
:100A200004C0813011F46F37B1F3E62FF0E0E45DDC
:100A3000FC4FC4910E942624282F41E051E0C49F1E
:100A4000C001C59F900D112465E070E00E943D2B10
:100A5000269FC001279F900D11240E94DC039093D4
:100A60008D0080938C00FF91EF91CF91BF91AF915A
:100A70009F918F917F916F915F914F913F912F91B6
:100A80000F900FBE0F901F901895279A87E30E9432
:100A900079048AE08093800089E1809381008FEF60
:100AA0009FEF90938700809386000E9472230C949E
:100AB000BC040E9463040E94461F811102C00E9470
:100AC000C91F0E9445050C94CF0308950C94D503CB
:100AD00008950E941A180E9468052FEF84E39CE095
:100AE000215080409040E1F700C000000C940B21A1
:100AF0000F931F93CF93DF93EC010E945B048C0153
:100B0000BE010E94D303882309F44BC0BE01C80173
:100B10000E940912882309F444C00F3D8CE5180790
:100B2000A0F4013C8CE51807B8F405318CE51807F2
:100B3000E8F402308CE5180708F017C101158CE5C0
:100B4000180759F101301C4591F1CE01DF91CF9189
:100B50001F910F910C942604F801E15CFC45EE31E5
:100B6000F10598F7E250F44D0C94872B06311C45A3
:100B700061F70E948E1E9A81992309F469C18A7ACD
:100B800091E009F490E09093610181115FC189E2E5
:100B90000E94691E0E94DD1E04C08A8181110E948C
:100BA000690580E0DF91CF911F910F9108958A81AF
:100BB0008823B9F390911B02892F8E7F90FF81606B
:100BC00080931B02EECF8A81882359F30E94C91FAC
:100BD000E8CF8A81882329F30E947A10E2CF8A81A4
:100BE0008823F9F20E948E1E827251F00E946C10CE
:100BF000D8CF8A818823A9F20E948E1E8272B1F317
:100C00000E945E10CECF8A81882359F20E94CB0DBC
:100C1000C8CF8A81882329F20E94D70DC2CF8A814A
:100C2000882309F4BECF0E94E60DBBCF8A818823BA
:100C300009F4B7CF0E94F50DB4CF8A81882309F457
:100C4000B0CF0E94040EADCF8A81882309F4A9CFCA
:100C50000E94130EA6CF8A81882309F4A2CF0E9496
:100C60002B0C9FCF8A81882309F49BCF0E944E0CC6
:100C700098CF8A81882309F494CF81E00E946F1075
:100C800090CF8A81882309F48CCF0E94230C823074
:100C900028F00E94230C853008F4B2CF82E0EECF1A
:100CA0008A81882309F47DCF0E94230C863028F0A6
:100CB0000E94230C883008F4A3CF86E0DFCF8A811E
:100CC000882309F46ECF0E94230C893028F00E94FB
:100CD000230C8E3008F494CF89E0D0CF8A8188230A
:100CE00009F45FCF0E94230C8F3028F00E94230C60
:100CF000843108F485CF8FE0C1CF8A81882309F43D
:100D000050CF0E94230C853128F00E94230C87319C
:100D100008F476CF85E1B2CF8A81882309F441CFE8
:100D200088E1ACCF8A81882309F43BCF0E94230C51
:100D3000893128F00E94230C823208F461CF89E1C6
:100D40009DCF8A81882309F42CCF83E297CF8A81B3
:100D5000882309F426CF80E00E94782622CF8A815A
:100D6000882309F41ECF82E0F7CF8A81882309F413
:100D7000ECCE0E94461F811102C00E94C91F0E9432
:100D8000591F90E09093520280935102F801E35072
:100D9000FC45809151028160E231F10538F4E45E56
:100DA000F34D0C94872B8091510282608093510205
:100DB000809151020E945D1F0E941A18F2CE80910C
:100DC00051028460F3CF809151028860EFCF80910F
:100DD00051028061EBCF809151028062E7CF809118
:100DE00051028064E3CF809151028068DFCF80910F
:100DF00051028C60DBCF809151028E7FD7CF8091E2
:100E000051028D7FD3CF809151028B7FCFCF8091C4
:100E10005102877FCBCF809151028F7EC7CF8091C7
:100E200051028F7DC3CF809151028F7BBFCF8091C4
:100E300051028F77BBCF80915102837FB7CF9091C2
:100E40005102892F97FB87F98058B0CF85E3A0CE58
:100E500080916101811104C089E20E94701E9ACEC6
:100E600085E3FBCF8A81882309F49BCE0E94D104BD
:100E700098CE90E080E008950895E72FF0E095E0A7
:100E8000899FE00DF11D112484E0EE0FFF1F8A956C
:100E9000E1F7E60FF11DEE0FFF1FE455FF4F8591BF
:100EA00094910895FC01EE0FFF1FE455FC4F8591CE
:100EB00094910895CF93DF930E943D070E944809C3
:100EC000EC01811523E5920708F063C0811532E536
:100ED000930708F05FC18F3F910509F090F5803FBF
:100EE000910508F033C18F3B9105D8F4883A9105FC
:100EF00008F0CDC0853A910568F4049738F491E084
:100F000080E0219709F090E0C92FD82FCE01DF9122
:100F1000CF910895853A910509F0B2C0C1E8D0E4B7
:100F2000F5CF803E910540F4805C9109CF3BD1051F
:100F3000D9F4D0E0C0E0EACF805E9109089730F3A1
:100F4000F8CF811540E59407D0F4C11580E4D807A7
:100F500008F001C1C11590E3D90750F4C11520E292
:100F6000D207A0F2CE019F700E945207EC01CECFB3
:100F7000CE019927D3FDECC0EC01D06CC7CF811511
:100F800031E5930708F4EAC0D82FCC27C16FD06AA7
:100F9000BDCF8C3B9C4509F427C1CD3B8CE5D807E0
:100FA00008F043C0C11599E5D90798F5C11528E5A2
:100FB000D20708F004C1C11535E5D307C8F4C1153F
:100FC00044E5D40708F0F6C0CE018370992721E0EC
:100FD00030E002C0220F331F8A95E2F7C695C6950E
:100FE00080E2C89FE0011124C22BD32BDA688ECF98
:100FF000CE0195558F3F910511F008F09ACF8C2FB7
:101000000E94C309C82FD0E0DC2FCC27CC27DF718A
:1010100035C0C1159AE5D90708F4D6C0CB3BDC45ED
:1010200009F087CFC0E0D4ED71CFCF3B3CE5D307CB
:1010300009F4DDC060F4CD3B8CE5D80709F4DAC0D3
:10104000CE3BDC4509F075CFC0E0D0ED5FCFC03CB2
:101050002CE5D20709F4D1C0CE01905681159042FB
:1010600008F067CF8D2F8F710E94C30990E0982FF1
:10107000882788279F719C012C2BE901D06246CFDD
:10108000863A910509F0BCC0C2E8D0E43FCF883A67
:10109000910509F4B8C0893A910509F4B7C08A3AB4
:1010A000910509F4B6C08B3A910509F4B5C08C3AA4
:1010B000910509F4B4C08B3B910509F4B3C08C3B96
:1010C000910509F4B2C08D3A910509F4B1C0803B95
:1010D000910509F4B0C08E3A910509F4AFC08F3A7A
:1010E000910509F4AEC0813B910509F4ADC0823B86
:1010F000910509F4ACC0833B910509F4ABC0843B76
:10110000910509F4AAC0853B910509F4A9C0863B65
:10111000910509F4A8C0873B910509F4A7C0883B55
:10112000910509F4A6C0893B910509F4A5C08D3B42
:10113000910509F4A4C08E3B910509F4A3C08A3B34
:10114000910509F4A2C0C0E0D4E4E0CED065DECEC3
:10115000EC01D86CDBCEDF70D06AD8CE54E0969527
:1011600087955A95E1F783702C2F26952695237045
:1011700090E2299F90011124382B8C2F8370C1E0BD
:10118000D0E002C0CC0FDD1F8A95E2F7C22BD32B33
:10119000DC68BCCE8370992721E030E002C0220FCA
:1011A000331F8A95E2F7C695C69540E2C49FE001D9
:1011B0001124ECCFDC2FCC27C46FD06AA7CEDC2F54
:1011C000CC27C06FD06AA2CE8C2F8F700E94C3092B
:1011D00094E0D695C7959A95E1F79C2F9F70C82FFC
:1011E000CF70C06ED92FB8CFC0E0D5ED8FCEC0E0A4
:1011F000D2ED8CCEC0E0D1ED89CEC0E0D3ED86CE6D
:10120000C3E8D0E483CEC2EED4E480CEC9EED4E409
:101210007DCECAEED4E47ACEC5EBD4E477CEC6EB6D
:10122000D4E474CEC3EBD4E471CEC4EBD4E46ECE7C
:10123000C7EBD4E46BCECCECD4E468CECDECD4E4F4
:1012400065CEC3E8D5E462CECAE8D5E45FCEC2E994
:10125000D5E45CCEC4E9D5E459CEC1E2D6E456CE9D
:10126000C3E2D6E453CEC4E2D6E450CEC5E2D6E41F
:101270004DCEC6E2D6E44ACEC7E2D6E447CECFE6AC
:10128000D4E444CEC0E7D4E441CECAE2D6E43ECEB4
:10129000803E910581F1C8F48133910509F462C063
:1012A00048F48932910509F456C08A32910509F44F
:1012B00060C0089589339105B9F082389105A1F095
:1012C0008533910509F440C00895863E910561F18A
:1012D00038F4823E9105B1F0833E9105E1F0089526
:1012E000873E910551F10895209151022370D9F064
:1012F00080EE90E008952091510220FF14C089E310
:1013000090E008952091510222FF0DC024FD09C0F4
:1013100083EE90E008952091510222FD31C024FF18
:1013200002C090E080E008952091510223FFFBCF9E
:1013300024FDF7CF87EE90E008952091510223FF1E
:10134000EECF86EE90E008952091510225FFEBCF7D
:1013500089E290E008952091510225FFE4CF85E3D2
:1013600090E008952091510226FFDDCF8AE290E0BF
:1013700008952091510226FFD6CF81E390E0089591
:1013800082EE90E008959091510292FF06C0282FBE
:101390002871283069F4877F846093FF06C0282F66
:1013A0002871283161F4877E846194FD877E0895D9
:1013B000282F2471243089F78B7F8860EECF282F67
:1013C0002471243191F78B7E8861EFCF08950895C1
:1013D000E82FF0E0EE0FFF1FEE59FE4F8081918164
:1013E00008950895CF93DF93A4E3B1E029E331E0BA
:1013F00061E070E09D91E92FE295EF70F0E041A18E
:101400009F70EB0102C0CC0FDD1F9A95E2F7CE0171
:101410008095842381A32A173B0761F7A4E2B1E0FA
:1014200061E070E08D91E82FE295EF70F0E041A16E
:101430008F709B0101C0220F8A95EAF7922F909539
:10144000942391A382A1822B82A3D1E0A433BD0770
:1014500049F710926D0110926C0110926301109285
:10146000620110926F0110926E011092650110924C
:101470006401109271011092700110926701109234
:10148000660110927301109272011092690110921C
:101490006801109275011092740110926B01109204
:1014A0006A0185E00E94EE0ADF91CF910C94590504
:1014B0005F926F927F928F929F92AF92BF92CF92E4
:1014C000DF92EF92FF920F931F93CF93DF932CE65F
:1014D00031E004E311E0612CEE24E394F12CE90106
:1014E000899099909E01DE011E921E92F8018191D1
:1014F0008F01E82FE295EF70F0E091A18F70B701B6
:1015000001C0660F8A95EAF7892F862B81A382A1F5
:10151000562E5094852182A380EA8A95F1F784E2C1
:10152000C82E81E0D82E50E040E0E60179906E01AF
:10153000872D82958F7090E0EC0188A1AD90BC90D2
:10154000119790E0D72DDF7002C095958795DA95B9
:10155000E2F780FD40C0C701042E02C0880F991F2A
:101560000A94E2F78A299B2911969C938E934F5FE8
:101570005F4F40315105C9F681A1D52DD823D1A3A4
:1015800082A1682B62A381E04D915C9148155905B9
:1015900009F480E0682AE1E026373E0709F09FCF92
:1015A000262D45E062E671E08CE691E00E94EF0AAC
:1015B0000E947704862DDF91CF911F910F91FF90AC
:1015C000EF90DF90CF90BF90AF909F908F907F90E3
:1015D0006F905F90089590E080E0C4CF0895FF92EF
:1015E0000F931F93CF93DF93F82E092F162FD72F2A
:1015F000C42F222349F081E0809378010E94B62015
:101600009093770180937601809178018823A1F0EF
:1016100080917601909177010E94C220069760F038
:10162000EF2DF02FA12FBD2F90E080E0D0E08C17A0
:101630009D0744F010927801DF91CF911F910F9197
:10164000FF900895219131912D933D930196EFCF15
:10165000AF92BF92CF92DF92EF92FF920F931F93C0
:10166000CF93DF93362FD72E282FE82FF0E071117C
:1016700010C0ED53FB4F6491762F862FDF91CF91F1
:101680001F910F91FF90EF90DF90CF90BF90AF90A0
:101690000895E72EF12C86E0689F80011124CFEF9A
:1016A000D0E0C801BE010E943D2B832F90E0880F3F
:1016B000991F35E5369FA001379F500D1124841BDB
:1016C000950B382F330F380FCE018E199F098E9F3F
:1016D000A0018F9F500D9E9F500D1124952F3D9D71
:1016E000D0011124AB2FBB276E01CA1ADB0ACE9E94
:1016F000D001CF9EB00DDE9EB00D11248B2F5E0168
:10170000A31AB108AE9C6001AF9CD00CBE9CD00C5B
:101710001124CD2CDD24CC19DD09CE9F7001CF9F83
:10172000F00CDE9FF00C11246330710531F10C3F99
:1017300033E0130760F46130710519F1623071050F
:1017400021F10F3F110548F4852F9F2D06C064300D
:101750007105F1F066307105B9F3E22FF0E0ED5359
:10176000FB4F7491E92FF0E0ED53FB4F6491E82FAC
:10177000F0E0ED53FB4F849181CF9B2F822F252FDB
:10178000ECCF922F2B2F852FE8CF8F2D922FF7CFD5
:10179000822F2F2DE2CF0895CF93DF93982F762FAE
:1017A000842FE901692F0E94280B798368838A833B
:1017B000DF91CF91089580913402982F9E7F29F474
:1017C000817082608093340208958A34E8F38170D6
:1017D0008864F8CF88E090E00C94BC2B0F931F93A3
:1017E000CF93DF938B01D82FC92F0E94DB0BA80169
:1017F0006D2F7C2F88E090E0DF91CF911F910F91AA
:101800000C94DA2BCF93DF9300D000D0CDB7DEB7A6
:10181000E4E3F2E083E0808311828FEF82838383AD
:10182000148280819181A281B38189839A83AB8361
:10183000BC83BC01CD010F900F900F900F90DF91F2
:10184000CF910C94EE0B8091340280FF02C08695FC
:10185000089580E00895CF93DF9300D000D0CDB7F6
:10186000DEB780913802833018F48F5F809338029E
:101870008091340290913502A0913602B0913702E6
:1018800089839A83AB83BC83BC01CD010F900F90F9
:101890000F900F90DF91CF910C94EE0BCF93DF93CD
:1018A00000D000D0CDB7DEB780913802882319F080
:1018B0008150809338028091340290913502A0913A
:1018C0003602B091370289839A83AB83BC83BC0113
:1018D000CD010F900F900F900F90DF91CF910C944E
:1018E000EE0B6091050170E08091340280FF0AC028
:1018F00080917D0123E0829FC0011124875C9D4F70
:101900000C94991180917C019091040123E0829FB5
:10191000F0011124E75CFD4F891750F71182108206
:1019200012828F5F3396F8CF9091340290FF14C0EB
:1019300090917C012091040133E0939FF0011124E8
:10194000E75CFD4F921710F00C94710C818360835B
:1019500042839F5F3396F6CF0895CF93DF9300D0F5
:101960000F92CDB7DEB79091340290FF0AC09E016E
:101970002F5F3F4F0E94CC0B4B8169818A810E946F
:10198000940C0F900F900F90DF91CF910895CF930B
:10199000DF93EC01EC81F0E0E254FC4F4491E4E38E
:1019A000F2E0628181810E94AD0C8C818F5F8C831B
:1019B000DF91CF910895CF93DF93EC01E4E3F2E060
:1019C000438162818C810E94AD0C8C818F5F8C83FE
:1019D000DF91CF9108950F931F93CF93DF9300D0A2
:1019E0000F92CDB7DEB78C018091790181110AC0C9
:1019F0009E012F5F3F4F4FEF6FEF0E94CC0B8A810C
:101A000080937901F8016481613049F06230F1F02E
:101A10008091790140E0662331F040E019C0609187
:101A2000790140E080E00E94940CF801848190E00C
:101A3000019663E070E00E94512B84830F900F9019
:101A40000F90DF91CF911F910F91089540917901EF
:101A500080E060E0E8CFAF92BF92CF92DF92EF924A
:101A6000FF920F931F93CF93DF9300D000D000D04D
:101A70000F92CDB7DEB7182FF62E042FD22E9091ED
:101A8000340290FF2BC0E92FE695AE2FB0E0A75CA3
:101A9000BE4F8C91809385019E7F923081F59E018F
:101AA0002F5F3F4F812F0E94CC0B4B8169818A8130
:101AB0000E94940C10933502F09236020093370284
:101AC000DD2061F08091340290913502A0913602C0
:101AD000B0913702BC01CD010E94EE0B27960FB6E4
:101AE000F894DEBF0FBECDBFDF91CF911F910F9154
:101AF000FF90EF90DF90CF90BF90AF90089582302D
:101B000019F400913702D6CF863019F410913502BE
:101B1000D1CF8930D9F3893169F6E9518E2F81709F
:101B2000C82EE695F0E0E254FB4FA590B490E12C6E
:101B3000BB2460910301E61618F00E94710CBACF25
:101B40002E2D30E0EA9CC001EB9C900D112470E03A
:101B50000E943D2B812FC11013C0860F40917C0144
:101B6000420F532F511D9A01220F331F240F351F8F
:101B7000275C3D4F402F6F2D0E94CC0BE394D9CFB3
:101B8000861BECCF282FE4E3F2E081814381628160
:101B9000885F0C942B0D81E00C94C20D282FE4E398
:101BA000F2E081814381628188500C942B0D81E0A9
:101BB0000C94CE0D282FE4E3F2E0628138E0630F4D
:101BC00008F46FEF438181810C942B0D81E00C941C
:101BD000DA0D282FE4E3F2E0628138E0631B08F4B9
:101BE00060E0438181810C942B0D81E00C94E90D20
:101BF000282FE4E3F2E0438138E0430F08F44FEF8D
:101C0000628181810C942B0D81E00C94F80D282FBA
:101C1000E4E3F2E0438138E0431B08F440E06281F2
:101C200081810C942B0D81E00C94070E20E00C9424
:101C30002B0DEF92FF921F93CF93DF93EC0110E0F7
:101C4000EE24EA94F12C60910301161770F00E94C3
:101C5000710C9A818C8190FF27C08F5F8C83DF91FC
:101C6000CF911F91FF90EF90089520917C01422F1A
:101C7000410F5527551FCA019A01220F331F280F04
:101C8000391F275C3D4F70E0C7010E94512B962FF2
:101C90008C814091370260913602199F800D11248A
:101CA0000E94CC0B1F5FCFCF8150D8CFBF92CF9275
:101CB000DF92EF92FF920F931F93CF93DF93FC017C
:101CC00082810FEF80FF01E010E08091030118177F
:101CD000C0F00E94710C80917B01013009F04DC071
:101CE000811102C080910301815080937B01DF91BB
:101CF000CF911F910F91FF90EF90DF90CF90BF9009
:101D00000895C0917C01C12ED12CCC0DDD2DD11DAB
:101D1000CE01880F991FC80FD91FC75CDD4F1982EC
:101D200018821A8234E0E32EF12CB12C80917B01D1
:101D30008B0D87FF03C090910301890F082E000CC3
:101D4000990BC816D90691F4809137028E9DA00197
:101D50008F9D500D112455954795559547959E019A
:101D600060913602809135020E94CC0BB00EF1E0FA
:101D7000EF1AF108D9F61F5FA8CF90E001966091A5
:101D8000030170E00E94512BB0CF0F931F93CF93AC
:101D9000DF9380917C019091040123E0829FF00108
:101DA0001124E75CFD4F891740F1C0E0D3E060915A
:101DB0000301C61740F10E94710C2091010180912E
:101DC0007A01820F80937A0190910201920F909391
:101DD0000201191654F4082E000C990B40910301CE
:101DE0004150550B841795071CF021952093010154
:101DF000DF91CF911F910F9108951182108212826D
:101E00008F5F3396D0CF0C2F10E070E0C8010E9496
:101E1000512B20917C01820F482F50E020917A01B4
:101E2000022E000C330B02171307BCF020910201A5
:101E3000022E000C330B201731077CF08D9F900190
:101E40001124275C3D4F409137026091360280910A
:101E500035020E94CC0BCF5FAACFFA01EE0FFF1F15
:101E6000E40FF51FE75CFD4F118210821282F3CF61
:101E70000F931F93CF93DF938C01FC018481958195
:101E800001968170992795838483C0E0D5E5809180
:101E90000301C81730F0DF91CF911F910F910C947F
:101EA000710C20917C01422F4C0F5527551FCA0100
:101EB0009A01220F331F280F391F275C3D4F8C2FAB
:101EC0008695F80144815581840F952F911D81706D
:101ED00040913702609136028D9F802D11240E941F
:101EE000CC0BCF5FD4CF0F931F93CF93DF93EC0135
:101EF00010E000E0909103019017110609F06CF4D6
:101F00000E94710C8C8190E00196817099278C83DE
:101F1000DF91CF911F910F91089520917C01A8012D
:101F2000420F511D9A01220F331F240F351F275CCA
:101F30003D4F4C8160913602809135029695901705
:101F4000110651F04CF0442349F0409137020E94B1
:101F5000CC0B0F5F1F4FCECF4423B9F340E0F7CF38
:101F6000CF93DF9300D000D0CDB7DEB7E4E3F2E04B
:101F700080818E7F808380819181A281B3818983DA
:101F80009A83AB83BC83BC01CD010E94EE0B1092FF
:101F900086019FEFA0E7B2E09150A040B040E1F78A
:101FA00000C000000F900F900F900F90DF91CF9125
:101FB0000C94710CE4E3F2E080818E7F80831092B8
:101FC00086012FEF80E792E0215080409040E1F7BA
:101FD00000C000000C94710C60913402669570E0B2
:101FE0004BE050E086E091E00E94A72B892B19F48A
:101FF00081E0809386010E94B62090937F018093B8
:102000007E010895CF93DF9300D000D0CDB7DEB727
:102010009091340290FF41C09170811134C0926060
:1020200090933402662381F08091340290913502BE
:10203000A0913602B091370289839A83AB83BC8327
:10204000BC01CD010E94EE0B60913402669570E0F8
:102050004BE050E086E091E00E94A72B892BD1F065
:102060001092860181E08093810140913702609156
:102070003602809135020F900F900F900F90DF91F4
:10208000CF910C94160E853210F09864C9CF880F4A
:10209000982BC6CF0E94EC0FE5CF0F900F900F90BA
:1020A0000F90DF91CF910895682F8091340286952B
:1020B0008F5F853208F081E00C94021081E00C946F
:1020C0005410682F9091340296958FEF890F9130BC
:1020D00009F484E20C94021081E00C94611061E038
:1020E0000C940210E4E3F2E08081816080838695A5
:1020F0000C946F108091340280FD0C94B00F0C94FE
:10210000721060E00C94021080918401811133C040
:1021100080911B02816080931B020E94461F8111E7
:1021200004C00E94C91F0E94020C0E94EA0B609327
:1021300034027093350280933602909337026E7F9B
:1021400061F40E94020C0E94EA0B609334027093C7
:10215000350280933602909337020E94DB0B109277
:1021600086018091340280FF03C086950E94811011
:1021700081E0809384010895E4E3F2E0808181604E
:10218000808386950C9481101092860108950F9398
:102190001F93CF93DF9380918601882309F48DC02C
:1021A00080918501E0913402E695E81BE09380017F
:1021B0008230C9F5F0E0E654FC4FE491CE2FD0E038
:1021C00007EC1CE080918101882389F01092810145
:1021D0000E94B6209E0120953095280F391F30931C
:1021E0007F0120937E0110928301109282018091E1
:1021F0007E0190917F010E94C2208C179D0708F4F8
:102200005CC0E0917E01F0917F01CE0FDF1FD09383
:102210007F01C0937E018EE791E0F801DF91CF91BD
:102220001F910F910994863049F4F0E0E954FC4F76
:10223000E491CE2FD0E00BED1CE0C4CF893051F4F7
:10224000E695F0E0EC54FC4FE491CE2FD0E009E1AC
:102250001EE0B8CF8F3051F4E695F0E0EF54FC4F1C
:10226000E491CE2FD0E006E51EE0ACCF853149F4F5
:10227000F0E0E255FC4FE491CE2FD0E005EC1EE0FB
:10228000A1CFC8EED3E008E31FE0883109F49ACF6C
:10229000833239F4ECEAF3E0C591D4910BEE1CE003
:1022A00091CFC4EFD1E003E71FE0843209F48ACF75
:1022B000C0EDD7E00BEC1BE085CFDF91CF911F91F4
:1022C0000F9108959C01CB016EB1542F5095562368
:1022D0006EB1462B6FB7F894820F931F28173907FA
:1022E00011F46FBF0895F90171919F01E8E04EB9B3
:1022F000000000C077FF5EB9770F000000C000C08B
:1023000000C05EB900C0EA9591F7E8CFFC019DB12D
:10231000942B9DB99B01220F331F620F731FCF01B6
:102320000E94621187EC90E00197F1F700C0000075
:10233000089544E00C9486110F931F93CF93DF937D
:10234000C62FD42F022FFC0182818823C9F060930D
:1023500089010E94B620909388018093870180E2D2
:102360008C0F883008F050C0C77081E001C0880F22
:10237000CA95EAF7DF91CF911F910F910C94201528
:1023800010918901161335C08091870190918801C1
:102390000E94C220883C910560F5C0E2CD0F1D1758
:1023A000B9F080E2810F883040F4177081E001C0FD
:1023B000880F1A95EAF70E942715C83048F481E083
:1023C0009D2F977001C0880F9A95EAF70E942015FB
:1023D000802F0E940D15C830B8F4D77081E001C07D
:1023E000880FDA95EAF7DF91CF911F910F910C9446
:1023F000271580E28C0F883038F4C77081E001C067
:10240000880FCA95EAF7EFCFDF91CF911F910F9117
:1024100008959C01CB01203F4CE5340769F190F40D
:10242000283DFCE53F0721F1293D4CE5340781F1CA
:10243000273D3C45B1F0FC018281882361F1109277
:1024400089010895223FFCE53F07D1F0233F4CE589
:102450003407D1F0213F3C4571F727E245EE64EEA9
:1024600003C026E241EE61EE0E949C1180E00895D7
:1024700027E245EE65EEF8CF26E241EE60EEF4CFBE
:1024800026E241EE62EEF0CF27E245EE66EEECCFBB
:1024900028E241E0EFCF81E0089590938F0180938F
:1024A0008E010895E0918E01F0918F01309721F017
:1024B0000190F081E02D099480E00895E0918E0173
:1024C000F0918F01309721F00280F381E02D099483
:1024D0000895DC01E0918E01F0918F01309739F081
:1024E00082E08C930480F581E02DCD01099408955C
:1024F00020918C0130918D012817390771F090934C
:102500008D0180938C01E0918E01F0918F013097C5
:1025100021F00680F781E02D0994089520918A0129
:1025200030918B012817390771F090938B018093BC
:102530008A01E0918E01F0918F01309721F00084A3
:10254000F185E02D0994089585B7806885BF85B72A
:10255000806885BF0895089508950C94AB1208957E
:102560000C94AF120E94A4120E94AC120C94AD12F3
:1025700081E008950E94AD200E94F2090E942F215F
:102580000E9472230E9484100C94B0125F926F928A
:102590007F928F929F92AF92BF92CF92DF92EF92F3
:1025A000FF920F931F93CF93DF9300D000D00F9231
:1025B000CDB7DEB70E94580A0E94B812882309F4EA
:1025C00079C091E9A92E91E0B92E10E000E08824AD
:1025D0008394912C502E802F0E94E8097C01F501F4
:1025E000C190D1905F01C816D90609F45DC08091F1
:1025F0001B0281FD0E94F10990E080E0CE24DF24DF
:102600003401082E02C0660C771C0A94E2F796018A
:1026100026213721232B09F442C089835A82E620E0
:10262000F72081E0EF2809F480E08B830E94B62038
:102630008160782F9D838C8349815A816B818D8144
:102640000E948013000F111FF801EF56FE4F80818A
:10265000918168267926718260820E94CF220E9431
:102660005212909190018917B1F10E9452128093F9
:1026700090010F900F900F900F900F90DF91CF91DE
:102680001F910F91FF90EF90DF90CF90BF90AF9090
:102690009F908F907F906F905F900C94660501964D
:1026A0008031910509F0ACCF0F5F1F4F0530110548
:1026B00009F090CF8FEF89838A831B820E94B62016
:1026C0008160782F9D838C8349815A816B818D81B4
:1026D0000E948013C2CF0F900F900F900F900F9019
:1026E000DF91CF911F910F91FF90EF90DF90CF90EE
:1026F000BF90AF909F908F907F906F905F90089564
:10270000CF93DF93CDB7DEB72B970FB6F894DEBF2C
:102710000FBECDBF4F83588769877A878B871E820C
:1027200085E0FE013796DE01119601900D928A95A3
:10273000E1F749815A816B817C818D819E812B9645
:102740000FB6F894DEBF0FBECDBFDF91CF910C94D2
:10275000B31AFC01808191810C94331E882309F403
:1027600005C18238B9F40E94521281FDFFC089E38D
:102770000E94691E0E94DD1E2FEF81EE94E0215021
:1027800080409040E1F700C0000089E30E94701E85
:102790000C94DD1E8338A1F40E94521280FDE6C025
:1027A00083E50E94691E0E94DD1E2FEF81EE94E0FA
:1027B000215080409040E1F700C0000083E5E6CF63
:1027C0008438A1F40E94521282FDD0C087E40E9496
:1027D000691E0E94DD1E2FEF81EE94E021508040A3
:1027E0009040E1F700C0000087E4D0CF9CEF980F45
:1027F000913A18F40E94691ECBCF90E2980F98305E
:1028000050F4877091E001C0990F8A95EAF7892FFB
:102810000E94911EBDCF9BE5980F933070F4853ACE
:1028200031F0863A39F083E890E00C94781281E830
:1028300090E0FBCF82E890E0F8CF98E5980F9731D1
:1028400008F08EC0883A09F446C0893A09F446C0B7
:102850008A3A09F446C08B3A09F446C08C3A09F426
:1028600046C08B3B09F446C08C3B09F446C08D3A08
:1028700009F446C0803B09F446C08E3A09F446C0CC
:102880008F3A09F446C0813B09F446C0823B09F403
:1028900046C0833B09F446C0843B09F446C0853BEF
:1028A00009F446C0863B09F446C0873B09F446C09C
:1028B000883B09F446C0893B09F446C08D3B09F4C6
:1028C00046C08E3B09F446C08A3B09F446C090E0FE
:1028D00080E00C948E1282EE90E0FBCF89EE90E0C7
:1028E000F8CF8AEE90E0F5CF85EB90E0F2CF86EB63
:1028F00090E0EFCF83EB90E0ECCF84EB90E0E9CF7A
:1029000087EB90E0E6CF8CEC90E0E3CF8DEC90E0AD
:10291000E0CF83E891E0DDCF8AE891E0DACF82E989
:1029200091E0D7CF84E991E0D4CF81E292E0D1CF9A
:1029300083E292E0CECF84E292E0CBCF85E292E0D8
:10294000C8CF86E292E0C5CF87E292E0C2CF8FE6A1
:1029500090E0BFCF80E790E0BCCF8AE292E0B9CFB1
:10296000803F20F00E94DD210C94C422089588232A
:1029700009F452C0823871F40E94521281FF4CC097
:1029800089E30E94691E0E94DD1E89E30E94701E79
:102990000C94DD1E833859F40E94521280FF3CC013
:1029A00083E50E94691E0E94DD1E83E5EFCF843817
:1029B00059F40E94521282FF2FC087E40E94691EC0
:1029C0000E94DD1E87E4E2CF9CEF980F913AF0F26F
:1029D00090E2980F983050F4877091E001C0990F01
:1029E0008A95EAF7892F0E94971ED2CF9BE5980F10
:1029F000933020F490E080E00C94781298E5980FE2
:102A0000973120F490E080E00C948E12803F20F00B
:102A10000E9445220C94C4220895CF93C82F0E948F
:102A2000AE13C93349F42FEF83EC99E02150804075
:102A30009040E1F700C000008C2FCF910C94B714A8
:102A4000882321F00E94911E0C94DD1E0895882396
:102A500021F00E94971E0C94DD1E0895BF92CF9224
:102A6000DF92EF92FF920F931F93CF93DF9300D0EB
:102A700000D00F92CDB7DEB76C016D837983FC0176
:102A8000058102950F70128111110E94B01E0E94E3
:102A9000871EE82E882371F01123B1F08D81805EAE
:102AA000883090F082E00E94281F0E94871E91E0EB
:102AB000E82EE926B980B2949FE0B922EB2DF0E030
:102AC000E25DF34D0C94872BE12CF4CF09810F705C
:102AD000F981F07F11F00295007F1123B1F00023FE
:102AE00061F08D81805E883018F02D81211109C040
:102AF000802F0E94911E0E94DD1E8D810E94AE13C8
:102B000015C0802F0E94A21EF6CF8D810E94B7149F
:102B1000002361F08D81805E883018F04D81411175
:102B200033C0802F0E94971E0E94DD1E78E0B716EA
:102B300029F096E09B0D9F70923020F40E94521273
:102B40000E946605EE2009F426C20E94831E80FDC5
:102B500022C2F60112820E947D1E0E948D1CC601B7
:102B60000E94DA170E947D1E0F900F900F900F9019
:102B70000F90DF91CF911F910F91FF90EF90DF9019
:102B8000CF90BF900C94BE1C802F0E94A81ECCCF6B
:102B900059815F70F52E6981607F603219F0F2947F
:102BA00080EFF8227D81772369F0713049F111239C
:102BB00091F1002351F1F601858180FF9ECF8F7046
:102BC000858323C0112381F0011106C00E94C41E19
:102BD0008F290E942015AACF0130C1F70E94C41E80
:102BE0008F290E94CA1EA2CF011106C00E94D31EC7
:102BF0008F2D0E9427159ACF013009F497CFF6CF79
:102C0000112329F0063008F091CF8F2DE2CF053047
:102C100008F08CCFEDCF002359F38D810E94B714BB
:102C200085CF898186958695837069F0813009F01A
:102C30007DCF8D8199819370111102C090E080E069
:102C40000E948E1273CF8D8199819370111102C0F1
:102C500090E080E00E94781269CF112311F1FD818C
:102C6000F53F99F0F63FB9F0F43F49F480914B02FB
:102C700090914C02816090934C0280934B028D8125
:102C80000E94DD210E94C42251CF80914B0290917D
:102C90004C028260F0CF80914B0290914C02846094
:102CA000EACF2D81253F89F0263FA9F0243F49F442
:102CB00080914B0290914C028E7F90934C028093B6
:102CC0004B028D810E944522DDCF80914B02909175
:102CD0004C028D7FF2CF80914B0290914C028B7F02
:102CE000ECCF8981837009F050C011111FCF4D8145
:102CF000429546954770440F440F8D818F7090E048
:102D0000B0E0A0E0042E04C0880F991FAA1FBB1FCB
:102D10000A94D2F75D8100E010E0980154FF0FC0E3
:102D20000FE010E020E030E004C0000F111F221F70
:102D3000331F4A95D2F700951095209530956981FB
:102D40006695669563706D83B901A801482B592B70
:102D50006A2B7B2B49835A836B837C835D816981DA
:102D60007A818B819C81523051F0533059F051302F
:102D700019F00E94031CDACE0E94DB1BD7CE0E9402
:102D80002B1CD4CE0E94D91BD1CE8695112311F0D5
:102D900089818170882309F4C9CE4D814295469579
:102DA0004770440F440F8D818F7090E0B0E0A0E039
:102DB000042E04C0880F991FAA1FBB1F0A94D2F7C4
:102DC0006D8100E010E0980164FF0FC00FE010E09B
:102DD00020E030E004C0000F111F221F331F4A956E
:102DE000D2F7009510952095309579817695769556
:102DF00073707D83B901A801482B592B6A2B7B2B5B
:102E000049835A836B837C835D8169817A818B815D
:102E10009C81523051F0533059F0513019F00E94DA
:102E20004C1D84CE0E94241D81CE0E94741D7ECE36
:102E30000E94571C7BCE6D81623F09F448C080F42C
:102E4000603F81F1613FE1F1862F805E8031D8F0F3
:102E5000112309F457C0011150CE89818F7134C0FC
:102E60007D81733FD9F1743F99F7112309F440C074
:102E700099819F719983892F0E948D1C63E08981BC
:102E80000E94131F53CE8D818F708D8389818F7126
:102E9000112321F00E948D1C8D819BCE0E94BE1CAF
:102EA0008D81A7CE112341F0053008F03FCE8981F6
:102EB0008F710E94F31C3ACE063008F037CEF7CF60
:102EC00089818F71112339F00E948D1C2FCE898149
:102ED0008F711123C9F30E94BE1C28CE112329F043
:102EE00089818F710E94681C21CE0E94631C1ECEB6
:102EF00081E00E94281F023008F418CE82E00E9470
:102F0000281F14CE002371F0ED81E93309F085CE3E
:102F1000FFEF23EC49E0F15020404040E1F700C0D2
:102F200000007BCE89818F71D6CF49814F706D8132
:102F3000C6010E9439070E944D1BF8CD1111F6CD34
:102F400059815F7059835330D1F048F4513089F082
:102F5000523091F05111EACD0E948C23E7CD698166
:102F6000643081F080E0653009F0E0CD0E940A24F1
:102F7000DDCD0E94A423DACD0E94E023D7CD0E94AC
:102F8000E723D4CD85E0F2CF49814F706D81C60132
:102F90000E943C07CBCD0F900F900F900F900F9099
:102FA000DF91CF911F910F91FF90EF90DF90CF9025
:102FB000BF9008950F931F93CF93DF93EC018B8104
:102FC0009C81892B29F08881998189238F3F29F45D
:102FD000DF91CF911F910F910895CE010E94780546
:102FE0008823B1F3688179818A810E943F1E8C0118
:102FF0000E949C1D0E94D81BB801CE01DF91CF9189
:103000001F910F910C942E150E94B01E0E94C11E9C
:103010000E94DD1E0E9466230E94C42290E080E090
:103020000E94781290E080E00C948E120E94771E2D
:103030000C9404180E949F1E0C941618282F892F98
:1030400082958F70903C80F48A30B0F4843020F404
:10305000823090F480E008958630E1F781E0203EF0
:1030600088F0213FB9F70EC08C3011F08F3091F706
:1030700093FB882780F9089581E0203F39F018F408
:10308000203E40F70895243F29F7FCCF08950E9481
:10309000331E0C941E18CF93DF9300D000D00F92F4
:1030A000CDB7DEB70F900F900F900F900F90DF917C
:1030B000CF910895CF93DF9300D000D000D0CDB74B
:1030C000DEB726960FB6F894DEBF0FBECDBFDF91F8
:1030D000CF9108951F93CF93DF93E0919C0116E069
:1030E00080919D018E1304C0DF91CF911F910895AF
:1030F000CE2FD0E01E9FF0011124E256FE4F4081FA
:10310000518162817381848195810E945A18FE01E8
:103110003196E770E5CF4091CE015091CF0160919B
:10312000D0017091D1018091D2019091D3010C9482
:103130005A181F93CF93DF938091D301807FC1F4FE
:103140008091D0018823A1F080919C01C0919D01C4
:103150006091CE017091CF014091D1015091D20187
:10316000D62FD723DA01A095B09516E0C81304C076
:10317000DF91CF911F91089590E04115510511F015
:10318000DF3F31F401968770F1CF2A0F3B1F17C044
:10319000189FF001199FF00D1124E256FE4F218176
:1031A0002713F0CF20812613EDCF22812111EACF02
:1031B000238134812417350740F3241B350B283C29
:1031C000310500F72091D3012F7020612093D301A6
:1031D00026E0289FF001299FF00D1124ED55FE4FA8
:1031E00080818F70806180838EEC91E00E94DA177D
:1031F000DF91CF911F910C946A189F92AF92BF926A
:10320000CF92DF92EF92FF920F931F93CF93DF93B2
:10321000CDB7DEB72B970FB6F894DEBF0FBECDBF8C
:103220008C0185E0F801DE01179601900D928A95D8
:10323000E1F7D8014C9111965C9111971296EC90A0
:1032400012978091D1019091D201009709F46CC13D
:103250002091CE013091CF01632F62236F3F09F49B
:1032600063C11396CD90DC909090D001992009F421
:10327000FAC0C816D90608F43FC0F601E81BF90BDE
:10328000CF01FF24F394883C910508F0F12C8EECDB
:10329000A82E81E0B82E8091D301982F907FFF2037
:1032A00009F4B9C0911180C0FE2C35132AC0241333
:1032B00028C0E11026C08F7080618093D3010E94E6
:1032C0008B18C5010E94DA178091D301D801159699
:1032D0008C938F2D2B960FB6F894DEBF0FBECDBF0B
:1032E000DF91CF911F910F91FF90EF90DF90CF90E2
:1032F000BF90AF909F900895809590958C0D9D1DE7
:10330000C0CFCD2829F0842F85238F3F09F028C115
:1033100080E0B82FB170DB2EE0919C0120919D01DF
:1033200036E080FD1CC0EE20A1F28091D3018160C7
:103330008093D301F12CCDCF8E2F90E03E9FF001F2
:103340001124E256FE4F6181651306C0608164134B
:1033500003C062816E11E7CFFC013196E770E21382
:10336000EBCF4F8358878F8198850E94331E292F7A
:1033700022952F70903260F0225F2F70223078F407
:103380009F7051F0F8019581907F31F4D12C0AC0E3
:103390009F7011F08823D1F3805E8830B8F3C801A4
:1033A0000E94DA17FD2C95CF351306C0241304C0F4
:1033B000D801EE2009F47CC04F8358878F8198850F
:1033C0000E944718882319F1EE2009F18091D3015A
:1033D000803270F02091CE013091CF013A83298361
:1033E0001B82DD82CC828E83CE0101960E94DA1789
:1033F00086E0F801AEECB1E001900D928A95E1F71C
:103400000E9499180E948B18FF24F39462CFC80180
:103410000E94DA17F9CF911113C07C2DDB86CA8682
:103420006E2D8B850E944B188EEC91E00E94DA176E
:1034300086E0F50111928A95E9F70E948B1849CF31
:103440003513BACF2413B8CFE110B6CFD8011596F3
:103450008C93C8010E94DA1786E0F50111928A95D3
:10346000E9F7F92C36CFC816D90680F1B601681BEA
:10347000790BCB01F12C883C910508F046C0FE2C5D
:10348000EE2029F2351330C024132EC08091D301D1
:1034900080FD21C0982F907FF1F0D80115968C9374
:1034A0001597903F39F0982F907F905F8F70892B00
:1034B00015968C93C8010E94DA1786E0F801AEECED
:1034C000B1E001900D928A95E1F7B7CF8095909584
:1034D0008C0D9D1DCFCF86E0F801AEECB1E00190E0
:1034E0000D928A95E1F7F5CE4F8358878F819885A5
:1034F0000E94471881117CCF8091D3018160809315
:10350000D301C8010E94DA17E4CE7C2DDB86CA867F
:103510006E2D8B850E944B1886E0EEECF1E0DF010A
:103520001D928A95E9F789CFEE2009F470CF4F8379
:1035300058878F8198850E944718F82E882309F4B0
:1035400066CF86E0F801AEECB1E001900D928A956D
:10355000E1F78EEC91E00E94A9130E9499186DCFBB
:1035600081E08E25D6CE1F93CF93DF93CDB7DEB704
:103570002C970FB6F894DEBF0FBECDBF4F83588790
:1035800069877A878B879C87CE0107960E94FD18F2
:10359000882369F08A859B85892B39F04F8158856E
:1035A000842F85238F3F09F071C016E05FC086E04D
:1035B000FE013796DE01119601900D928A95E1F792
:1035C0008A859B85892B89F388859F8189238F3FF5
:1035D00061F320919D0130E0C90101968770992720
:1035E00040919C014817190671F40E941A18109214
:1035F0009D0110929C0186E0EEECF1E0DF011D924E
:103600008A95E9F7D2CF96E0929FD001939FB00DB3
:103610001124A256BE4FFE01319601900D929A954B
:10362000E1F780939D010E946A18BFCF819FC0017E
:10363000112482569E4F0E94FD188823E9F0E091E4
:103640009C011E9FF0011124E256FE4F40815181E2
:1036500062817381848195810E945A1880919C01B6
:1036600090E001968770992780939C0180919C013E
:1036700090919D018913DACF2C960FB6F894DEBF96
:103680000FBECDBFDF91CF911F91089569857A85D7
:103690008B859C850E945A1888CFEF92FF920F93DA
:1036A0001F93CF93DF938C01892B89F0F12CEE24AB
:1036B000E394E8012196F8018491843709F457C016
:1036C000A0F4823009F43EC048F48130D1F0DF919B
:1036D000CF911F910F91FF90EF9008959CEF980F5D
:1036E0009037A8F70E94AE130AC0853709F44CC082
:1036F0009CE7980F903758F78F770E94B7148E0188
:1037000016C00E5F1F4FFE01849190E2980F983013
:1037100060F48770FE2D01C0FF0F8A95EAF78F2FA6
:103720000E94B31E0E94DD1E02C00E94AE138F2DA8
:10373000815008F4BECFEFE9FFE03197F1F700C008
:103740000000F6CF0E5F1F4FFE01849190E2980FAC
:10375000983050F48770FE2D01C0FF0F8A95EAF76C
:103760008F2F0E94B91EDECF0E94B714E0CF0E5FEC
:103770001F4FFE01C491C150D0F28FE99FE0019725
:10378000F1F700C00000F7CF0E5F1F4FFE01F4906D
:10379000CECF08950C94C91B0E94CA1B60930A02E5
:1037A00070930B0280930C0290930D020C940418FA
:1037B00008950C94CC1BCF93DF9300D000D0CDB7ED
:1037C000DEB769837A838B839C8380910A02909110
:1037D0000B02A0910C02B0910D0229813A814B811C
:1037E0005C81282B392B4A2B5B2B29833A834B8313
:1037F0005C83CA01B9010F900F900F900F90DF9179
:10380000CF910C94CC1BCF93DF9300D000D0CDB7D9
:10381000DEB769837A838B839C8380910A029091BF
:103820000B02A0910C02B0910D0229813A814B81CB
:103830005C81282339234A235B2329833A834B83E2
:103840005C83CA01B9010F900F900F900F90DF9128
:10385000CF910C94CC1BCF93DF9300D000D0CDB789
:10386000DEB769837A838B839C8380910A0290916F
:103870000B02A0910C02B0910D0229813A814B817B
:103880005C81282739274A275B2729833A834B8382
:103890005C83CA01B9010F900F900F900F90DF91D8
:1038A000CF910C94CC1B0C94C91B0C94531C0E94FC
:1038B000551C609306027093070280930802909350
:1038C00009020C94041860E070E0CB010C94571CC2
:1038D0000F931F93CF93DF9300D000D0CDB7DEB707
:1038E00041E050E060E070E08A019B0104C0000FFD
:1038F000111F221F331F8A95D2F709831A832B8346
:103900003C83C901B8010F900F900F900F90DF9189
:10391000CF911F910F910C94571C0F931F93CF932E
:10392000DF9300D000D0CDB7DEB741E050E060E0DB
:1039300070E004C0440F551F661F771F8A95D2F7A9
:103940008091060290910702A0910802B0910902AD
:103950008A019B01082B192B2A2B3B2B09831A83E5
:103960002B833C83C901B8010F900F900F900F90EB
:10397000DF91CF911F910F910C94571C0F931F93C0
:10398000CF93DF9300D000D0CDB7DEB741E050E059
:1039900060E070E004C0440F551F661F771F8A95D2
:1039A000D2F7409550956095709580910602909160
:1039B0000702A0910802B09109028A019B01082325
:1039C00019232A233B2309831A832B833C83C901B0
:1039D000B8010F900F900F900F90DF91CF911F9132
:1039E0000F910C94571C0F931F93CF93DF9300D02C
:1039F00000D0CDB7DEB741E050E060E070E004C039
:103A0000440F551F661F771F8A95D2F780910602D3
:103A100090910702A0910802B09109028A019B01CE
:103A2000082719272A273B2709831A832B833C83DE
:103A3000C901B8010F900F900F900F90DF91CF91B7
:103A40001F910F910C94571CCF93DF9300D000D09F
:103A5000CDB7DEB769837A838B839C83809106021E
:103A600090910702A0910802B091090229813A8140
:103A70004B815C81282B392B4A2B5B2B29833A8382
:103A80004B835C83CA01B9010F900F900F900F9088
:103A9000DF91CF910C94571CCF93DF9300D000D0CF
:103AA000CDB7DEB769837A838B839C8380910602CE
:103AB00090910702A0910802B091090229813A81F0
:103AC0004B815C81282339234A235B2329833A8352
:103AD0004B835C83CA01B9010F900F900F900F9038
:103AE000DF91CF910C94571CCF93DF9300D000D07F
:103AF000CDB7DEB769837A838B839C83809106027E
:103B000090910702A0910802B091090229813A819F
:103B10004B815C81282739274A275B2729833A83F1
:103B20004B835C83CA01B9010F900F900F900F90E7
:103B3000DF91CF910C94571C08959295907FE92FB7
:103B4000E80F877041E001C0440F8A95EAF7E695D7
:103B5000E695E69585E0E89FF0011124EC52FE4FD2
:103B600030E020E070E05191DF011197CB01022E8F
:103B700002C0969587950A94E2F781708195852712
:103B8000842385278C932F5F3F4F2530310559F7CC
:103B90000895E92FE295E07FE80F982F9770E6955A
:103BA000E695E69585E0E89FF0011124EC52FE4F82
:103BB00050E040E080E0219130E0092E02C03695CF
:103BC00027950A94E2F721703327042E01C0220FB3
:103BD0000A94EAF7822B4F5F5F4F4530510559F742
:103BE0000895BF92CF92DF92EF92FF920F931F93AF
:103BF000CF93DF938C01C0900602D0900702E09033
:103C00000802F090090280910A0290910B02A091A3
:103C10000C02B0910D02C82AD92AEA2AFB2ACFE168
:103C2000D0E0BC2ED701C6010C2E04C0B695A795D6
:103C3000979587950A94D2F780FD0EC0219788F753
:103C4000B12C8B2DDF91CF911F910F91FF90EF90B1
:103C5000DF90CF90BF900895B8018C2F0E945A0733
:103C6000019761F3EECFCF93DF93D82FC92F0E9436
:103C7000F11D6D2F7C2FDF91CF910C945A071F936C
:103C8000CF93DF93162FD72F90919B01992339F073
:103C9000862F972FDF91CF911F910C94331E88238D
:103CA00091F0862F972F0E94F11DC82F682F812F2A
:103CB0009D2F0E949D1D612F7D2F8C2FDF91CF9115
:103CC0001F910C945A07862F972F0E94C91DC82F49
:103CD000F2CF682F80911101909112010C9406206F
:103CE000682F80911101909112010C94082080910D
:103CF0001101909112010C940A2080910E02859579
:103D000085958595089580910E028770089590910C
:103D10000E02977081E009F480E0089580911A0204
:103D2000089590911A02982B90931A020895982F53
:103D3000909580911A02892380931A020895109217
:103D40001A02089590911902982B909319020895E0
:103D5000982F9095809119028923809319020895D4
:103D600010921902089590911802982B90931802BE
:103D70000895982F909580911802892380931802B6
:103D8000089510921802089580910F0208950895E1
:103D90000C94C71E90910F02981721F080930F0288
:103DA0000C94C81E089580910F02882329F0109268
:103DB0000F0280E00C94C81E0895E0911101F0916B
:103DC000120180911A028083E0911101F091120199
:103DD000808190911902892B8083E0911101F091EB
:103DE0001201808190911802892B808390910F029B
:103DF000992381F0E0911101F09112018081892BCA
:103E0000808380911101909112010E94CB1F81113A
:103E10000E94D31E80911101909112010C945E12A8
:103E200008950C94101F98E0899F90011124622B33
:103E300060930E020E948D1C80910E0285958595DF
:103E400085950C94111F10920E0280E00C94111FA6
:103E500090910E028095892380930E02282F27705F
:103E600071F4282F082E000C330B9217130639F02B
:103E70008595859585950E94BE1C0C94231F0895F9
:103E80006FEF7FEF90E080E00C94E62B90E080E015
:103E90000E94C22B9C0181E02D3E3E4F09F080E044
:103EA000089582E090E00C94B42B83E090E00C94B1
:103EB000B42B84E090E00C94B42B682F84E090E065
:103EC0000C94C82B86E090E00C94B42B682F86E00D
:103ED00090E00C94C82BAB01BC018FE090E00C94F7
:103EE000DA2BAB01BC0183E190E00C94DA2B60E0AB
:103EF00070E0CB010C94711F60E070E0CB010E9478
:103F00006B1F0C94771F6DEE7EEF90E080E00E94B7
:103F1000E62B60E082E090E00E94C82B60E083E046
:103F200090E00E94C82B10920A0210920B0210928D
:103F30000C0210920D0260E084E090E00E94C82B19
:103F400060E085E090E00E94C82B60E086E090E0B1
:103F50000E94C82B6FEF87E090E00E94C82B40E0E2
:103F600050E0BA0188E090E00E94DA2B60E08DE03A
:103F700090E00E94C82B40E050E0BA0188E190E058
:103F80000E94DA2B60E087E190E00E94C82B0C943D
:103F90007C1F0C94831FAC019C012E5F3F4F485F38
:103FA0005F4F80E02417350709F40895F9019191D6
:103FB0009F019923B9F38F5FF5CF9C01FC013296E5
:103FC0008FEF90E04191461751F08F3F19F4411166
:103FD00001C0892F9F5F9630A9F78F3F09F408959C
:103FE000280F311D87FD3A95F901628308959C01E0
:103FF000FC013296285F3F4F8191861303C0DF0199
:1040000011971C92E217F307B9F708950C94DD1F7E
:104010000C94F71FFC01329686E0DF011D928A9511
:10402000E9F70895089508950C9413200E94142030
:1040300080915802843009F43CC010921C0288E13F
:1040400090E020E40FB6F894A895809360000FBE2E
:104050002093600080E00E948A0480E00E94660550
:104060000E94C41080911D0281110AC081E08093DA
:104070001D0280913402817080931E020E94DA0F2B
:104080000E94142083B7817F846083BF83B78160DF
:1040900083BF7894889583B78E7F83BF0FB6F894DB
:1040A000A895809160008861809360001092600004
:1040B0000FBE08950895CF930E9412200E94580ABF
:1040C0000E945A20C0E08C2F0E94E809892B31F40D
:1040D000CF5FC530C1F780E0CF91089581E0FCCF7C
:1040E00008950C9470200E941A180E9472230E9456
:1040F00052120E94660510921D0280911E028111CB
:104100000E94BC100E94EC0F0C9471201F921FB6ED
:104110001F9211248F939F93AF93BF9380911C02A2
:10412000811113C080914D0290914E02A0914F02D7
:10413000B09150024196A11DB11D80934D02909304
:104140004E02A0934F02B0935002BF91AF919F9146
:104150008F911F901FBE1F90189582E084BD93E041
:1041600095BD9AEF97BD80936E0008952FB7F89490
:1041700080914D0290914E02A0914F02B091500259
:104180002FBF0895CF92DF92EF92FF929C014FB71D
:10419000F89480914D0290914E02A0914F02B091FF
:1041A00050024FBF6C017D01EE24FF24A90170E095
:1041B00060E0C416D506E606F70638F0821B930BBE
:1041C000FF90EF90DF90CF9008950197F7CF78940C
:1041D0001F921FB61F9211248F939F93AF93BF938B
:1041E00080914D0290914E02A0914F02B0915002E9
:1041F0000196A11DB11D80934D0290934E02A09394
:104200004F02B0935002BF91AF919F918F911F9039
:104210001FBE1F90189581E08093E00080E280939C
:10422000D8001092C9008FE19EE40197F1F700C019
:10423000000087E090EBDC018093610290936202C2
:10424000A0936302B093640288E19CE00FB6F894F7
:10425000A895809360000FBE90936000FFCFCF932E
:10426000DF9300D000D0CDB7DEB70E94461F81118A
:1042700002C00E94C91F0E94511F80931B020E940E
:10428000591F90E090935202809351020E94551F53
:10429000282F30E050E040E029833A834B835C8351
:1042A000CA01B9010F900F900F900F90DF91CF913D
:1042B0000C94D91B8091220280FF12C060911601DC
:1042C00085E0689FB0011124759567957595679590
:1042D00060387105A8F561157105A1F1862F089563
:1042E00081FF09C06091160185E0689FB00111242B
:1042F00075956795EDCF6091160182FD0AC080919A
:1043000021028823D1F0909115016091160189173F
:1043100028F085E0689FB0011124DACF869FB001B4
:10432000112485E0869F9001879F300D1124692F0D
:1043300070E0C9010E94512BCBCF65E070E0CECF79
:104340008FE7089581E008958091220280FF0CC0DC
:104350006091140170E07595679575956795611585
:10436000710549F1862F089581FF06C060911401FF
:1043700070E075956795F3CF6091140182FD0BC0D5
:10438000909121029923A1F0609113018091140171
:10439000961738F0682F70E06038710500F38FE7EA
:1043A0000895899FC001112470E00E94512BF4CF21
:1043B00061E070E0D7CF81E00895803F31F40E9442
:1043C0005A218195809326020895813F19F40E9415
:1043D0005A21F8CF823F31F40E945A21819580936F
:1043E00025020895833F19F40E945A21F8CF893F8E
:1043F00029F40E94A4218093270208958A3F21F482
:104400000E94A4218195F7CF8B3F31F40E94A42113
:1044100081958093280208958C3F19F40E94A4216D
:10442000F8CF843F31F4809124028160809324028C
:104430000895853F21F4809124028260F7CF863F62
:1044400021F4809124028460F1CF873F21F4809190
:1044500024028860EBCF883F21F4809124028061A0
:10446000E5CF8D3F31F4809122028160809322025A
:1044700008958E3F21F4809122028260F7CF8F3F12
:10448000B9F7809122028460F1CF90912502803F9C
:1044900041F48091260287FD10922602992371F043
:1044A0000895813F29F4809126021816ACF3F6CFC7
:1044B000823F81F497FFF2CF10922502809126026D
:1044C00090912702892B90912802892B49F710920D
:1044D00021020895833F19F4191674F3DFCF893F41
:1044E00039F4809127021816CCF610922702D6CF05
:1044F0008A3F29F48091270287FFD0CFF6CF8B3FE8
:1045000039F48091280287FFC9CF10922802C6CFC4
:104510008C3F29F4809128021816BCF3BFCF843F4A
:1045200031F4809124028E7F80932402B7CF853F9F
:1045300021F4809124028D7FF7CF863F21F4809172
:1045400024028B7FF1CF873F21F480912402877F63
:10455000EBCF883F21F4809124028F7EE5CF8D3F01
:1045600031F4809122028E7F8093220297CF8E3F7A
:1045700021F4809122028D7FF7CF8F3F09F08ECFFB
:10458000809122028B7FF0CF83E292E00E94691239
:104590000E94B6209093200280931F0208951F93DB
:1045A000CF93DF9380911F02909120020E94C2203E
:1045B000AC01809121022091170130E0811106C0E9
:1045C000209118019AE0299F900111244217530766
:1045D00078F020912502C091260210912702D091F7
:1045E0002802211109C09C2F912B9D2B09F06AC034
:1045F000DF91CF911F9108958F3F19F08F5F8093C6
:104600002102121624F40E945A21809325028091DF
:10461000250287FF05C00E945A21819580932502BB
:104620001C1624F40E945A218093260280912602AF
:1046300087FF05C00E945A21819580932602309100
:1046400025023323A1F020912602222381F045EB9D
:104650003403C0011124992369F19093250245EB9D
:10466000240390011124332349F1309326021116BB
:1046700024F40E94A421809327028091270287FFBF
:1046800005C00E94A4218195809327021D1624F461
:104690000E94A421809328028091280287FF05C0F0
:1046A0000E94A421819580932802DF91CF911F91D0
:1046B0000C94C42281E080932502D1CF81E08093C5
:1046C0002602D5CF8F3F09F099CFAACF86E0E3E24B
:1046D000F2E0DF011D928A95E9F710922102109213
:1046E000220208950E94461F811102C00E94C91F24
:1046F0000E94621F809353028C3020F081708A6088
:104700008093530290915302892F817090FF02C0D1
:10471000892F86950C948A0480915302982F969540
:104720008A3030F49F5F990F8170892B80935302F8
:10473000809153028160809353020E94661F809192
:10474000530286950C948A0480915302982F9E7F81
:1047500079F08250809353028E7F91E009F490E0CB
:104760008091530290FB80F9809353020E94661F50
:104770008091530286950C948A048091530280FDA7
:1047800011C0816080935302813019F483E08093DB
:104790005302809153020E94661F809153028695B6
:1047A0000C948A0408958091530280FF08C08E7F84
:1047B000809353020E94661F80E00C948A0408953F
:1047C0008091530280FD0C94D3230C94BD239091CF
:1047D0005302892F86958F5F8F7791708630B8F45A
:1047E000880F892B80935302809153028E7F91E032
:1047F00009F490E08091530290FB80F9809353027A
:104800000E94661F8091530286950C948A049093AF
:104810005302EACF863008F085E0982F990F8091F7
:1048200053028170892B809353028E7F91E009F4AB
:1048300090E08091530290FB80F9809353020E9494
:10484000661F8091530286950C948A0480915302CE
:10485000869508958091310208950F931F93CF9309
:10486000DF9300D00F92CDB7DEB78C010E9488266F
:10487000823011F0843021F584E089830A831B8320
:1048800082E08093E9008FEF9091E800815095FDE0
:1048900006C095ED9A95F1F700008111F5CF809152
:1048A000E80085FF0DC050E040E063E070E0CE011D
:1048B00001960E94A5268091E8008E778093E800FB
:1048C0000F900F900F90DF91CF911F910F9108954E
:1048D000CF93DF9300D00F92CDB7DEB79C018091CC
:1048E0005802843031F583E08983205831093B83B5
:1048F0002A8382E08093E9008FEF9091E800815055
:1049000095FD06C095ED9A95F1F700008111F5CF60
:104910008091E80085FF0DC050E040E063E070E06A
:10492000CE0101960E94A5268091E8008E778093A3
:10493000E8000F900F900F90DF91CF910895CF93E3
:10494000DF93D82FC92F0E948826823011F084303F
:1049500001F582E08093E9008FEF9091E8008150AB
:1049600095FD06C095ED9A95F1F700008111F5CF00
:104970008091E80085FF0DC050E040E066E070E007
:104980008D2F9C2F0E94A5268091E8008E77809322
:10499000E800DF91CF910895CF93DF93D82FC92FEF
:1049A0000E948826823011F0843049F581E080939E
:1049B000E9008FEF9091E800815095FD06C095EDDC
:1049C0009A95F1F700008111F5CF8091E80085FFFD
:1049D00016C050E040E068E070E08D2F9C2F0E94F0
:1049E000A5268091E8008E778093E80088E0ED2F7F
:1049F000FC2FA9E2B2E001900D928A95E1F7DF91D8
:104A0000CF91089580915702811109C00E942D28ED
:104A10000E948A288091E20084608093E2000895D9
:104A2000109257020895089508950C94732042E05F
:104A300061EC81E00E94A92742E261EC82E00C94E3
:104A4000A92780915A02893089F148F4823009F40B
:104A50009DC0833009F458C0813041F008958A30F8
:104A600009F484C08B3009F46AC00895809159021A
:104A7000813A09F048C08091E800877F8093E80080
:104A800080915D0290915E02892B61F468E089E279
:104A900092E070E00E94F4268091E8008B7780938A
:104AA000E800089560E090E080E0F3CF8091590243
:104AB000813249F580915D0290915E02029718F56E
:104AC0008091E800877F8093E8008091E80082FF72
:104AD00016C09091F3008091F200029729F4809122
:104AE000F1008B7F813021F48091F10080933102BD
:104AF0008091E8008B778093E8000C94DD2780910B
:104B000058028111E2CF089580915902813AD9F774
:104B100080915D0290915E02892BA9F78091E80057
:104B2000877F8093E8008091E80080FFFCCF809130
:104B300023018093F1008091E8008E77DCCF809193
:104B40005902813201F780915D0290915E02892BBA
:104B5000D1F68091E800877F8093E8000E94DD27EE
:104B600080915B02809323010C941A188091590262
:104B7000813249F68091E800877F8093E8000E94A7
:104B8000DD2780915C028093320208958091590262
:104B9000813A09F0B8CF8091E800877F8093E800E0
:104BA0008091E80080FFFCCF80913202C2CF84B7B1
:104BB000877F84BF0FB6F894A895809160008861C4
:104BC00080936000109260000FBE80E880936100C7
:104BD000109261000E94B2120E942D280E948A2821
:104BE0008091E20084608093E20078940E94122B0E
:104BF0000E94BA1289E191E00E944D128091580200
:104C0000853029F00E94C6120E94C710F7CF0E947B
:104C1000162080915602882389F30E945B20882306
:104C200069F30E948F26EACF0C941626FC01CB0173
:104C3000DA012F2F332723303105D1F070F42130E2
:104C4000310509F445C02230310569F48BE390E069
:104C500029EF35E02D933C9308952132310521F160
:104C60002232310559F190E080E030E020E0F2CFCF
:104C7000CF019927E230A9F08330910550F40097D5
:104C800069F0EBEDF5E0019771F7849190E09F01F9
:104C9000E1CFE3ECF5E00397C1F3E5CFE5EFF5E015
:104CA000F4CFE9ECF5E0F1CF892BB9F06130710573
:104CB000D1F689E090E024E236E0CCCF892B91F068
:104CC0006130710581F685E890E026E436E0C2CFD8
:104CD00082E190E024E336E0BDCF89E090E02BE074
:104CE00036E0B8CF80E490E02BEC36E0B3CF089507
:104CF000CF93C82F0E947726C0933302CF91089597
:104D000080915802843011F482E0089581E0089582
:104D100080913302811102C00C948026089580E1B5
:104D200089BD82E189BD09B400FEFDCF8091D80024
:104D30008F7D8093D8008091E00082608093E000B6
:104D40008091E00081FDFCCF0895AF92BF92CF9299
:104D5000DF92FF920F931F93CF93DF936C01EB01D0
:104D60008A010E94FC27F82E811123C0011511052C
:104D700039F0F80180819181C81BD90BC80ED91E6A
:104D8000B12CA12C2097A9F08091E80085FD22C0CC
:104D90008091E8008E778093E80001151105A1F05D
:104DA000F80180819181A80EB91EB182A08285E0B0
:104DB000F82E8F2DDF91CF911F910F91FF90DF90F3
:104DC000CF90BF90AF9008950E94FC278823D1F226
:104DD000F82EEFCFF60181916F018093F1002197BA
:104DE000FFEFAF1ABF0ACECFFC01CB0120915F02CB
:104DF000309160022617370790F0009729F4209130
:104E0000E8002E772093E80040E0009751F441112C
:104E100008C08091E80082FF31C080E00895C90198
:104E2000F3CF209158022223A9F12530A9F1209136
:104E3000E80023FD2DC02091E80022FDEACF20915B
:104E4000E80020FFE2CF3091F3002091F2000097BC
:104E500019F02830310558F041E02830310509F0CB
:104E600040E02091E8002E772093E800CECF4191DA
:104E70004093F10001972F5F3F4FE9CF8091580297
:104E8000882341F0853041F08091E80083FFC1CF55
:104E900081E0089582E0089583E00895FC01CB014C
:104EA00020915F02309160022617370790F000973B
:104EB00029F42091E8002E772093E80040E0009745
:104EC00051F4411108C08091E80082FF32C080E0B7
:104ED0000895C901F3CF209158022223B1F1253062
:104EE000B1F12091E80023FD2EC02091E80022FDC1
:104EF000EACF2091E80020FFE2CF3091F30020912B
:104F0000F200009719F02830310558F041E02830C0
:104F1000310509F040E02091E8002E772093E80069
:104F2000CECF44914093F100319601972F5F3F4FD0
:104F3000E8CF80915802882341F0853041F080917C
:104F4000E80083FFC0CF81E0089582E0089583E008
:104F50000895982F973028F08F708093E90081E0B2
:104F600008959093E900242F762F50E0981731F0A0
:104F70007091EC002091ED005091F00021FD02C0F5
:104F80009F5FE8CF3091EB003E7F3093EB00309194
:104F9000ED003D7F3093ED003091EB0031603093B8
:104FA000EB007093EC002093ED005093F000209103
:104FB000EE0027FDE5CF80E008958091590287FF3C
:104FC00013C08091E80082FF06C08091E8008B77D3
:104FD0008093E80004C0809158028111F2CF0895B7
:104FE000809158028823D9F38091E80080FFF8CFA0
:104FF0008091E8008E77ECCF2091E4003091E500BD
:1050000095E6A9012091EC00822F817020FF06C057
:105010008091E80080FF06C080E008952091E800BC
:1050200022FD1AC080915802882389F0853089F0CA
:105030008091EB0085FD0FC02091E4003091E500E8
:1050400042175307F9F29150E1F684E0089582E0A7
:10505000089583E0089581E008950E949B280E94AE
:10506000A328E0EEF0E0808181608083E8EDF0E04D
:1050700080818F77808319BCA7EDB0E08C918E7F03
:105080008C9380818F7E80831092570208950F93B6
:105090001F93CF93DF930E949B280E94A328C8ED03
:1050A000D0E088818F778883888180688883888131
:1050B0008F7D888319BC109258021092540210926E
:1050C00056021092550200EE10E0F80180818B7FAD
:1050D000808388818160888342E060E080E00E9474
:1050E000A927E1EEF0E080818E7F8083E2EEF0E0A0
:1050F000808181608083808188608083F8018081E5
:105100008E7F8083888180618883DF91CF911F911A
:105110000F910895E8EDF0E080818F7E8083E7EDC8
:10512000F0E080818160808384E082BF81E08093B1
:1051300057020C944728E8EDF0E080818E7F808351
:105140001092E20008951092DA001092E1000895A2
:105150001F920F920FB60F9211242F933F934F93EC
:105160005F936F937F938F939F93AF93BF93EF93CF
:10517000FF938091E10082FF0BC08091E20082FFEB
:1051800007C08091E1008B7F8093E1000E94112B8A
:105190008091DA0080FF19C08091D80080FF15C08F
:1051A0008091DA008E7F8093DA008091D90080FFB1
:1051B00094C080E189BD82E189BD09B400FEFDCFC4
:1051C00081E0809358020E9402258091E10080FFD7
:1051D00019C08091E20080FF15C08091E2008E7FAF
:1051E0008093E2008091E20080618093E2008091F0
:1051F000D80080628093D80019BC85E08093580263
:105200000E9414258091E10084FF29C08091E20072
:1052100084FF25C080E189BD82E189BD09B400FE1B
:10522000FDCF8091D8008F7D8093D8008091E100E0
:105230008F7E8093E1008091E2008F7E8093E20078
:105240008091E20081608093E20080915402882383
:1052500009F449C084E0809358020E94152580918A
:10526000E10083FF29C08091E20083FF25C0809187
:10527000E100877F8093E10082E0809358021092E2
:1052800054028091E1008E7F8093E1008091E200E2
:105290008E7F8093E2008091E20080618093E20043
:1052A00042E060E080E00E94A9278091F0008860E1
:1052B0008093F0000E941325FF91EF91BF91AF9171
:1052C0009F918F917F916F915F914F913F912F911E
:1052D0000F900FBE0F901F90189519BC1092580296
:1052E0000E94102572CF8091E30087FD02C081E00B
:1052F000B2CF83E0B0CF1F920F920FB60F9211245E
:105300002F933F934F935F936F937F938F939F93CD
:10531000AF93BF93CF93DF93EF93FF93D091E900C7
:10532000DF708091EC00C82FC17080FDC0E8109242
:10533000E9008091F000877F8093F00078940E94CC
:10534000BF291092E9008091F00088608093F000FE
:10535000CD2BCF70C093E900FF91EF91DF91CF91FA
:10536000BF91AF919F918F917F916F915F914F917D
:105370003F912F910F900FBE0F901F9018951F9384
:10538000CF93DF93CDB7DEB7AA970FB6F894DEBF01
:105390000FBECDBF89E592E0FC0101962091F1009E
:1053A000208322E081369207B9F70E94212580915F
:1053B000E80083FF1EC18091590290915A029A30F1
:1053C00008F017C1E92FF0E0E25CF34D0C94872B55
:1053D000803899F0823809F00CC180915D028F709D
:1053E000873008F006C18093E9008091EB0085FBCF
:1053F000882780F91092E90006C0809155029091AB
:105400005602911182609091E800977F9093E80096
:105410008093F1001092F1008091E8008E77E5C052
:10542000882309F4D3C0823009F0E3C080915B0285
:105430008111D6C080915D028F702FEF280F26302A
:1054400008F0D7C08093E9002091EB0020FFC8C08E
:10545000933031F48091EB0080628093EB00C0C008
:105460009091EB0090619093EB0021E030E001C05F
:10547000220F8A95EAF72093EA001092EA008091C1
:10548000EB008860EACF8111B4C010915B021F77F6
:105490008091E3008078812B8093E3008091E80085
:1054A000877F8093E8000E94DD278091E80080FFDD
:1054B000FCCF8091E30080688093E30082E01111CB
:1054C00083E08093580295C08058823008F091C0E4
:1054D00080915B0290915C028C3D23E09207A1F5E4
:1054E00083E08A838AE289834FB7F894DE011396BA
:1054F00020E03EE051E2E32FF0E050935700E491CA
:1055000020FF03C0E295EF703F5FEF708E2F90E0B9
:10551000EA30C0F0C7968D939D932F5F243159F7E1
:105520004FBF8091E800877F8093E8006AE270E0D7
:10553000CE0101960E94F4268091E8008B7780933B
:10554000E80057C0C096E7CF60915D0270915E029F
:10555000AE014F5F5F4F0E941426BC01892B09F4F6
:1055600048C08091E800877F8093E80089819A8114
:105570000E944E27E1CF8038E1F58091E800877FD7
:105580008093E800809154028093F10045CF81110F
:1055900030C090915B02923060F58091E800877F87
:1055A0008093E800909354020E94DD27809154027A
:1055B000882311F084E005C08091E30087FDFACFD5
:1055C00081E0809358020E94172513C080915B02EE
:1055D000813079F481E0933009F080E080935602C5
:1055E0001092E9008091E800877F8093E8000E9494
:1055F000DD278091E80083FF0AC08091E800877F63
:105600008093E8008091EB0080628093EB00AA9683
:105610000FB6F894DEBF0FBECDBFDF91CF911F91C3
:1056200008950895CF93809158028823A1F0C091E6
:10563000E900CF709091EC00892F817090FD80E897
:10564000C82B1092E9008091E80083FD0E94BF29D9
:10565000CF70C093E900CF910895DB018F939F93A2
:105660000E949C2BBF91AF91A29F800D911DA39F83
:10567000900DB29F900D11240895AA1BBB1B51E100
:1056800007C0AA1FBB1FA617B70710F0A61BB70BB2
:10569000881F991F5A95A9F780959095BC01CD0157
:1056A000089597FB072E16F4009407D077FD09D0D4
:1056B0000E943D2B07FC05D03EF4909581959F4FAD
:1056C0000895709561957F4F0895A1E21A2EAA1B47
:1056D000BB1BFD010DC0AA1FBB1FEE1FFF1FA217A2
:1056E000B307E407F50720F0A21BB30BE40BF50B9F
:1056F000661F771F881F991F1A9469F76095709528
:10570000809590959B01AC01BD01CF010895EE0FEE
:10571000FF1F0590F491E02D0994A29FB001B39F63
:10572000C001A39F700D811D1124911DB29F700DAA
:10573000811D1124911D08950E948D2BA59F900D10
:10574000B49F900DA49F800D911D11240895FC011C
:105750004150504030F001900616D1F73197CF01FB
:105760000895882799270895F999FECF92BD81BDA4
:10577000F89A992780B50895A6E1B0E044E050E09A
:105780000C94EE2BA8E1B0E042E050E00C94EE2B3C
:10579000262FF999FECF92BD81BDF89A019700B4EA
:1057A000021639F01FBA20BD0FB6F894FA9AF99A8A
:1057B0000FBE08950396272F0E94C92B0E94C82B65
:1057C000252F0E94C92B242F0C94C92B0196272F1B
:1057D0000E94C92B0C94C82BDC01CB01FC01F99968
:1057E000FECF06C0F2BDE1BDF89A319600B40D922D
:1057F00041505040B8F70895F894FFCF3207E905BB
:10580000EF05F905030609060F0616061D06240610
:105810002B0632063906410650065F066E067D06E7
:105820008C069206A106A505A505A505A505A50555
:10583000A505A706AF06E305D306DF06E306E706E0
:10584000EB06EF06F306F706FB06FF06030707075E
:105850000B070F07130717071B071F0766156615AA
:10586000C815C81511162D1696159615711696158C
:105870001B171B1795179E179615C417E829102A92
:10588000F92A102AF92A432A642AF92ABB2AC72AA4
:1058900006010206060601191A1B1C1D1E1F2021E7
:1058A0002210022808140A321E2A24CC249F2468BD
:1058B000242D24013033F5F6F76766363534979694
:1058C000949593929091F0F4F10001020202020685
:1058D00006060909090909090F0F0F0F0F0F151502
:0E58E00015181919191919191919191923244C
:00000001FF
