:100000000C94C6040C940D050C940D050C940D0570
:100010000C940D050C940D050C940D050C940D0518
:100020000C940D050C940D050C94D4280C94A8295F
:100030000C9483200C940D050C940D050C940D0567
:100040000C940D050C940D050C940D050C940D05E8
:100050000C94F8050C94E9200C940D050C940D05F6
:100060000C940D050C940D050C940D050C940D05C8
:100070000C940D050C940D050C940D050C940D05B8
:100080000C940D050C940D050C940D050C940D05A8
:100090000C940D050C940D050C940D050C940D0598
:1000A0000C940D050C940D050C940D0529001E00F3
:1000B0001F0020002100220023002400250026002C
:1000C00027002D002E002A002A0035002B000000FA
:1000D00014001A000800150017001C0018000C007E
:1000E000120013002F00300031004C0029000000E6
:1000F00004001600070009000A000B000D000E00A6
:100100000F0033003400280000004B00E100E10044
:100110001D001B000600190005001100100036002C
:10012000370038000000E10052004E00E000E3001C
:100130000000E20000002C0000002C002C00000059
:10014000E30002510000500051004F000100010087
:100150000100010001000100010001000100010097
:100160000100010001000100010001000100000088
:100170000100010001000100010001000100010077
:100180000100010001000100010001000100000068
:100190000100010001000100010001000100010057
:1001A0000100010001000100000001000100010048
:1001B0000100010001000100010001000100010037
:1001C0000100010000000100010001000100010028
:1001D0000000010000002C4300002C432C430000D1
:1001E000010001000000010001000100005C01535A
:1001F0001450010001000100010001000100010094
:100200000100470048000100010007530100000001
:100210000100520001000100010001000100010085
:10022000CB5CCC5CC55CC65C0100C25C010000001C
:10023000500051004F000100010001000100D25C9C
:100240000100C95CCA5C01000000C35C0100010040
:100250000100010001000100010001000100010096
:100260000100AE0000000100A900C45C0100010013
:10027000000001000000010000000100010000007A
:10028000010001000000AC00AA00AB000100010069
:100290000100010001000100010001000100010056
:1002A0000100010001000100010001000100000047
:1002B000500052004F000100010001000100010048
:1002C0000100010001000100010001000100000027
:1002D000500151004F010100010050005100520037
:1002E0004F000100010001000000010001000100B9
:1002F00001000100010001000100010001000100F6
:100300000100010000000100800001000100010067
:1003100000000100000001000000010001000000D9
:100320000100010000000100810001003500010012
:1003300001000100010001000100010001000100B5
:10034000010001000100010001007F000100000028
:100350000100010001000100010001000100010095
:10036000010001000100010001000100290000005E
:100370000100010001000100010001000100010075
:10038000010001000100010000000100D75CD75C02
:100390000100010001000100010001000100010055
:1003A000010001000000D85C010001000100E20032
:1003B0000000E30000002C4600002C462C46000004
:1003C000E7000551000001000100010001000100EB
:1003D00004530100010001000100010001000100BF
:1003E00001004700010001000100010001000000C0
:1003F00001005200010001000100010001000100A4
:10040000CB5CCC5CC55CC65C0100C25C010000003A
:10041000500051004F000100010001000100D25CBA
:100420000100C95CCA5C01000000C35C010001005E
:1004300001000100010001000100010001000100B4
:100440000100AE00000001008000C45C010001005A
:100450000000010000000100000001000100000098
:10046000010001000000BC008100BB000100010090
:100470000100010001000100010001000100010074
:100480000100010001000100010001000100000065
:10049000500052004F000100010001000100010066
:1004A0000100010001000100010001000100000045
:1004B000500451004F04010001005000510052004F
:1004C0004F000100010001000000010001000100D7
:1004D0000100010001000100010001000100010014
:1004E0000100010000000100800001000100010086
:1004F00000000100000001000000010001000000F8
:1005000001000100000001008100010001003A002B
:100510003B003C003D003E003F00400041004200E7
:1005200043004400450001000100010001000000FB
:1005300001000100010001000100010001000100B3
:1005400001000100010001000100010001000000A4
:100550000100010001000100010001000100010093
:100560000100010001000100000001000100010084
:100570000100010001000100010001000100010073
:100580000100010000000100010001000100010064
:100590000000010000000100000001000100000057
:1005A0000100010000000100010001000000000046
:1005B0000000000000000001010203040506080A13
:1005C0000C0F1114181C2024292E33393F464C538C
:1005D0005B626A7179818A929AA2AAB2B9C1C8CFC4
:1005E000D5DCE1E7EBF0F4F7FAFCFDFEFFFEFDFCE5
:1005F000FAF7F4F0EBE7E1DCD5CFC8C1B9B2AAA2B3
:100600009A928A8179716A625B534C463F39332EE4
:100610002924201C1814110F0C0A080605040302D3
:1006200001010000000000000000000000047F3F06
:100630001F643214643214783C1E1E140A052223EF
:10064000252628292A2C2D2F3032333536383A3BAF
:100650003D3E4042434547494A4C4E505153555701
:10066000595A5C5E6062646668696B6D6F71737520
:1006700077797B7D7F81838587898A8C8E90929420
:1006800096989A9C9E9FA1A3A5A7A8AAACAEAFB12D
:10069000B3B4B6B8B9BBBCBEBFC1C2C3C5C6C7C977
:1006A000CACBCCCDCED0D1D2D2D3D4D5D6D7D7D831
:1006B000D9D9DADADBDBDBDCDCDCDCDCDDDDDDDD83
:1006C000DCDCDCDCDCDBDBDBDADAD9D9D8D7D7D68B
:1006D000D5D4D3D2D2D1D0CECDCCCBCAC9C7C6C542
:1006E000C3C2C1BFBEBCBBB9B8B6B4B3B1AFAEAC88
:1006F000AAA8A7A5A3A19F9E9C9A98969492908E33
:100700008C8A89878583817F7D7B79777573716F0B
:100710006D6B6968666462605E5C5A5957555351E7
:10072000504E4C4A4947454342403E3D3B3A38369D
:10073000353332302F2D2C2A292826252322FFAAB3
:100740007F55400000000000000000000001010192
:10075000010101010101020202020202020203037D
:100760000303030303040404040405050505050647
:100770000606060607070707080808080909090A00
:100780000A0A0B0B0B0C0C0C0D0D0D0E0E0E0F0FA1
:100790001010101111121213131414151516161728
:1007A00017181819191A1A1B1C1C1D1D1E1F1F2093
:1007B000212122232324252526272828292A2B2CDA
:1007C0002C2D2E2F30313132333435363738393AFB
:1007D0003B3C3D3E3F404142434445464748494BF0
:1007E0004C4D4E4F50525354555758595A5C5D5EBC
:1007F000606163646567686A6B6C6E6F7172747652
:1008000077797A7C7D7F8182848687898B8D8E90B3
:1008100092949597999B9D9FA1A2A4A6A8AAACAEDD
:10082000B0B2B4B6B9BBBDBFC1C3C5C8CACCCED0C7
:10083000D3D5D7DADCDEE1E3E6E8EAEDEFF2F4F770
:10084000F9FCFF0403300000001003530070006146
:100850000063006500360035000000180347007291
:100860000061007900200053007400750064006985
:10087000006F0000000403090409023B00020100AC
:10088000A0FA09040000010301010009211101007F
:10089000012240000705810308000A090401000144
:1008A00003000000092111010001228500070582D3
:1008B0000320000A1201100100000008EDFE0000F4
:1008C00001000102030105010902A10185020901DC
:1008D000A1000509190129051500250195057501D6
:1008E00081029501750381010501093009311581E6
:1008F000257F95027508810609381581257F9501A8
:1009000075088106050C0A38021581257F95017549
:10091000088106C0C005010980A1018503160100F8
:100920002603001A81002A8300751095018100C0FA
:10093000050C0901A1018504160100269C021A017B
:10094000002A9C02751095018100C005010906A1CD
:1009500001050719E029E7150025019508750181B2
:10096000029501750881010508190129059505758C
:100970000191029501750391010507190029FF15E1
:100980000026FF00950675088100C00011241FBED7
:10099000CFEFDAE0DEBFCDBF04B603FE27C0809103
:1009A000610290916202A0916302B091640287306B
:1009B000904BA740B04BD1F41092610210926202AA
:1009C000109263021092640214BE84B7877F84BFC2
:1009D0000FB6F894A89580916000886180936000BC
:1009E000109260000FBEE0E0F8E3099511E0A0E08E
:1009F000B1E0E4EFF8E502C005900D92AE35B10725
:100A0000D9F722E0AEE5B1E001C01D92A136B207F0
:100A1000E1F70E94FE250C94292C0C9400006E9A9C
:100A20000C941D050C941E050C945F0581FF03C0FA
:100A300076980C941F05769AFCCF08950895089532
:100A4000CF92DF92EF92FF928C3724E1920750F41D
:100A500069E070E00E946A2BCB01FF90EF90DF907D
:100A6000CF900895B0E0A0E0BC01CD016A50774D71
:100A70008F4F9F4F982F872F762F662725EF38E2CD
:100A800041E050E00E94922B69017A01CA01B9014C
:100A90000E945A2B9B01AC01C701B6010E945A2B40
:100AA000672F782F892F99276115710521E082071B
:100AB000910591F66FEF7FEFCFCF81E0089581E050
:100AC00008951F93CF93DF9300D000D00F92CDB73E
:100AD000DEB749835A836B8320919B0189819A8178
:100AE00021111BC06623A9F00E94F01D182F682F4A
:100AF00089819A810E949D1D69817A81812F0F9041
:100B00000F900F900F900F90DF91CF911F910C9449
:100B1000B0080E94C91D182FEFCF0E94F01D6981F7
:100B20007A81EDCFFC0140815181628173818481A2
:100B30000C9461050E94C50B8FE39CE90197F1F7C6
:100B400000C000000E94C50B80E00E94530B80FF94
:100B500004C00E94341F0C940D2108950C941205BA
:100B6000E82FE295EF70F0E032A1282F2F7081E09E
:100B700090E001C0880F2A95EAF78095832382A32D
:100B800008958630D8F481111AC090918000977F23
:100B900090938000282F30E0AFEFBFEF0E94BA2B78
:100BA00025E030E040E050E00E94922BC9010E9415
:100BB000200590938D0080938C00089585E090919E
:100BC00080009860E5CF10925F0110925E01109254
:100BD0006001EFE6F0E08081816080830895EFE6B8
:100BE000F0E080818E7F80830E942C240C94C105CC
:100BF0001F920F920FB60F9211242F933F934F9392
:100C00005F936F937F938F939F93AF93BF93CF9394
:100C1000EF93FF932091000180915E0190915F011D
:100C2000019644EF249F90011124B9010E946A2B80
:100C300090935F0180935E01B901660F672F661F75
:100C4000770B71950E946A2B6F77809160018230DB
:100C500041F4603451F480916F008E7F80936F0077
:100C600004C0813011F46F37B1F3E62FF0E0E455A2
:100C7000FA4FC4910E942C24282F41E051E0C49FD8
:100C8000C001C59F900D112465E070E00E946A2BA1
:100C9000269FC001279F900D11240E94200590934C
:100CA0008D0080938C00FF91EF91CF91BF91AF9118
:100CB0009F918F917F916F915F914F913F912F9174
:100CC0000F900FBE0F901F901895279A87E30E94F0
:100CD000B0058AE08093800089E1809381008FEFE6
:100CE0009FEF90938700809386000E9462230E946A
:100CF000512481110C94E30508950E949A050E94E5
:100D00003A1F811102C00E94C91F0E9465060C94FF
:100D10000F050C94160508950E94DD180E948B069D
:100D20002FEF84E39CE0215080409040E1F700C029
:100D300000000C940D210F931F93CF93DF938C0130
:100D40000E949205EC01B8010E941405882309F461
:100D5000C9C0B801CE010E940513882309F4C2C09E
:100D6000CA3C8CE5D80709F400C108F051C0C23C68
:100D7000ECE5DE0709F4D0C048F5C5318CE5D807AD
:100D8000A8F4C2309CE5D90708F054C1C115ECE5C0
:100D9000DE0709F4A2C0C130DC4509F4A9C0C801CE
:100DA000DF91CF911F910F910C945D05C6318CE5B9
:100DB000D80709F4B1C1C13CDC4589F7F80182814B
:100DC000882309F48FC00E944A248CC0F8018281D4
:100DD000C63CFCE5DF0709F4B8C068F4C43CECE5A8
:100DE000DE0709F4A9C008F49EC0882309F47AC07C
:100DF0000E94F40E77C0C83C9CE5D90709F4AFC047
:100E000008F4A8C0882309F46DC00E942E0F6AC0A0
:100E1000C13DFCE5DF0709F4DCC070F5CD3C9CE585
:100E2000D90709F4B2C088F4CB3CFCE5DF0709F42C
:100E3000A4C0CC3CDC4509F0B2CFF8018281882304
:100E400009F450C00E948E0D4DC0F8018281CF3C44
:100E5000FCE5DF0709F4AFC008F4A0C0882309F45B
:100E600041C00E94750D893028F00E94750D8E30AA
:100E700008F468C089E08FC0C53DECE5DE0709F4E1
:100E8000CBC0B0F4F8018281C33DFCE5DF0709F473
:100E9000BEC008F4AEC0882329F10E94750D8931C7
:100EA00028F00E94750D823208F44CC089E173C0AD
:100EB000CD3DECE5DE0709F4B6C0CE3DFCE5DF072D
:100EC00021F1CC3DDC4509F06ACFF801828188230D
:100ED00049F080E00E949C2605C0F80182818111C2
:100EE0000E948C0680E0DF91CF911F910F910895B1
:100EF000F80182818823B1F390911B02892F8E7FA4
:100F000090FF816080931B02EDCFF80182818823DE
:100F100049F30E94C91FE6CFF8018281882311F3AB
:100F20000E947A11DFCF8823E9F20E94851E827227
:100F300049F00E946C11D6CF8823A1F20E94851E31
:100F40008272B9F30E945F11CDCF882359F20E94BB
:100F5000010FC8CF882331F20E94100FC3CF88231E
:100F600009F4C0CF0E941F0FBDCFF80182818823F2
:100F700009F4B8CF0E943D0FB5CFF80182818823D4
:100F800009F4B0CF0E947D0DADCFF8018281882396
:100F900009F4A8CF81E00E946F11A4CF882309F43F
:100FA000A1CF0E94750D823020F00E94750D853012
:100FB00048F282E0F0CF882309F494CF0E94750DA7
:100FC000863028F00E94750D883008F4BBCF86E08B
:100FD000E2CFF8018281882309F484CF0E94750D45
:100FE0008F3028F00E94750D843108F4ABCF8FE06C
:100FF000D2CF882309F476CF0E94750D853128F071
:101000000E94750D873108F49DCF85E1C4CF8823F8
:1010100009F468CF88E1BFCFF8018281882309F401
:1010200061CF83E2B8CFF8018281882309F45ACFD7
:1010300082E050CFF8018281882309F4B0CE0E946B
:101040003A1F811102C00E94C91F0E944D1F90E0EB
:101050009093520280935102FE01E350FC4580912F
:1010600051028160E231F10538F4E55DF34D0C94F5
:10107000B42B809151028260809351028091510281
:101080000E94511F0E94DD182DCF80915102846073
:10109000F3CF809151028860EFCF8091510280613F
:1010A000EBCF809151028062E7CF80915102806442
:1010B000E3CF809151028068DFCF809151028C6034
:1010C000DBCF809151028E7FD7CF809151028D7FEF
:1010D000D3CF809151028B7FCFCF80915102877FF8
:1010E000CBCF809151028F7EC7CF809151028F7DEF
:1010F000C3CF809151028F7BBFCF809151028F77F8
:10110000BBCF80915102837FB7CF90915102892F3D
:1011100097FB87F98058B0CF0E94851EF801928115
:10112000992381F08A7A91E009F490E0909361012B
:10113000811106C089E20E94601E0E94D11ED2CE9B
:1011400085E3F9CF80916101811104C089E20E9499
:10115000671EF3CF85E3FBCF90E080E0089508950C
:10116000E72FF0E095E0899FE00DF11D112484E068
:10117000EE0FFF1F8A95E1F7E60FF11DEE0FFF1F3F
:10118000E455FF4F859194910895FC01EE0FFF1FE8
:10119000E45DF94F859194910895CF93DF930E9478
:1011A000B0080E94B50AEC01811521E5920708F00C
:1011B00049C0811530E5930708F032C1883E91059A
:1011C00008F5803E910570F5883A910570F4853AEE
:1011D000910508F0B0C08130910521F1009711F11F
:1011E000049700F5D0E0C0E01DC08F3B910508F4E6
:1011F000ADC0805C9109C03CD105A0F30E94C50838
:10120000EC0110C08115904388F4C11580E2D80725
:1012100008F0FDC0C03FD10528F3CF3FD10509F04C
:1012200008F4F3C0CE01DF91CF910895C11590E489
:10123000D90708F0F2C0CE019927D3FFEBC0EC012B
:10124000D86CF0CF811529E5920760F5811538E556
:10125000930708F02BC1811544E5940778F4C11574
:1012600083E5D80708F009C1C11592E5D90708F050
:10127000F3C0DC2FCC27C16FD06AD4CF811525E510
:10128000920708F40EC1811536E5930708F0AACF3E
:101290000E94300BC82FD0E0DC2FCC27CC27DF7189
:1012A000D062C0CF8D3B9C4509F405C1CE3B8CE597
:1012B000D807E0F4CB3B9CE5D90709F4FFC008F060
:1012C00000C1C1153AE5D30708F08CCF8C2F8F7081
:1012D0000E94300B34E0D695C7953A95E1F79C2FE4
:1012E0009F70C82FCF70C06ED92F98C0C03C4CE5FE
:1012F000D40709F4E9C060F4CE3B9CE5D90709F4B2
:10130000E6C0CF3BDC4509F06DCFC0E0D2ED8ACF1F
:10131000CE0190568115904208F064CF8D2F8F71C9
:101320000E94300B90E0982F882788279F719C019E
:101330002C2BE901B5CF853A910509F4CBC0863A4B
:10134000910509F0CAC0C2E8D0E46CCF883A910593
:1013500009F4C6C0893A910509F4C5C08A3A9105D5
:1013600009F4C4C08B3A910509F4C3C08C3A9105C5
:1013700009F4C2C08B3B910509F4C1C08C3B9105B7
:1013800009F4C0C08D3A910509F4BFC0803B9105B6
:1013900009F4BEC08E3A910509F4BDC08F3A91059B
:1013A00009F4BCC0813B910509F4BBC0823B9105A7
:1013B00009F4BAC0833B910509F4B9C0843B910597
:1013C00009F4B8C0853B910509F4B7C0863B910587
:1013D00009F4B6C0873B910509F4B5C0883B910577
:1013E00009F4B4C0893B910509F4B3C08D3B910564
:1013F00009F4B2C08E3B910509F4B1C08A3B910556
:1014000009F4B0C0C0E0D4E40DCFD0650BCFCE015D
:101410009F70F4CEEC01D06C05CFDF70D06A02CFA4
:10142000E4E096958795EA95E1F783702C2F269551
:101430002695237040E2249F90011124382B8C2F95
:101440008370C1E0D0E002C0CC0FDD1F8A95E2F7C7
:10145000C22BD32BDC68E6CECE018370992721E026
:1014600030E002C0220F331F8A95E2F7C695C69579
:1014700080E2C89FE0011124EBCFCE018370992751
:1014800021E030E002C0220F331F8A95E2F7C695B3
:10149000C69590E2C99FE0011124C22BD32BDA68D4
:1014A000C1CED82FCC27C46FD06ABCCED82FCC27C2
:1014B000C06FD06AB7CEC0E0D1EDB4CEC0E0D4EDFD
:1014C000B1CEC0E0D5EDAECEC0E0D3EDABCEC0E046
:1014D000D0EDA8CEC1E8D0E4A5CEC3E8D0E4A2CE3A
:1014E000C2EED4E49FCEC9EED4E49CCECAEED4E4DE
:1014F00099CEC5EBD4E496CEC6EBD4E493CEC3EB41
:10150000D4E490CEC4EBD4E48DCEC7EBD4E48ACE41
:10151000CCECD4E487CECDECD4E484CEC3E8D5E4DF
:1015200081CECAE8D5E47ECEC2E9D5E47BCEC4E95B
:10153000D5E478CEC1E2D6E475CEC3E2D6E472CE6D
:10154000C4E2D6E46FCEC5E2D6E46CCEC6E2D6E401
:1015500069CEC7E2D6E466CECFE6D4E463CEC0E778
:10156000D4E460CECAE2D6E45DCE8238910549F17A
:10157000B0F48133910509F462C048F489329105D1
:1015800009F456C08A32910509F460C00895853384
:10159000910509F446C08933910599F00895833E79
:1015A000910531F138F4803E910591F0823E91052C
:1015B000B1F00895863E910521F1873E910551F1E4
:1015C0000895209151022370D9F080EE90E00895A3
:1015D0002091510220FF14C089E390E008952091EA
:1015E000510222FF0DC024FD09C083EE90E0089552
:1015F0002091510222FD31C024FF02C090E080E022
:1016000008952091510223FFFBCF24FDF7CF87EEF1
:1016100090E008952091510223FFEECF86EE90E0F6
:1016200008952091510225FFEBCF89E290E00895C3
:101630002091510225FFE4CF85E390E008952091A9
:10164000510226FFDDCF8AE290E0089520915102F9
:1016500026FFD6CF81E390E0089582EE90E00895D2
:101660009091510292FF06C0282F2871283069F40A
:10167000877F846093FF06C0282F2871283161F48A
:10168000877E846194FD877E0895282F24712430FD
:1016900089F78B7F8860EECF282F2471243191F752
:1016A0008B7E8861EFCFE82FF0E0EE0FFF1FEE5941
:1016B000FE4F8081918108950895CF93DF93A4E335
:1016C000B1E049E351E0C1E0D0E08D91E82FE2952F
:1016D000EF70F0E061A18F709E0101C0220F8A952A
:1016E000EAF7922F9095962391A382A1822B82A351
:1016F0004A175B0751F7A4E2B1E061E070E08D9119
:10170000E82FE295EF70F0E041A18F709B0101C0DE
:10171000220F8A95EAF7922F9095942391A382A1A4
:10172000822B82A381E0A433B80749F710926D01A0
:1017300010926C01109263011092620110926F017D
:1017400010926E0110926501109264011092710165
:10175000109270011092670110926601109273014D
:101760001092720110926901109268011092750135
:101770001092740110926B0110926A0185E00E9430
:101780005B0CDF91CF910C947D065F926F927F92FC
:101790008F929F92AF92BF92CF92DF92EF92FF9281
:1017A0000F931F93CF93DF932CE631E004E311E016
:1017B000512CEE24E394F12CE901899099909E013B
:1017C000DE011E921E92F80181918F01E82FE295B1
:1017D000EF70F0E091A18F70B70101C0660F8A959C
:1017E000EAF7892F862B81A382A1662E6094862139
:1017F00082A380EA8A95F1F784E2C82E81E0D82E90
:1018000050E040E0E60179906E01872D82958F705F
:1018100090E0EC0188A1AD90BC90119790E0D72D9D
:10182000DF7002C095958795DA95E2F780FD40C09C
:10183000C701042E02C0880F991F0A94E2F78A2973
:101840009B2911969C938E934F5F5F4F40315105BA
:10185000C9F681A1D62DD823D1A382A1682B62A37A
:1018600081E04D915C914815590509F480E0582AB2
:10187000E1E026373E0709F09FCF252D45E062E6DF
:1018800071E08CE691E00E945C0C0E94AE05852D13
:10189000DF91CF911F910F91FF90EF90DF90CF904C
:1018A000BF90AF909F908F907F906F905F900895C2
:1018B00090E080E0C4CF0895FF920F931F93CF93E1
:1018C000DF93F82E092F162FD72FC42F222349F08C
:1018D00081E0809378010E94B320909377018093F8
:1018E0007601809178018823A1F080917601909112
:1018F00077010E94BF20069760F0EF2DF02FA12FF7
:10190000BD2F90E080E0D0E08C179D0744F010924E
:101910007801DF91CF911F910F91FF900895219150
:1019200031912D933D930196EFCFAF92BF92CF921D
:10193000DF92FF920F931F93CF93DF93362F472FA2
:10194000282FF82EE82FF0E071110FC0ED5BF84F53
:101950006491762F862FDF91CF911F910F91FF9089
:10196000DF90CF90BF90AF900895072F10E056E022
:10197000659FC0011124CFEFD0E0BE010E946A2B09
:10198000832F90E0880F991F35E5369FD001379F50
:10199000B00D11248A1B9B0B982F990F980F6E0185
:1019A000C01AD10ACE9ED001CF9EB00DDE9EB00DE2
:1019B00011248B2F949FA0011124452F55276E01D0
:1019C000C41AD50ACE9EA001CF9E500DDE9E500DAA
:1019D00011245E01A91AB108A09E6001A19ED00C3D
:1019E000B09ED00C1124CD2CDD24CC19DD09CE9F66
:1019F0008001CF9F100DDE9F100D1124912F6230BA
:101A0000710509F148F46115710569F061307105DE
:101A1000F1F09B2F852F07C064307105D9F0F0F0ED
:101A200066307105B1F7E22FF0E0ED5BF84F74918D
:101A3000E92FF0E0ED5BF84F6491E82FF0E0ED5B0B
:101A4000F84F849188CF922F2B2F812FECCF922F9C
:101A5000252FE9CF9B2F822F212FE5CF2B2F8F2DE5
:101A6000952FE1CF0895CF93DF93762FE901682F6B
:101A7000842F0E94950C798368838A83DF91CF91AC
:101A8000089580913402982F9E7F29F4817082609E
:101A90008093340208958A34E8F381708864F8CF23
:101AA00088E090E00C94E92BCF92DF92EF92FF92C6
:101AB0006B017C010E94410DB701A60188E090E016
:101AC000FF90EF90DF90CF900C94072CE4E3F2E0CE
:101AD00083E0808311828FEF82838383148260810D
:101AE0007181828193810C94540D8091340280FF26
:101AF00002C08695089580E0089580913802833071
:101B000018F48F5F8093380260913402709135022F
:101B100080913602909137020C94540D80913802D6
:101B2000882319F0815080933802609134027091BB
:101B3000350280913602909137020C94540D6091D9
:101B4000050170E08091340280FF0AC080917D0120
:101B500023E0829FC0011124875C9D4F0C94951255
:101B600080917C019091040123E0829FF001112477
:101B7000E75CFD4F891750F71182108212828F5F48
:101B80003396F8CF9091340290FF14C090917C016D
:101B90002091040133E0939FF0011124E75CFD4F95
:101BA000921710F00C949F0D8183608342839F5F96
:101BB0003396F6CF0895CF93DF9300D00F92CDB731
:101BC000DEB79091340290FF0AC09E012F5F3F4F15
:101BD0000E94330D4B8169818A810E94C20D0F9052
:101BE0000F900F90DF91CF910895CF93DF93EC0189
:101BF000EC81F0E0E25CF94F4491E4E3F2E06281D1
:101C000081810E94DB0D8C818F5F8C83DF91CF916E
:101C10000895CF93DF93EC01E4E3F2E04381628126
:101C20008C810E94DB0D8C818F5F8C83DF91CF9143
:101C300008950F931F93CF93DF9300D00F92CDB7EA
:101C4000DEB78C018091790181110AC09E012F5F5E
:101C50003F4F4FEF6FEF0E94330D8A8180937901E0
:101C6000F8016481613069F08091790140E0662378
:101C700061F040E0623011F44091790180E060E071
:101C800004C06091790140E080E00E94C20DF8013B
:101C9000848190E0019663E070E00E947E2B848353
:101CA0000F900F900F90DF91CF911F910F9108959A
:101CB000AF92BF92CF92DF92EF92FF920F931F935A
:101CC000CF93DF9300D00F92CDB7DEB7182FF62E4B
:101CD000042FE22E9091340290FF29C0E92FE6955F
:101CE000AE2FB0E0A75CBE4F8C91809385019E7FA4
:101CF000923059F59E012F5F3F4F812F0E94330D87
:101D00004B8169818A810E94C20D10933502F09245
:101D1000360200933702EE2051F060913402709148
:101D2000350280913602909137020E94540D0F9037
:101D30000F900F90DF91CF911F910F91FF90EF9037
:101D4000DF90CF90BF90AF900895823019F400914A
:101D50003702DBCF863019F410913502D6CF8930A7
:101D6000D9F3893191F6E9518E2F8170D82EE695FD
:101D7000F0E0E25CF84FA590B490C12CBB246091D8
:101D80000301C61618F00E949F0DBFCF2C2D30E026
:101D9000A29EC001A39E900DB29E900D112470E0F2
:101DA0000E946A2B812FD11013C0860F40917C01B5
:101DB000420F532F511D9A01220F331F240F351F3D
:101DC000275C3D4F402F6F2D0E94330DC394D7CF1A
:101DD000861BECCFE4E3F2E09181282F43816281FE
:101DE00088E0890F0C94580E81E00C94EA0EE4E32D
:101DF000F2E09181282F4381628188EF890F0C9452
:101E0000580E81E00C94F70EE4E3F2E0628128E0E2
:101E1000620F08F46FEF282F438181810C94580ED4
:101E200081E00C94040FE4E3F2E0628128E0621B9D
:101E300008F460E0282F438181810C94580E81E0E2
:101E40000C94130FE4E3F2E0438128E0420F08F41E
:101E50004FEF282F628181810C94580E81E00C9401
:101E6000220FE4E3F2E0438128E0421B08F440E063
:101E7000282F628181810C94580E81E00C94310FDF
:101E800020E00C94580EEF92FF921F93CF93DF93B4
:101E9000EC0110E0EE24EA94F12C60910301161796
:101EA00070F00E949F0D9A818C8190FF27C08F5FF8
:101EB0008C83DF91CF911F91FF90EF900895209137
:101EC0007C01422F410F5527551FCA019A01220F4D
:101ED000331F280F391F275C3D4F70E0C7010E9458
:101EE0007E2B962F8C814091370260913602199F8C
:101EF000800D11240E94330D1F5FCFCF8150D8CFAA
:101F0000BF92CF92DF92EF92FF920F931F93CF93E6
:101F1000DF93FC0182810FEF80FF01E010E08091F0
:101F200003011817C0F00E949F0D80917B010130C2
:101F300009F04DC0811102C080910301815080934E
:101F40007B01DF91CF911F910F91FF90EF90DF9078
:101F5000CF90BF900895C0917C01C12ED12CCC0DA3
:101F6000DD2DD11DCE01880F991FC80FD91FC75C69
:101F7000DD4F198218821A8234E0E32EF12CB12C45
:101F800080917B018B0D87FF03C090910301890F26
:101F9000082E000C990BC816D90691F480913702CF
:101FA0008E9DA0018F9D500D1124559547955595F7
:101FB00047959E0160913602809135020E94330D53
:101FC000B00EF1E0EF1AF108D9F61F5FA8CF90E04C
:101FD00001966091030170E00E947E2BB0CF0F93B9
:101FE0001F93CF93DF9380917C019091040123E0B4
:101FF000829FF0011124E75CFD4F891740F1C0E09A
:10200000D3E060910301C61740F10E949F0D20911B
:10201000010180917A01820F80937A0190910201EF
:10202000920F90930201191654F4082E000C990B8C
:10203000409103014150550B841795071CF02195E1
:1020400020930101DF91CF911F910F91089511828B
:10205000108212828F5F3396D0CF0C2F10E070E089
:10206000C8010E947E2B20917C01820F482F50E0F6
:1020700020917A01022E000C330B02171307BCF0DB
:1020800020910201022E000C330B201731077CF047
:102090008D9F90011124275C3D4F40913702609144
:1020A0003602809135020E94330DCF5FAACFFA012C
:1020B000EE0FFF1FE40FF51FE75CFD4F118210824A
:1020C0001282F3CF0F931F93CF93DF938C01FC0108
:1020D0008481958101968170992795838483C0E0DE
:1020E000D5E580910301C81730F0DF91CF911F91A2
:1020F0000F910C949F0D20917C01422F4C0F55277E
:10210000551FCA019A01220F331F280F391F275C60
:102110003D4F8C2F8695F80144815581840F952F72
:10212000911D817040913702609136028D9F802D04
:1021300011240E94330DCF5FD4CF0F931F93CF9301
:10214000DF93EC0110E000E090910301901711067D
:1021500009F06CF40E949F0D8C8190E001968170D3
:1021600099278C83DF91CF911F910F910895209132
:102170007C01A801420F511D9A01220F331F240F29
:10218000351F275C3D4F4C816091360280913502AE
:1021900096959017110651F04CF0442349F0409168
:1021A00037020E94330D0F5F1F4FCECF4423B9F388
:1021B00040E0F7CFE4E3F2E080818E7F80836081AE
:1021C0007181828193810E94540D109286012FEFBC
:1021D00080E792E0215080409040E1F700C000008D
:1021E0000C949F0DE4E3F2E080818E7F8083109257
:1021F00086012FEF80E792E0215080409040E1F788
:1022000000C000000C949F0D60913402669570E050
:102210004BE050E086E091E00E94D42B892B19F42A
:1022200081E0809386010E94B32090937F01809388
:102230007E0108959091340290FF35C09170811114
:1022400028C0926090933402662351F0609134026A
:102250007091350280913602909137020E94540DA0
:1022600060913402669570E04BE050E086E091E0CA
:102270000E94D42B892BA1F01092860181E08093DB
:1022800081014091370260913602809135020C94B1
:10229000400F853210F09864D5CF880F982BD2CF9D
:1022A0000E940411EBCF0895682F90913402969507
:1022B00081E0890F853208F081E00C941A1181E0E9
:1022C0000C945411682F9091340296958FEF890FDA
:1022D00009F484E20C941A1181E00C94621161E01B
:1022E0000C941A11E4E3F2E080818160808386958A
:1022F0000C946F118091340280FD0C94DA100C94D0
:10230000721160E00C941A1180918401811133C024
:1023100080911B02816080931B020E943A1F8111F1
:1023200004C00E94C91F0E94660D0E94500D609358
:1023300034027093350280933602909337026E7F99
:1023400061F40E94660D0E94500D609334027093F8
:10235000350280933602909337020E94410D10920D
:1023600086018091340280FF03C086950E9481110E
:1023700081E0809384010895E4E3F2E0808181604C
:10238000808386950C9481111092860108950F9395
:102390001F93CF93DF9380918601882309F48DC02A
:1023A00080918501E0913402E695E81BE09380017D
:1023B0008230C9F5F0E0E65CF94FE491CE2FD0E031
:1023C00005EF1DE080918101882389F01092810141
:1023D0000E94B3209E0120953095820F931F909309
:1023E0007F0180937E01109283011092820180917F
:1023F0007E0190917F010E94BF208C179D0708F4F9
:102400005CC0E0917E01F0917F01CE0FDF1FD09381
:102410007F01C0937E018EE791E0F801DF91CF91BB
:102420001F910F910994863049F4F0E0E95CF94F6F
:10243000E491CE2FD0E009E01EE0C4CF893051F402
:10244000E695F0E0EC5CF94FE491CE2FD0E003E4A8
:102450001FE0B8CF8F3051F4E695F0E0EF5CF94F14
:10246000E491CE2FD0E000E81FE0ACCF853149F4F5
:10247000F0E0E25DF94FE491CE2FD0E00FEE1FE0E7
:10248000A1CFC8EED3E002E610E1883109F49ACF7B
:10249000833239F4ECE2F6E0C591D49109E11EE013
:1024A00091CFC4EFD1E00DE910E1843209F48ACF75
:1024B000C0EDD7E002E31DE085CFDF91CF911F9102
:1024C0000F9108953EB1242F209523233EB1432B35
:1024D0003FB7F894680F791F8617970711F43FBF2D
:1024E0000895FC015191CF01E8E04EB9000000C011
:1024F00057FF2EB9550F000000C000C000C02EB914
:1025000000C0EA9591F7E8CF2DB1242B2DB99B019E
:10251000220F331F620F731F0E94621287EC90E03C
:102520000197F1F700C00000089544E00C94841274
:102530000F931F93CF93DF93C62FD42F022FFC014D
:1025400082818823C9F0609389010E94B32090930F
:1025500088018093870180E28C0F883008F050C09A
:10256000C77081E001C0880FCA95EAF7DF91CF916B
:102570001F910F910C941E1610918901161335C0EE
:1025800080918701909188010E94BF20883C91052D
:1025900060F5C0E2CD0F1D17B9F080E2810F8830E1
:1025A00040F4177081E001C0880F1A95EAF70E9485
:1025B0002516C83048F481E09D2F977001C0880F20
:1025C0009A95EAF70E941E16802F0E940B16C830BB
:1025D000B8F4D77081E001C0880FDA95EAF7DF918F
:1025E000CF911F910F910C94251680E28C0F8830AB
:1025F00038F4C77081E001C0880FCA95EAF7EFCFC1
:10260000DF91CF911F910F9108959C01CB01203F45
:102610004CE5340731F190F4283DFCE53F07E9F043
:10262000293D4CE5340769F1273D3C4579F426E224
:1026300041EE61EE0E94981280E00895223FFCE591
:102640003F07B9F090F0233F3C45B9F0FC0182818F
:102650008823D1F010928901089527E245EE65EEB6
:10266000E9CF26E241EE60EEE5CF27E245EE64EEEB
:10267000E1CF26E241EE62EEDDCF27E245EE66EEE7
:10268000D9CF28E241E0EBCF81E0089590938F010C
:1026900080938E010895E0918E01F0918F01309723
:1026A00021F00190F081E02D099480E00895E091FF
:1026B0008E01F0918F01309721F00280F381E02D9F
:1026C00009940895E0918E01F0918F01309739F0CF
:1026D00022E0DC012C930480F581E02D099408951B
:1026E00020918C0130918D012817390771F090935A
:1026F0008D0180938C01E0918E01F0918F013097D4
:1027000021F00680F781E02D0994089520918A0137
:1027100030918B012817390771F090938B018093CA
:102720008A01E0918E01F0918F01309721F00084B1
:10273000F185E02D0994089585B7806885BF85B738
:10274000806885BF0895089508950C94A313089593
:102750000C94A7130E949C130E94A4130C94A5131D
:1027600081E008950E94AA200E945D0B0E94312101
:102770000E9462230E9484110C94A8135F926F92AE
:102780007F928F929F92AF92BF92CF92DF92EF9201
:10279000FF920F931F93CF93DF93CDB7DEB72A97A6
:1027A0000FB6F894DEBF0FBECDBF0E94C50B0E94CE
:1027B000B013882309F47AC091E9A92E91E0B92ECB
:1027C00010E000E088248394912C502E802F0E94EA
:1027D000530B7C01F501C190D1905F01C816D90659
:1027E00009F45EC080911B0281FD0E945C0B90E0A9
:1027F00080E0CE24DF243401082E02C0660C771C52
:102800000A94E2F7960126213721232B09F443C0CD
:102810008E835F82E620F72081E0EF2809F480E0D4
:1028200088870E94B3208160782F9A8789874E819C
:102830005F8168858A850E947D14000F111FF80151
:10284000EF56FE4F808191816826792671826082E1
:102850000E94BF220E944B13909190018917B9F1F9
:102860000E944B13809390012A960FB6F894DEBF16
:102870000FBECDBFDF91CF911F910F91FF90EF90D1
:10288000DF90CF90BF90AF909F908F907F906F9090
:102890005F900C94890601968031910509F0ABCFC9
:1028A0000F5F1F4F0530110509F08FCF8FEF898320
:1028B0008A831B820E94B3208160782F9D838C8342
:1028C00049815A816B818D810E947D14C1CF2A96E6
:1028D0000FB6F894DEBF0FBECDBFDF91CF911F9131
:1028E0000F91FF90EF90DF90CF90BF90AF909F90AF
:1028F0008F907F906F905F900895CF93DF93CDB7C7
:10290000DEB72B970FB6F894DEBF0FBECDBF4F8357
:10291000588769877A878B871E821D8285E0FE0132
:102920003796DE01119601900D928A95E1F7498163
:102930005A816B817C818D819E812B960FB6F89494
:10294000DEBF0FBECDBFDF91CF910C947D1BFC018C
:10295000808191810C94321E882309F405C182384C
:10296000B9F40E944B1381FDFFC089E30E94601EF1
:102970000E94D11E2FEF81EE94E0215080409040C4
:10298000E1F700C0000089E30E94671E0C94D11E8D
:102990008338A1F40E944B1380FDE6C083E50E94BA
:1029A000601E0E94D11E2FEF81EE94E021508040E6
:1029B0009040E1F700C0000083E5E6CF8438A1F441
:1029C0000E944B1382FDD0C087E40E94601E0E94CB
:1029D000D11E2FEF81EE94E0215080409040E1F72E
:1029E00000C0000087E4D0CF9CEF980F913A18F414
:1029F0000E94601ECBCF90E2980F983050F4877001
:102A000091E001C0990F8A95EAF7892F0E94881EEC
:102A1000BDCF9BE5980F933070F4853A31F0863A3C
:102A200039F083E890E00C94701381E890E0FBCFDC
:102A300082E890E0F8CF98E5980F973108F08EC0C3
:102A4000883A09F446C0893A09F446C08A3A09F43A
:102A500046C08B3A09F446C08C3A09F446C08B3B19
:102A600009F446C08C3B09F446C08D3A09F446C0CF
:102A7000803B09F446C08E3A09F446C08F3A09F407
:102A800046C0813B09F446C0823B09F446C0833B03
:102A900009F446C0843B09F446C0853B09F446C0AE
:102AA000863B09F446C0873B09F446C0883B09F4DD
:102AB00046C0893B09F446C08D3B09F446C08E3BB5
:102AC00009F446C08A3B09F446C090E080E00C94CB
:102AD000861382EE90E0FBCF89EE90E0F8CF8AEE8D
:102AE00090E0F5CF85EB90E0F2CF86EB90E0EFCF72
:102AF00083EB90E0ECCF84EB90E0E9CF87EB90E0C4
:102B0000E6CF8CEC90E0E3CF8DEC90E0E0CF83E873
:102B100091E0DDCF8AE891E0DACF82E991E0D7CF8A
:102B200084E991E0D4CF81E292E0D1CF83E292E0D8
:102B3000CECF84E292E0CBCF85E292E0C8CF86E2AE
:102B400092E0C5CF87E292E0C2CF8FE690E0BFCFA0
:102B500080E790E0BCCF8AE292E0B9CF803F20F0DE
:102B60000E94CD210C94B4220895882309F452C008
:102B7000823871F40E944B1381FF4CC089E30E949C
:102B8000601E0E94D11E89E30E94671E0C94D11E14
:102B9000833859F40E944B1380FF3CC083E50E94A8
:102BA000601E0E94D11E83E5EFCF843859F40E9445
:102BB0004B1382FF2FC087E40E94601E0E94D11E2B
:102BC00087E4E2CF9CEF980F913AF0F290E2980FF1
:102BD000983050F4877091E001C0990F8A95EAF718
:102BE000892F0E948E1ED2CF9BE5980F933020F440
:102BF00090E080E00C94701398E5980F973120F4E2
:102C000090E080E00C948613803F20F00E943522F3
:102C10000C94B4220895CF93C82F0E94AC14C933EA
:102C200049F42FEF87EE93E0215080409040E1F788
:102C300000C000008C2FCF910C94B515882321F093
:102C40000E94881E0C94D11E0895882321F00E94B2
:102C50008E1E0C94D11E0895BF92CF92DF92EF92F8
:102C6000FF920F931F93CF93DF936C01D62FC72F43
:102C7000FC01058102950F70128111110E94A51EA1
:102C80000E947E1EB82E882371F01123B1F080E2DD
:102C90008D0F883090F082E00E941C1F0E947E1EE3
:102CA00091E0B82EB926EC2EE2949FE0E922EE2DB9
:102CB000F0E0E35CF34D0C94B42BB12CF4CF0C2F6B
:102CC0000F70C07F11F00295007F1123A9F000233F
:102CD00059F080E28D0F883010F0D11109C0802F9B
:102CE0000E94881E0E94D11E8D2F0E94AC1414C019
:102CF000802F0E94981EF6CF8D2F0E94B5150023BD
:102D000059F080E28D0F883010F0D11130C0802F43
:102D10000E948E1E0E94D11E28E0E21639F0E216B3
:102D200048F086E08E0D8F70823020F40E944B13A5
:102D30000E948906BB2009F4F6C10E947A1E80FD1C
:102D4000F2C1F60112820E94741E0E94011DC6018A
:102D50000E949D180E94741EDF91CF911F910F91C8
:102D6000FF90EF90DF90CF90BF900C94221D802FAA
:102D70000E949E1ECFCFFC2FFF70FF2EC07FC0325F
:102D800019F0F29480EFF822DD2369F0D13049F197
:102D9000112391F1002351F1F601858180FFA4CF29
:102DA0008F70858323C0112381F0011106C00E941A
:102DB000B81E8F290E941E16AFCF0130C1F70E94A6
:102DC000B81E8F290E94BE1EA7CF011106C00E9407
:102DD000C71E8F2D0E9425169FCF013009F49CCF6E
:102DE000F6CF112329F0063008F096CF8F2DE2CFD1
:102DF000053008F091CFEDCF002359F3D93349F4D2
:102E0000FFEF27EE83E0F15020408040E1F700C063
:102E100000008D2F0E94B5157FCF8C2F869586954B
:102E2000837069F0813009F077CF8D2F9C2F9370DC
:102E3000111102C090E080E00E9486136DCF8D2FAB
:102E40009C2F9370111102C090E080E00E947013DB
:102E500063CF112309F1D53F99F0D63FB9F0D43FA4
:102E600049F480914B0290914C02816090934C0206
:102E700080934B028D2F0E94CD210E94B4224CCF13
:102E800080914B0290914C028260F0CF80914B0276
:102E900090914C028460EACFD53F89F0D63FA9F0EB
:102EA000D43F49F480914B0290914C028E7F9093D5
:102EB0004C0280934B028D2F0E943522DECF8091F1
:102EC0004B0290914C028D7FF2CF80914B029091FA
:102ED0004C028B7FECCF8C2F837009F041C0111115
:102EE0001BCF4D2F429546954770440F440F0D2F31
:102EF0000F7010E030E020E0042E04C0000F111F1E
:102F0000221F331F0A94D2F760E070E0CB01D4FF98
:102F10000FC06FE070E080E090E004C0660F771FA4
:102F2000881F991F4A95D2F7609570958095909566
:102F3000C695C695C370602B712B822B932BC23024
:102F400049F058F4C13019F00E94B31CE5CE0E943C
:102F5000A11CE2CE0E94C51CDFCE0E949F1CDCCECD
:102F60008695112311F08C2F8170882309F4D4CE1B
:102F70004D2F429546954770440F440F0D2F0F700B
:102F800010E030E020E0042E04C0000F111F221FCB
:102F9000331F0A94D2F760E070E0CB01D4FF0FC07A
:102FA0006FE070E080E090E004C0660F771F881F3C
:102FB000991F4A95D2F76095709580959095C69522
:102FC000C695C370602B712B822B932BC23049F0B6
:102FD00058F4C13019F00E94781D9ECE0E94661DE3
:102FE0009BCE0E948A1D98CE0E94DB1C95CEE0E20B
:102FF000ED0FE53108F04DC0F0E0E35BF34D0C94CC
:10300000B42BDF708C2F8F71112321F00E94011DD2
:103010008D2FD0CE0E94221D8D2FDCCE112341F0AA
:10302000053008F079CE8C2F8F710E94451D74CE2B
:10303000063008F071CEF7CF8C2F8F71112339F045
:103040000E94011D69CE8C2F8F711123C9F30E943C
:10305000221D62CE112329F08C2F8F710E94EC1C4F
:103060005BCE0E94E71C58CE112349F0CF718C2F04
:103070000E94011D63E08C2F0E94071F4DCE81E04E
:103080000E941C1F023008F447CE82E00E941C1FE1
:1030900043CE112329F0011127CE8C2F8F71D0CF71
:1030A000002359F0D93309F0B4CE9FEFE7EEF3E0F7
:1030B0009150E040F040E1F7AACE8C2F8F71C7CF3E
:1030C0004C2F4F706D2FC6010E94AC080E94171C38
:1030D00023CE111121CECF70C230B1F040F4CC23F9
:1030E00081F0C13009F018CE0E949C2315CEC43067
:1030F00089F068F080E0C53009F00ECE0E940C2403
:103100000BCE0E947E2308CE0E94DC2305CE0E94B7
:10311000E32302CE85E0F2CF4C2F4F706D2FC60116
:103120000E94AF08F9CDDF91CF911F910F91FF90D1
:10313000EF90DF90CF90BF9008950F931F93CF93A0
:10314000DF93EC018B819C81892B29F08881998107
:1031500089238F3F29F4DF91CF911F910F9108951B
:10316000CE010E949B068823B1F3688179818A8110
:103170000E943C1E8C010E949C1D0E949E1CB80156
:10318000CE01DF91CF911F910F910C942C160E94CC
:10319000A51E0E94B51E0E94D11E0E9456230E94A9
:1031A000B42290E080E00E94701390E080E00C94E4
:1031B00086130E946E1E0C94C7180E94951E0C94D4
:1031C000D918E92FE295EF70E250EE3070F4F0E09C
:1031D000EE59F34D0C94B42B803F19F020F4803E4F
:1031E00020F481E00895843FE1F380E00895803E7B
:1031F000C0F3813FD1F7F5CF93FB882780F908957D
:103200000E94321E0C94E118CF93DF9300D000D0BF
:103210000F92CDB7DEB70F900F900F900F900F90D9
:10322000DF91CF910895CF93DF9300D000D000D0ED
:10323000CDB7DEB726960FB6F894DEBF0FBECDBF72
:10324000DF91CF9108951F93CF93DF93C0919C019D
:1032500016E080919D018C1304C0DF91CF911F91E6
:103260000895D0E01C9FF0011D9FF00D1124E2563F
:10327000FE4F4081518162817381848195810E94DA
:1032800013192196C770E5CF4091CE015091CF011F
:103290006091D0017091D1018091D2019091D301C0
:1032A0000C9413191F93CF93DF938091D301807FE8
:1032B000C1F48091D0018823A1F080919C01C0913C
:1032C0009D016091CE017091CF014091D10150914B
:1032D000D201D62FD723DA01A095B09516E0C813F6
:1032E00004C0DF91CF911F91089590E041155105E1
:1032F00011F0DF3F31F401968770F1CF2A0F3B1FA9
:1033000017C0189FF001199FF00D1124E256FE4FCF
:1033100021812713F0CF20812613EDCF22812111A7
:10332000EACF238134812417350740F3241B350B62
:10333000283C310500F72091D3012F7020612093A4
:10334000D30126E0289FF001299FF00D1124ED55AF
:10335000FE4F80818F70806180838EEC91E00E94AF
:103360009D18DF91CF911F910C942319BF92CF929A
:10337000DF92EF92FF920F931F93CF93DF93CDB71E
:10338000DEB761970FB6F894DEBF0FBECDBF8C01DC
:1033900085E0F801DE011D9601900D928A95E1F716
:1033A000D8014C9111965C9111971296EC9012975E
:1033B0008091D1019091D201009709F47FC12091B1
:1033C000CE013091CF01622F63236F3F09F476C1A4
:1033D0001396CD90DC90B090D001BB2009F411C1C0
:1033E000C816D906D0F1F601E81BF90BCF01FF246E
:1033F000F394883C910508F0F12C8091D301982F2B
:10340000907FFF2009F4B8C091117FC0FE2C3513C6
:1034100029C0241327C0E11025C08F7080618093DC
:10342000D3010E9444198EEC91E00E949D18809176
:10343000D301D80115968C938F2D61960FB6F89411
:10344000DEBF0FBECDBFDF91CF911F910F91FF90D7
:10345000EF90DF90CF90BF900895809590958C0D60
:103460009D1DC5CFCD2829F0852F84238F3F09F0DE
:1034700041C180E0B82FB170DB2E80FF3CC080914D
:103480009C0120919D0136E0821315C04D875E8717
:103490008D859E850E94321E292F22952F70223005
:1034A000F0F0243018F59F70F1F0F8019581907FCD
:1034B000D1F4D12C1EC090E0389FF001399FF00D5F
:1034C0001124E256FE4F6181651306C060816413CA
:1034D00003C06281E6120FC001968770D5CF9F703E
:1034E00011F0882331F3805E883018F3C8010E9400
:1034F0009D18FD2CA1CFEE2009F49ECF8091D30121
:1035000081608093D301F12C97CF351306C024132B
:1035100004C0D801EE2009F49AC04D875E878D85DE
:103520009E850E940019882319F1EE2009F18091EF
:10353000D301803270F02091CE013091CF013887D5
:103540002F831986DB86CA868C87CE0107960E9458
:103550009D1886E0F801AEECB1E001900D928A95DD
:10356000E1F70E9452190E944419FF24F39464CF9A
:10357000C8010E949D18F9CF911113C07C2DD98AE2
:10358000C88A6E2D89890E9404198EEC91E00E94F0
:103590009D1886E0EEECF1E0DF011D928A95E9F7D7
:1035A00063C0351312C0241310C0E1100EC0F8011F
:1035B0008583C8010E949D18EEECF1E086E0DF01F2
:1035C0001D928A95E9F7FB2C37CF4D875E878D8555
:1035D0009E850E940019882359F2EE2049F28091BD
:1035E000D301803208F4B5CF2091CE013091CF01C4
:1035F0003A8329831B82DD82CC828E83CE010196A1
:10360000A6CFC816D90698F1F601E81BF90BCF0131
:10361000F12C883C910508F049C0FE2CEE2009F4FD
:10362000A7CF351332C0241330C08091D30180FD61
:1036300023C0982F907F01F1D80115968C93159790
:10364000903F39F0982F907F905F8F70892B15965F
:103650008C93C8010E949D1886E0F801AEECB1E0A1
:1036600001900D928A95E1F70E944419E5CE80956C
:1036700090958C0D9D1DCCCF86E0F801AEECB1E0AD
:1036800001900D928A95E1F7D7CE4D875E878D85A3
:103690009E850E94001981115CCF8091D3018160C9
:1036A0008093D301C8010E949D18C6CE7C2DD98A73
:1036B000C88A6E2D89890E9404196BCFEE2009F407
:1036C00057CF4D875E878D859E850E940019F82E05
:1036D000882309F44DCF86E0F801AEECB1E001900B
:1036E0000D928A95E1F78EEC91E00E94A7140E945A
:1036F0005219BACF81E08E25BDCE1F93CF93DF93B1
:10370000CDB7DEB72C970FB6F894DEBF0FBECDBF96
:103710004F83588769877A878B879C87CE01079666
:103720000E94B619882369F08A859B85892B39F018
:103730004F815885842F85238F3F09F071C016E093
:103740005FC086E0FE013796DE01119601900D9272
:103750008A95E1F78A859B85892B89F388859F81E6
:1037600089238F3F61F320919D0130E0C9010196CB
:103770008770992740919C014817190671F40E949F
:10378000DD1810929D0110929C0186E0EEECF1E0B4
:10379000DF011D928A95E9F7D2CF96E0929FD00182
:1037A000939FB00D1124A256BE4FFE013196019099
:1037B0000D929A95E1F780939D010E942319BFCF46
:1037C000819FC001112482569E4F0E94B619882302
:1037D000E9F0E0919C011E9FF0011124E256FE4F9A
:1037E0004081518162817381848195810E94131986
:1037F00080919C0190E001968770992780939C01AD
:1038000080919C0190919D018913DACF2C960FB67F
:10381000F894DEBF0FBECDBFDF91CF911F91089509
:1038200069857A858B859C850E94131988CFEF92D4
:10383000FF920F931F93CF93DF938C01892B81F01D
:10384000F12CEE24E394E8012196F8018491843769
:1038500070F4843008F05FC08130B1F08230A1F1A3
:10386000DF91CF911F910F91FF90EF9008958537D1
:1038700009F44CC008F43DC09CE7980F903780F7DE
:103880008F770E94B51549C00E5F1F4FFE018491CE
:1038900090E2980F983060F48770FE2D01C0FF0F02
:1038A0008A95EAF78F2F0E94A81E0E94D11E02C09F
:1038B0000E94AC148F2D815030F2EFE9FFE0319778
:1038C000F1F700C00000F7CF0E5F1F4FFE0184919B
:1038D00090E2980F983050F48770FE2D01C0FF0FD2
:1038E0008A95EAF78F2F0E94AE1EDFCF0E94B51592
:1038F000E1CF0E5F1F4FFE01C491C150D8F28FE996
:103900009FE00197F1F700C00000F7CF0E5F1F4F57
:10391000FE01F490CFCF0E94AC148E01CBCF08955E
:103920000C948F1C0E94901C60930A0270930B02EF
:1039300080930C0290930D020C94C71808950C9478
:10394000921C0F931F9300910A0210910B02209179
:103950000C0230910D02602B712B822B932B1F9147
:103960000F910C94921C0F931F9300910A021091D7
:103970000B0220910C0230910D02602371238223EF
:1039800093231F910F910C94921C0F931F930091FE
:103990000A0210910B0220910C0230910D02602757
:1039A0007127822793271F910F910C94921C0C94DE
:1039B0008F1C0C94D71C0E94D91C60930602709334
:1039C000070280930802909309020C94C71860E0E4
:1039D00070E0CB010C94DB1C0F931F9341E050E08F
:1039E00060E070E08A019B0104C0000F111F221FDC
:1039F000331F8A95D2F7C901B8011F910F910C941A
:103A0000DB1C0F931F9341E050E060E070E004C0C6
:103A1000440F551F661F771F8A95D2F780910602C3
:103A200090910702A0910802B09109028A019B01BE
:103A3000082B192B2A2B3B2BC901B8011F910F9181
:103A40000C94DB1C0F931F9341E050E060E070E0AA
:103A500004C0440F551F661F771F8A95D2F7CB010C
:103A6000BA0160957095809590950091060210912D
:103A700007022091080230910902602371238223FA
:103A800093231F910F910C94DB1C0F931F9341E024
:103A900050E060E070E004C0440F551F661F771FC0
:103AA0008A95D2F78091060290910702A0910802B0
:103AB000B09109028A019B01082719272A273B2771
:103AC000C901B8011F910F910C94DB1C0F931F9338
:103AD000009106021091070220910802309109021C
:103AE000602B712B822B932B1F910F910C94DB1C5D
:103AF0000F931F9300910602109107022091080274
:103B00003091090260237123822393231F910F9127
:103B10000C94DB1C0F931F93009106021091070277
:103B2000209108023091090260277127822793278C
:103B30001F910F910C94DB1C08959295907F890F33
:103B4000982F977041E001C0440F9A95EAF7869547
:103B50008695869595E0899FF0011124EC52FE4FE1
:103B600030E020E070E05191DF011197CB01022E8F
:103B700002C0969587950A94E2F781708195852712
:103B8000842385278C932F5F3F4F2530310559F7CC
:103B900008959295907F890F982F977086958695B6
:103BA000869525E0829FF0011124EC52FE4F50E0F3
:103BB00040E080E0219130E0092E02C03695279543
:103BC0000A94E2F721703327042E01C0220F0A94D1
:103BD000EAF7822B4F5F5F4F4530510559F7089543
:103BE000BF92CF92DF92EF92FF920F931F93CF93EA
:103BF000DF938C01C0900602D0900702E09008028B
:103C0000F090090280910A0290910B02A0910C029F
:103C1000B0910D02C82AD92AEA2AFB2ACFE1D0E0C6
:103C2000BC2ED701C6010C2E04C0B695A79597955A
:103C300087950A94D2F780FD0EC0219788F7B12CA2
:103C40008B2DDF91CF911F910F91FF90EF90DF901F
:103C5000CF90BF900895B8018C2F0E94CD08019796
:103C600061F3EECFCF93DF93EC010E94F01DBE0114
:103C7000DF91CF910C94CD081F93CF93DF93EB018D
:103C800090919B01992331F0CB01DF91CF911F914E
:103C90000C94321E882379F0CB010E94F01D182F5E
:103CA000682FCE010E949D1DBE01812FDF91CF9113
:103CB0001F910C94CD08CB010E94C91D182FF4CF81
:103CC000682F80911101909112010C940420682FAB
:103CD00080911101909112010C94062080911101A4
:103CE000909112010C94082080910E028595859583
:103CF0008595089580910E028770089590910E0227
:103D0000977081E009F480E0089580911A02089587
:103D100090911A02892B80931A02089580959091B0
:103D20001A02982390931A02089510921A02089585
:103D300090911902892B8093190208958095909192
:103D40001902982390931902089510921902089568
:103D500090911802892B8093180208958095909174
:103D6000180298239093180208951092180208954B
:103D700080910F02089508950C94BB1E90910F023C
:103D8000981721F080930F020C94BC1E0895809127
:103D90000F02882329F010920F0280E00C94BC1EC1
:103DA0000895E0911101F091120180911A0280832F
:103DB000E0911101F0911201808190911902892BFB
:103DC0008083E0911101F09112018081909118029D
:103DD000892B808390910F02992381F0E09111014A
:103DE000F09112018081892B808380911101909143
:103DF00012010E94CB1F81110E94C71E80911101E8
:103E0000909112010C94571308950C94041F98E09C
:103E1000899F90011124622B60930E020E94011D64
:103E200080910E028595859585950C94051F1092BD
:103E30000E0280E00C94051F90910E02809589235C
:103E400080930E02282F277071F4282F082E000C63
:103E5000330B9217130639F08595859585950E9449
:103E6000221D0C94171F08956FEF7FEF90E080E004
:103E70000C94132C90E080E00E94EF2B21E08D3E0B
:103E80009E4F09F020E0822F089582E090E00C948C
:103E9000E12B83E090E00C94E12B84E090E00C9423
:103EA000E12B682F84E090E00C94F52B86E090E005
:103EB0000C94E12B682F86E090E00C94F52BAB017D
:103EC000BC018FE090E00C94072CAB01BC0183E1B6
:103ED00090E00C94072C60E070E0CB010C94651F1F
:103EE00060E070E0CB010E945F1F0C946B1F6DEED1
:103EF0007EEF90E080E00E94132C60E082E090E092
:103F00000E94F52B60E083E090E00E94F52B109278
:103F10000A0210920B0210920C0210920D0260E045
:103F200084E090E00E94F52B60E085E090E00E9444
:103F3000F52B60E086E090E00E94F52B6FEF87E0C4
:103F400090E00E94F52B40E050E0BA0188E090E05C
:103F50000E94072C60E08DE090E00E94F52B40E08D
:103F600050E0BA0188E190E00E94072C60E087E110
:103F700090E00E94F52B40E050E0BA018CE190E027
:103F80000E94072C60E080E290E00E94F52B0C94E8
:103F9000701F0C94771F9C012E5F3F4FAC01485F50
:103FA0005F4F80E02417350709F40895F9019191D6
:103FB0009F019923B9F38F5FF5CF9C01FC013296E5
:103FC0009FEF80E04191461751F09F3F19F4411156
:103FD00001C0982F8F5F8630A9F79F3F09F408959D
:103FE000290F311D97FD3A95F90162830895FC016F
:103FF000329608962191261303C0DF0111971C9277
:10400000E817F907B9F708950C94DD1F0C94F71F12
:10401000029626E0FC0111922A95E9F70895089589
:1040200008950C9410200E94112080915802843031
:1040300009F43CC010921C0288E190E020E40FB625
:10404000F894A895809360000FBE2093600080E0F4
:104050000E94C10580E00E9489060E94C4118091DF
:104060001D0281110AC081E080931D0280913402FB
:10407000817080931E020E94F2100E94112083B76B
:10408000817F846083BF83B7816083BF7894889584
:1040900083B78E7F83BF0FB6F894A8958091600098
:1040A000886180936000109260000FBE08950895AB
:1040B000CF930E940F200E94C50B0E945720C0E0A2
:1040C0008C2F0E94530B892B31F4CF5FC530C1F781
:1040D00080E0CF91089581E0FCCF08950C946D208D
:1040E0000E94DD180E9462230E944B130E948906E1
:1040F00010921D0280911E0281110E94BC110E942B
:1041000004110C946E201F921FB61F9211248F93DE
:104110009F93AF93BF9380911C02811113C0809134
:104120004D0290914E02A0914F02B09150024196E3
:10413000A11DB11D80934D0290934E02A0934F029A
:10414000B0935002BF91AF919F918F911F901FBE6E
:104150001F90189582E084BD93E095BD9AEF97BDBE
:1041600080936E0008952FB7F89480914D0290913E
:104170004E02A0914F02B09150022FBF0895CF92EE
:10418000DF92EF92FF920F931F932FB7F894409115
:104190004D0250914E0260914F02709150022FBF1C
:1041A0006A017B01EE24FF248C0130E020E0C01680
:1041B000D106E206F30650F0481B590BCA011F91C5
:1041C0000F91FF90EF90DF90CF90089541505109EB
:1041D000F3CF78941F921FB61F9211248F939F9351
:1041E000AF93BF9380914D0290914E02A0914F02E8
:1041F000B09150020196A11DB11D80934D02909384
:104200004E02A0934F02B0935002BF91AF919F9185
:104210008F911F901FBE1F90189581E08093E00042
:1042200080E28093D8001092C9008FE19EE401974C
:10423000F1F700C0000087E090EBDC0180936102A1
:1042400090936202A0936302B093640288E19CE0C1
:104250000FB6F894A895809360000FBE909360000D
:10426000FFCF0E943A1F811102C00E94C91F0E9405
:10427000451F80931B020E944D1F90E090935202B5
:10428000809351020E94491F682F70E090E080E007
:104290000C949F1C8091220280FF12C06091160135
:1042A00085E0689FB00111247595679575956795B0
:1042B00060387105A8F561157105A1F1862F089583
:1042C00081FF09C06091160185E0689FB00111244B
:1042D00075956795EDCF6091160182FD0AC08091BA
:1042E00021028823D1F09091150160911601891760
:1042F00028F085E0689FB0011124DACF869FB001D5
:10430000112485E0869F9001879F300D1124692F2D
:1043100070E0C9010E947E2BCBCF65E070E0CECF6C
:104320008FE7089581E008958091220280FF0CC0FC
:104330006091140170E075956795759567956115A5
:10434000710549F1862F089581FF06C0609114011F
:1043500070E075956795F3CF6091140182FD0BC0F5
:10436000909121029923A1F0609113018091140191
:10437000961738F0682F70E06038710500F38FE70A
:104380000895899FC001112470E00E947E2BF4CF14
:1043900061E070E0D7CF81E00895803F31F40E9462
:1043A0004A218195809326020895813F19F40E9445
:1043B0004A21F8CF823F31F40E944A2181958093AF
:1043C00025020895833F19F40E944A21F8CF893FBE
:1043D00029F40E9494218093270208958A3F21F4B2
:1043E0000E9494218195F7CF8B3F31F40E94942154
:1043F00081958093280208958C3F19F40E9494219E
:10440000F8CF843F31F480912402816080932402AC
:104410000895853F21F4809124028260F7CF863F82
:1044200021F4809124028460F1CF873F21F48091B0
:1044300024028860EBCF883F21F4809124028061C0
:10444000E5CF8D3F31F4809122028160809322027A
:1044500008958E3F21F4809122028260F7CF8F3F32
:10446000B9F7809122028460F1CF90912502803FBC
:1044700041F48091260287FD10922602992371F063
:104480000895813F29F4809126021816ACF3F6CFE7
:10449000823F81F497FFF2CF10922502809126028D
:1044A00090912702892B90912802892B49F710922D
:1044B00021020895833F19F4191674F3DFCF893F61
:1044C00039F4809127021816CCF610922702D6CF25
:1044D0008A3F29F48091270287FFD0CFF6CF8B3F08
:1044E00039F48091280287FFC9CF10922802C6CFE5
:1044F0008C3F29F4809128021816BCF3BFCF843F6B
:1045000031F4809124028E7F80932402B7CF853FBF
:1045100021F4809124028D7FF7CF863F21F4809192
:1045200024028B7FF1CF873F21F480912402877F83
:10453000EBCF883F21F4809124028F7EE5CF8D3F21
:1045400031F4809122028E7F8093220297CF8E3F9A
:1045500021F4809122028D7FF7CF8F3F09F08ECF1B
:10456000809122028B7FF0CF83E292E00E9462135F
:104570000E94B3209093200280931F0208951F93FE
:10458000CF93DF9380911F02909120020E94BF2061
:10459000AC01909121022091170130E0911106C0E9
:1045A000209118018AE0289F900111244217530797
:1045B00078F020912502C0912602D0912702109117
:1045C0002802211109C08C2F8D2B812B09F06AC084
:1045D000DF91CF911F9108959F3F19F09F5F9093B6
:1045E0002102121624F40E944A2180932502809110
:1045F000250287FF05C00E944A21819580932502EC
:104600001C1624F40E944A218093260280912602DF
:1046100087FF05C00E944A21819580932602309130
:1046200025023323A1F020912602222381F045EBBD
:104630003403C0011124992369F19093250245EBBD
:10464000240390011124332349F1309326021D16CF
:1046500024F40E949421809327028091270287FFEF
:1046600005C00E949421819580932702111624F49D
:104670000E949421809328028091280287FF05C020
:104680000E949421819580932802DF91CF911F9100
:104690000C94B42281E080932502D1CF81E08093F5
:1046A0002602D5CF9F3F09F099CFAACF86E0E3E25B
:1046B000F2E0DF011D928A95E9F710922102109233
:1046C000220208950E943A1F811102C00E94C91F50
:1046D0000E94561F80935302803320F087708862B7
:1046E0008093530290915302892F817090FF04C0F0
:1046F000892F8695869586950C94C10580915302E5
:10470000982F969596959695953040F49F5F990FC2
:10471000990F990F8770892B8093530280915302D0
:104720008160809353020E945A1F809153028695A4
:10473000869586950C94C10580915302982F987F99
:1047400079F0885080935302887F91E009F490E0DB
:104750008091530290FB80F9809353020E945A1F6C
:10476000809153028695869586950C94C10580911B
:10477000530280FD13C0816080935302813019F48D
:1047800089E080935302809153020E945A1F8091C6
:1047900053028695869586950C94C105089580915F
:1047A000530280FF08C08E7F809353020E945A1FDD
:1047B00080E00C94C10508958091530280FD0C9413
:1047C000CF230C94B72390915302892F8695869519
:1047D00086958F5F8F7197708630D8F4880F880F19
:1047E000880F892B8093530280915302887F91E038
:1047F00009F490E08091530290FB80F9809353027A
:104800000E945A1F809153028695869586950C9436
:10481000C10590935302E8CF863008F085E0982FC9
:10482000990F990F990F809153028770892B80936C
:104830005302887F91E009F490E08091530290FB4D
:1048400080F9809353020E945A1F809153028695EB
:10485000869586950C94C105809153028695869520
:10486000869508958091530281FD07C082608093F0
:1048700053020E945A1F0C94E3050895809153023D
:1048800081FF07C08D7F809353020E945A1F0C94B2
:10489000EF0508958091530281FD0C943E240C9401
:1048A000322480915302869581700895809131025F
:1048B00008950F931F93CF93DF9300D00F92CDB73E
:1048C000DEB78C010E94AC26823011F0843021F5D5
:1048D00084E089831B830A8382E08093E9008FEF61
:1048E0009091E800815095FD06C095ED9A95F1F7FD
:1048F00000008111F5CF8091E80085FF0DC050E0E8
:1049000040E063E070E0CE0101960E94C9268091EC
:10491000E8008E778093E8000F900F900F90DF9162
:10492000CF911F910F910895CF93DF9300D00F92F5
:10493000CDB7DEB720915802243031F523E029832A
:10494000805891099B838A8382E08093E9008FEFEE
:104950009091E800815095FD06C095ED9A95F1F78C
:1049600000008111F5CF8091E80085FF0DC050E077
:1049700040E063E070E0CE0101960E94C92680917C
:10498000E8008E778093E8000F900F900F90DF91F2
:10499000CF910895CF93DF93EC010E94AC26823033
:1049A00011F08430F9F482E08093E9008FEF909168
:1049B000E800815095FD06C095ED9A95F1F700004D
:1049C0008111F5CF8091E80085FF0CC050E040E0F8
:1049D00066E070E0CE010E94C9268091E8008E77E3
:1049E0008093E800DF91CF910895CF93DF93EC019E
:1049F0000E94AC26823011F0843039F581E080933A
:104A0000E9008FEF9091E800815095FD06C095ED8B
:104A10009A95F1F700008111F5CF8091E80085FFAC
:104A200014C050E040E068E070E0CE010E94C9266A
:104A30008091E8008E778093E80088E0FE01A9E28B
:104A4000B2E001900D928A95E1F7DF91CF91089540
:104A500080915702811109C00E9459280E94B628EE
:104A60008091E20084608093E200089510925702E2
:104A70000895089508950C94702042E061EC81E05F
:104A80000E94D52742E261EC82E00C94D527809108
:104A90005A02833009F45FC030F48130C1F18230B2
:104AA00009F49BC008958A3009F487C08B3009F45B
:104AB0006DC0893009F04EC080915902813209F0F1
:104AC00049C080915D0290915E02029708F042C059
:104AD0008091E800877F8093E8008091E80082FF62
:104AE00035C09091F3008091F200029729F48091F3
:104AF000F1008B7F813021F48091F10080933102AD
:104B00008091E8008B778093E8000C9409288091CD
:104B10005902813AF9F48091E800877F8093E80098
:104B200080915D0290915E02892B61F468E089E2D8
:104B300092E070E00E9418278091E8008B778093C4
:104B4000E800089560E090E080E0F3CF80915802A3
:104B50008111C3CF089580915902813AD9F780918C
:104B60005D0290915E02892BA9F78091E800877F12
:104B70008093E8008091E80080FFFCCF80912301C2
:104B80008093F1008091E8008E77BDCF809159022B
:104B9000813201F780915D0290915E02892BD1F6FE
:104BA0008091E800877F8093E8000E940928809127
:104BB0005B02809323010C94DD18809159028132AD
:104BC00049F68091E800877F8093E8000E940928D9
:104BD00080915C0280933202089580915902813A5B
:104BE00009F0B8CF8091E800877F8093E80080913A
:104BF000E80080FFFCCF80913202C2CF84B7877F6C
:104C000084BF0FB6F894A895809160008861809366
:104C10006000109260000FBE80E8809361001092E7
:104C200061000E94AA130E9459280E94B628809110
:104C3000E20084608093E20078940E943F2B0E94FF
:104C4000B21389E191E00E944613809158028530A9
:104C500029F00E94BE130E94C711F7CF0E941320B3
:104C600080915602882389F30E945820882369F393
:104C70000E94B326EACF0C943D26292F33272330F8
:104C8000310519F168F42130310509F44AC02230A8
:104C9000310509F44BC090E080E030E020E028C00E
:104CA0002132310579F122323105A9F780E490E013
:104CB0002BE439E061157105D9F085E890E026EC28
:104CC00038E061307105A1F0E6CF99278130910578
:104CD00099F0009741F08230910589F00397D9F659
:104CE000E3E4F8E002C0E5E7F8E0849190E09F019A
:104CF000FA01318320830895EBE5F8E0F6CFE9E48B
:104D0000F8E0F3CF89E090E02BE838E06115710519
:104D100079F389E090E024EA38E06130710541F3ED
:104D2000BACF82E190E024EB38E0E2CF8BE390E071
:104D300029E738E0DDCF0895CF93C82F0E949B2646
:104D4000C0933302CF91089580915802843011F4BA
:104D500082E0089581E0089580913302811102C0BC
:104D60000C94A426089580E189BD82E189BD09B42F
:104D700000FEFDCF8091D8008F7D8093D800809178
:104D8000E00082608093E0008091E00081FDFCCF34
:104D90000895AF92BF92CF92DF92FF920F931F932D
:104DA000CF93DF936C01EB018A010E942828F82E33
:104DB000811123C00115110539F0F801808191811D
:104DC000C81BD90BC80ED91EB12CA12C2097A9F055
:104DD0008091E80085FD22C08091E8008E77809365
:104DE000E80001151105A1F0F80180819181A80E5C
:104DF000B91EB182A08285E0F82E8F2DDF91CF9170
:104E00001F910F91FF90DF90CF90BF90AF900895CA
:104E10000E9428288823D1F2F82EEFCFF601819145
:104E20006F018093F1002197FFEFAF1ABF0ACECF39
:104E3000FC0180915F029091600286179707A0F0B5
:104E40006115710529F49091E8009E779093E80030
:104E500090E06115710551F4911108C08091E8004E
:104E600082FF34C080E00895BC01F2CF80915802E7
:104E70008823C1F18530C1F18091E80083FD30C005
:104E80008091E80082FDEACF8091E80080FFE1CFC9
:104E90008091F3002091F200382F6115710519F00F
:104EA0002830310558F091E02830310509F090E0C4
:104EB0002091E8002E772093E800CBCF819180935A
:104EC000F100615071092F5F3F4FE7CF8091580289
:104ED000882341F0853041F08091E80083FFBECF08
:104EE00081E0089582E0089583E00895FC018091B7
:104EF0005F029091600286179707A0F06115710517
:104F000029F48091E8008E778093E80090E06115A5
:104F1000710551F4911108C08091E80082FF35C0FD
:104F200080E00895BC01F2CF809158028823C9F136
:104F30008530C9F18091E80083FD31C08091E8009F
:104F400082FDEACF8091E80080FFE1CF8091F300FD
:104F50002091F200382F6115710519F028303105C4
:104F600058F091E02830310509F090E08091E80098
:104F70008E778093E800CBCF84918093F1003196B7
:104F8000615071092F5F3F4FE6CF8091580288230F
:104F900041F0853041F08091E80083FFBDCF81E092
:104FA000089582E0089583E00895982F973028F0BF
:104FB0008F708093E90081E008959093E900242F99
:104FC000762F50E0981731F07091EC002091ED00B1
:104FD0005091F00021FD02C09F5FE8CF3091EB00BF
:104FE0003E7F3093EB003091ED003D7F3093ED003C
:104FF0003091EB0031603093EB007093EC00209324
:10500000ED005093F0002091EE0027FDE5CF80E009
:1050100008958091590287FF13C08091E80082FFB4
:1050200006C08091E8008B778093E80004C08091EF
:1050300058028111F2CF0895809158028823D9F344
:105040008091E80080FFF8CF8091E8008E77ECCF68
:105050002091E4003091E50095E6A9012091EC0053
:10506000822F817020FF06C08091E80080FF06C07B
:1050700080E008952091E80022FD1AC08091580236
:10508000882389F0853089F08091EB0085FD0FC081
:105090002091E4003091E50042175307F9F2915056
:1050A000E1F684E0089582E0089583E0089581E0C8
:1050B00008950E94C7280E94CF28E0EEF0E080818A
:1050C00081608083E8EDF0E080818F77808319BC78
:1050D000A7EDB0E08C918E7F8C9380818F7E808352
:1050E0001092570208950F931F93CF93DF930E945E
:1050F000C7280E94CF28C8EDD0E088818F778883A9
:1051000088818068888388818F7D888319BC10920C
:10511000580210925402109256021092550200EE5C
:1051200010E0F80180818B7F808388818160888393
:1051300042E060E080E00E94D527E1EEF0E080816F
:105140008E7F8083E2EEF0E08081816080838081C9
:1051500088608083F80180818E7F80838881806170
:105160008883DF91CF911F910F910895E8EDF0E0D2
:1051700080818F7E8083E7EDF0E080818160808395
:1051800084E082BF81E0809357020C947328E8ED9D
:10519000F0E080818E7F80831092E200089510926B
:1051A000DA001092E10008951F920F920FB60F924D
:1051B00011242F933F934F935F936F937F938F931C
:1051C0009F93AF93BF93EF93FF938091E10082FF92
:1051D0000BC08091E20082FF07C08091E1008B7FCD
:1051E0008093E1000E943E2B8091DA0080FF19C07D
:1051F0008091D80080FF15C08091DA008E7F809367
:10520000DA008091D90080FF96C080E189BD82E1FB
:1052100089BD09B400FEFDCF81E0809358020E9451
:1052200028258091E10080FF19C08091E20080FF75
:1052300015C08091E2008E7F8093E2008091E200B1
:1052400080618093E2008091D80080628093D800D2
:1052500019BC85E0809358020E943A258091E100B4
:1052600084FF2BC08091E20084FF27C080E189BDCC
:1052700082E189BD89B5982F917080FFFBCF809125
:10528000D8008F7D8093D8008091E1008F7E80933D
:10529000E1008091E2008F7E8093E2008091E20045
:1052A00081608093E20080915402882309F449C010
:1052B00084E0809358020E943B258091E10083FFA7
:1052C00029C08091E20083FF25C08091E100877FA3
:1052D0008093E10082E08093580210925402809102
:1052E000E1008E7F8093E1008091E2008E7F8093C9
:1052F000E2008091E20080618093E20042E060E0A1
:1053000080E00E94D5278091F00088608093F000B3
:105310000E943925FF91EF91BF91AF919F918F919D
:105320007F916F915F914F913F912F910F900FBEA1
:105330000F901F90189519BC109258020E943625A4
:1053400070CF8091E30087FD93E090935802B3CF34
:105350001F920F920FB60F9211242F933F934F93EA
:105360005F936F937F938F939F93AF93BF93CF93ED
:10537000DF93EF93FF93D091E900DF708091EC0011
:10538000C82FC17080FDC0E81092E9008091F00044
:10539000877F8093F00078940E94EC291092E900B6
:1053A0008091F00088608093F000CD2BCF70C09387
:1053B000E900FF91EF91DF91CF91BF91AF919F9164
:1053C0008F917F916F915F914F913F912F910F90AE
:1053D0000FBE0F901F9018951F93CF93DF93CDB7FB
:1053E000DEB7AA970FB6F894DEBF0FBECDBF89E532
:1053F00092E02091F100FC012193CF01F2E081368F
:105400009F07B9F70E9447258091E80083FF1EC1DE
:105410008091590290915A029A3008F017C1E92FF1
:10542000F0E0E059F34D0C94B42B803899F08238B9
:1054300009F00CC180915D028F70873008F006C1C1
:105440008093E9008091EB0085FB882780F910921A
:10545000E90006C080915502909156029111826038
:105460009091E800977F9093E8008093F10010926C
:10547000F1008091E8008E77E5C0882309F4D3C05D
:10548000823009F0E3C080915B028111D6C0809127
:105490005D028F702FEF280F263008F0D7C0809361
:1054A000E9002091EB0020FFC8C0933031F48091D7
:1054B000EB0080628093EB00C0C09091EB009061A4
:1054C0009093EB0021E030E001C0220F8A95EAF7CB
:1054D0002093EA001092EA008091EB008860EACF06
:1054E0008111B4C010915B021F778091E300807836
:1054F000812B8093E3008091E800877F8093E80010
:105500000E9409288091E80080FFFCCF8091E30091
:1055100080688093E30082E0111183E08093580259
:1055200095C08058823008F091C080915B029091C4
:105530005C028C3D23E09207A1F583E08A838AE236
:1055400089834FB7F894DE01139620E03EE051E2E4
:10555000E32FF0E050935700E49120FF03C0E29561
:10556000EF703F5FEF708E2F90E0EA30C0F0C7968B
:105570008D939D932F5F243159F74FBF8091E800A1
:10558000877F8093E8006AE270E0CE0101960E9476
:1055900018278091E8008B778093E80057C0C09669
:1055A000E7CF60915D0270915E02AE014F5F5F4F89
:1055B0000E943B26BC01892B09F448C09091E80069
:1055C000977F9093E80089819A810E947627E1CFA6
:1055D0008038E1F58091E800877F8093E800809132
:1055E00054028093F10045CF811130C090915B024D
:1055F000923060F58091E800877F8093E800909377
:1056000054020E94092880915402882311F084E0FA
:1056100005C08091E30087FDFACF81E080935802B6
:105620000E943D2513C080915B02813079F481E0B6
:10563000933009F080E0809356021092E900809147
:10564000E800877F8093E8000E9409288091E800A5
:1056500083FF0AC08091E800877F8093E8008091F3
:10566000EB0080628093EB00AA960FB6F894DEBF41
:105670000FBECDBFDF91CF911F9108950895CF93B5
:10568000809158028823A1F0C091E900CF709091D9
:10569000EC00892F817090FD80E8C82B1092E90002
:1056A0008091E80083FD0E94EC29CF70C093E9004F
:1056B000CF910895DB018F939F930E94C92BBF91D7
:1056C000AF91A29F800D911DA39F900DB29F900D51
:1056D00011240895AA1BBB1B51E107C0AA1FBB1FC1
:1056E000A617B70710F0A61BB70B881F991F5A956E
:1056F000A9F780959095BC01CD01089597FB072EE1
:1057000016F4009407D077FD09D00E946A2B07FC9D
:1057100005D03EF4909581959F4F089570956195C1
:105720007F4F0895A1E21A2EAA1BBB1BFD010DC0DD
:10573000AA1FBB1FEE1FFF1FA217B307E407F50741
:1057400020F0A21BB30BE40BF50B661F771F881F1D
:10575000991F1A9469F760957095809590959B01B3
:10576000AC01BD01CF010895EE0FFF1F0590F4912C
:10577000E02D0994A29FB001B39FC001A39F700DBB
:10578000811D1124911DB29F700D811D1124911D49
:1057900008950E94BA2BA59F900DB49F900DA49FD1
:1057A000800D911D11240895FC014150504030F0AE
:1057B00001900616D1F73197CF01089588279927D0
:1057C0000895F999FECF92BD81BDF89A992780B5C9
:1057D0000895A6E1B0E044E050E00C941B2CA8E151
:1057E000B0E042E050E00C941B2C262FF999FECF3C
:1057F00092BD81BDF89A019700B4021639F01FBA24
:1058000020BD0FB6F894FA9AF99A0FBE0895039640
:10581000272F0E94F62B0E94F52B252F0E94F62B96
:10582000242F0C94F62B0196272F0E94F62B0C9414
:10583000F52BDC01CB01FC01F999FECF06C0F2BDCE
:10584000E1BDF89A319600B40D9241505040B8F73E
:105850000895F894FFCF3908450849084D085108C4
:10586000550859085D086108650869086D087108E0
:10587000750879087D08810885085F165F16BB16D4
:10588000BB160D1729178C168C166B178C16F7176D
:10589000F717601869188C168C1801180118011870
:1058A0000118011801180118011801180118011830
:1058B000011801180118011801180E181C182318D6
:1058C0002A183418EC18EC18F518F518F718F5180C
:1058D000F518F518EC18EC18FC18F518F518FC1864
:1058E000152A3D2A262B3D2A262B702A912A262B63
:0458F000E82AF42A84
:1058F40006010206060601191A1B1C1D1E1F202183
:105904002210022808140A321E5624F524CA2494AC
:10591400245924013033F5F6F76766363534979603
:10592400949593929091F0F4F10001020202020620
:1059340006060909090909090F0F0F0F0F0F15159D
:0E5944001518191919191919191919192324E7
:00000001FF
