:100000000C9475040C94BC040C94BC040C94BC04B7
:100010000C94BC040C94BC040C94BC040C94BC0460
:100020000C94BC040C94BC040C94EB280C94BD29D7
:100030000C94B7200C94BC040C94BC040C94BC0429
:100040000C94BC040C94BC040C94BC040C94BC0430
:100050000C94C9050C941F210C94BC040C94BC0492
:100060000C94BC040C94BC040C94BC040C94BC0410
:100070000C94BC040C94BC040C94BC040C94BC0400
:100080000C94BC040C94BC040C94BC040C94BC04F0
:100090000C94BC040C94BC040C94BC040C94BC04E0
:1000A0000C94BC040C94BC040C94BC04CB06CD068C
:1000B000D806CF06D106D306D506D706DA06DC0663
:1000C000DE06E906E006E206E406E606E806EB06DA
:1000D0005316531685168516C316E1165F185F185A
:1000E00023175F18BC17BC172E1837185F1858183D
:1000F000C917C917C917C917C917C917C917C91700
:10010000C917C917C917C917C917C917C917C917EF
:10011000DA17E817EF17F6170018F018F018021999
:100120000219F918021902190219F018F018FE182C
:1001300002190219FE182A2A512A492B512A492B41
:100140009D2AC02A492B172B262B29001E001F0091
:100150002000210022002300240025002600270083
:100160002D002E002A002A0035002B00000014006C
:100170001A000800150017001C0018000C001200DF
:1001800013002F00300031004C0029000000040053
:100190001600070009000A000B000D000E000F00FA
:1001A00033003400280000004B00E100E1001D0096
:1001B0001B00060019000500110010003600370072
:1001C00038000000E10052004E00E000E3000000B3
:1001D000E20000002C4300002C432C430000E3000D
:1001E00002510000500051004F0035001E001F005A
:1001F00020002100220023002400250026002700E3
:100200002D002E002A002A007F002B000000140081
:100210001A000800150017001C0018000C0012003E
:1002200013002F00300031004C00290000000400B2
:100230001600070009000A000B000D000E000F0059
:1002400033003400280000004B00D75CD75C1D0051
:100250001B000600190005001100100036003700D1
:1002600038000000D85C52004E00E000E2000000C0
:10027000E30000002C4500002C452C450000E70061
:1002800004510000500051004F00005CF0000100DC
:100290000100010001000100010001000100010056
:1002A00047004800010001000100010000000100BA
:1002B0005200010001000100010001000100CB5CBF
:1002C000CC5CC55CC65C0100C25C00000000500054
:1002D00051004F000100010001000100D25C01004B
:1002E000C95CCA5C01000000C35C000000000100A2
:1002F00001000100010001000100010001000100F6
:10030000AE0000000000A900C45C01000100000074
:1003100001000000010000000100010000000100D8
:1003200000000000AC00AA00AB00010001000100C9
:1003300001000100010001000100010001000100B5
:100340000100010001000100010001000000500057
:1003500052004F00010001000100010001000100F6
:100360000100010001000100010000000000500137
:1003700051004F01010001005000510052004F0098
:100380000100010001000000010000000000010068
:100390000100010001000100010001000100010055
:1003A00001000000000080000100010001000000C9
:1003B0000100000001000000010001000000010038
:1003C000000000000100810001000100EF000100B9
:1003D0000100010001000100010001000100010015
:1003E00047007F0001000100010001000000010042
:1003F0005200010001000100010001000100CB5C7E
:10040000CC5CC55CC65C0100C25C00000000500012
:1004100051004F000100010001000100D25C010009
:10042000C95CCA5C01000000C35C00000000010060
:1004300001000100010001000100010001000100B4
:10044000AE00000000008000C45C0100010000005C
:100450000100000001000000010001000000010097
:1004600000000000BC008100BB0001000100010091
:100470000100010001000100010001000100010074
:100480000100010001000100010001000000500016
:1004900052004F00010001000100010001000100B5
:1004A00001000100010001000100000000005004F3
:1004B00051004F04010001005000510052004F0054
:1004C0000100010001000000010000000000010027
:1004D0000100010001000100010001000100010014
:1004E0000100000000008000010001000100000088
:1004F00001000000010000000100010000000100F7
:100500000000000001008100010000000000000068
:10051000000000000001010203040506080A0C0F98
:100520001114181C2024292E33393F464C535B628A
:100530006A7179818A929AA2AAB2B9C1C8CFD5DC70
:10054000E1E7EBF0F4F7FAFCFDFEFFFEFDFCFAF745
:10055000F4F0EBE7E1DCD5CFC8C1B9B2AAA29A9218
:100560008A8179716A625B534C463F39332E292464
:10057000201C1814110F0C0A0806050403020101BF
:100580000000000000000000000000047F3F1F6426
:100590003214643214783C1E1E140A0522232526C8
:1005A00028292A2C2D2F3032333536383A3B3D3E20
:1005B0004042434547494A4C4E5051535557595A6A
:1005C0005C5E6062646668696B6D6F717375777984
:1005D0007B7D7F81838587898A8C8E909294969883
:1005E0009A9C9E9FA1A3A5A7A8AAACAEAFB1B3B495
:1005F000B6B8B9BBBCBEBFC1C2C3C5C6C7C9CACBEA
:10060000CCCDCED0D1D2D2D3D4D5D6D7D7D8D9D9B4
:10061000DADADBDBDBDCDCDCDCDCDDDDDDDDDCDC1D
:10062000DCDCDCDBDBDBDADAD9D9D8D7D7D6D5D43A
:10063000D3D2D2D1D0CECDCCCBCAC9C7C6C5C3C206
:10064000C1BFBEBCBBB9B8B6B4B3B1AFAEACAAA85B
:10065000A7A5A3A19F9E9C9A98969492908E8C8A0F
:1006600089878583817F7D7B79777573716F6D6BEA
:100670006968666462605E5C5A5957555351504EC2
:100680004C4A4947454342403E3D3B3A3836353374
:1006900032302F2D2C2A292826252322FFAA7F55E8
:1006A0004000000000000000000000010101010105
:1006B000010101010202020202020202030303031A
:1006C00003030304040404040505050505060606E2
:1006D000060607070707080808080909090A0A0A99
:1006E0000B0B0B0C0C0C0D0D0D0E0E0E0F0F101036
:1006F00010111112121313141415151616171718BA
:100700001819191A1A1B1C1C1D1D1E1F1F20212120
:1007100022232324252526272828292A2B2C2C2D63
:100720002E2F30313132333435363738393A3B3C7D
:100730003D3E3F404142434445464748494B4C4D6E
:100740004E4F50525354555758595A5C5D5E606134
:1007500063646567686A6B6C6E6F717274767779C3
:100760007A7C7D7F8182848687898B8D8E9092941E
:100770009597999B9D9FA1A2A4A6A8AAACAEB0B242
:10078000B4B6B9BBBDBFC1C3C5C8CACCCED0D3D522
:10079000D7DADCDEE1E3E6E8EAEDEFF2F4F7F9FCC4
:1007A000FF04033000000010035300700061006379
:1007B0000065003600350000001803470072006134
:1007C0000079002000530074007500640069006F18
:1007D0000000000403090409023B00020100A0FA22
:1007E0000904000001030101000921110100012297
:1007F00040000705810308000A0904010001030005
:100800000000092111010001228500070582032053
:10081000000A1201100100000008EDFE00000100B6
:100820000102030105010902A10185020901A100DC
:100830000509190129051500250195057501810294
:100840009501750381010501093009311581257F65
:1008500095027508810609381581257F950175086F
:100860008106050C0A38021581257F9501750881DE
:1008700006C0C005010980A10185031601002603F9
:10088000001A81002A8300751095018100C0050CB3
:100890000901A1018504160100269C021A01002A03
:1008A0009C02751095018100C005010906A1010592
:1008B0000719E029E71500250195087501810295C2
:1008C0000175088101050819012905950575019132
:1008D000029501750391010507190029FF150026EE
:1008E000FF00950675088100C00011241FBECFEFE0
:1008F000DAE0DEBFCDBF04B603FE27C080916102FF
:1009000090916202A0916302B09164028730904B93
:10091000A740B04BD1F41092610210926202109283
:1009200063021092640214BE84B7877F84BF0FB63F
:10093000F894A8958091600088618093600010927F
:1009400060000FBEE0E0F8E3099511E0A0E0B1E03F
:10095000ECE9F8E502C005900D92AE35B107D9F784
:1009600022E0AEE5B1E001C01D92A136B207E1F789
:100970000E9413260C944C2C0C9400000C94CB0475
:100980000C94E7040C94CC0481FF02C0769A01C059
:1009900076980C94E80408958F3E910559F0803FB5
:1009A000910599F482E00E948B1F62E070E080E084
:1009B00090E007C081E00E948B1F61E070E080E062
:1009C00090E00E94EB1C80E0089581E00895089576
:1009D0000895CF92DF92EF92FF928C3724E1920735
:1009E00028F469E070E00E948D2B29C0A0E0B0E0FF
:1009F0008A50974DAF4FBF4F6627782F892F9A2F78
:100A000025EF38E241E050E00E94B52B69017A0100
:100A1000CA01B9010E947D2B9B01AC01C701B6013F
:100A20000E947D2BBB27A92F982F872F009721E0AD
:100A3000A207B10511F0BC0102C06FEF7FEFCB013F
:100A4000FF90EF90DF90CF90089581E008951F937D
:100A5000CF93DF9300D000D01F92CDB7DEB749838C
:100A60005A836B8320919B0189819A81211112C045
:100A7000662349F00E94401E182F682F89819A81B1
:100A80000E94E91D03C00E94141E182F69817A81FB
:100A9000812F04C00E94401E69817A810F900F90BF
:100AA0000F900F900F90DF91CF911F910C947608CB
:100AB000FC01408151816281738184810C942705FE
:100AC0000E947A0B8FE39CE90197F1F700C00000C8
:100AD0000E947A0B80E00E94230B80FF04C00E94DA
:100AE000721F0C94452108950C94C004E82FE295E0
:100AF000EF70F0E032A1282F2F7081E090E001C06C
:100B0000880F2A95EAF78095832382A3089586307B
:100B100030F4811105C090918000977F04C085E07A
:100B200090918000986090938000282F30E0AFEF84
:100B3000BFEF0E94DD2B25E030E040E050E00E9456
:100B4000B52BC9010E94E90490938D0080938C001D
:100B5000089580916F008170089510925F01109246
:100B60005E0110926001EFE6F0E080818160808399
:100B70000895EFE6F0E080818E7F80830E946124FB
:100B80000C9487050E94A90581110C94B9050C9459
:100B9000AD051F920F920FB60F9211242F933F9322
:100BA0004F935F936F937F938F939F93AF93BF9375
:100BB000CF93EF93FF932091000180915E0190917C
:100BC0005F01019644EF249F90011124B9010E9416
:100BD0008D2B90935F0180935E01B901660F672FA3
:100BE000661F770B71950E948D2B6F778091600146
:100BF000823019F4603451F404C0813039F46F3715
:100C000029F480916F008E7F80936F00E62FF0E0D3
:100C1000E65FFA4FC4910E946124282F41E051E021
:100C2000C49FC001C59F900D112465E070E00E9433
:100C30008D2B269FC001279F900D11240E94E9044F
:100C400090938D0080938C00FF91EF91CF91BF9195
:100C5000AF919F918F917F916F915F914F913F9154
:100C60002F910F900FBE0F901F901895279A87E332
:100C70000E9476058AE08093800089E1809381005C
:100C80008FEF9FEF90938700809386000E94A323AD
:100C90000C94AD050E9460050E94781F811102C06E
:100CA0000E9400200E9436060C94BE040C94C404DA
:100CB00008950E94DE180E9458062FEF84E39CE0FE
:100CC000215080409040E1F700C000000C94452185
:100CD0000F931F93CF93DF938C010E945805EC0173
:100CE000B8010E94C204882309F4F6C1B801CE01FC
:100CF0000E94CB12882309F4EFC1CA3CFCE5DF0750
:100D000041F4F8018281882309F4E6C10E94000FB2
:100D1000E3C1CB3C8CE5D80708F012C1C23C9CE58E
:100D2000D90741F4F8018281882309F4D5C10E94D2
:100D30003B11D2C1C33CECE5DE0708F0B7C0C531BA
:100D4000FCE5DF0708F07BC0C2308CE5D80708F46B
:100D500052C0F8018281882309F454C00E94781F90
:100D6000811102C00E9400200E94901F90E0909389
:100D7000520280935102FE01E350FC45E231F1053D
:100D800030F4EA5AFF4F809151020C94D72B809196
:100D90005102816027C0826025C0846023C08061C9
:100DA00021C080621FC080641DC080681BC0846039
:100DB000886018C08E7F16C08D7F14C08B7F12C0D4
:100DC0008F7E10C08F7D0EC08F7B0CC08F770AC0C6
:100DD0008B7F877F07C087FB222720F991E092272E
:100DE00090FB87F980935102809151020E94941FD9
:100DF0000E94DE1871C1C1159CE5D90751F0C130C0
:100E0000DC4579F0C801DF91CF911F910F910C94CF
:100E10002505F8018281882309F45EC10E945906E4
:100E20005BC1F8018281882309F456C180911B02BD
:100E3000982F909590FB80F980931B024DC1C6318D
:100E4000FCE5DF0739F50E94C11E982FF801828169
:100E50002091110130911201882379F09A7A81E072
:100E600009F480E080936101911102C069E201C040
:100E700065E3C9010E9435200AC08091610181119A
:100E800002C069E201C065E3C9010E9437200E94E7
:100E90000F1F22C1C13CDC4509F0B4CFF8018281AB
:100EA000882309F419C10E94C20516C1F801828184
:100EB000C63CFCE5DF0731F4882309F40DC10E942C
:100EC000C40E0AC1C73C9CE5D90708F5C43CECE553
:100ED000DE0751F4882309F4FFC00E94C11E82720C
:100EE00069F40E942D11F8C0C53CDC4550F48823FC
:100EF00009F4F2C00E94C11E827299F70E9420116B
:100F0000EBC0882309F4E8C00E94B70EE5C0C83CD6
:100F10009CE5D90731F4882309F4DEC00E94E20E73
:100F2000DBC0C93CDC4530F4882309F4D5C00E94FD
:100F3000D30ED2C0882309F4CFC00E94F10ECCC0DA
:100F4000C13DFCE5DF0789F4F8018281882309F4BB
:100F5000C3C00E94340D8F3020F00E94340D8431C4
:100F600068F28FE00E943011B7C0C23D8CE5D8070F
:100F700008F05AC0CD3C9CE5D90739F4F8018281CC
:100F8000882309F4A9C081E0EDCFCE3CECE5DE0773
:100F9000C0F4CB3CFCE5DF0741F4F80182818823F3
:100FA00009F49AC00E943C0D97C0CC3CDC4509F086
:100FB00029CFF8018281882309F48EC00E944D0D4B
:100FC0008BC0F8018281CF3CFCE5DF0771F48823F8
:100FD00009F482C00E94340D863028F00E94340D3E
:100FE000883008F48BCF86E0BDCFC03DDC4570F47F
:100FF000882309F471C00E94340D823028F00E94C9
:10100000340D853008F47ACF82E0ACCF882309F420
:1010100063C00E94340D893028F00E94340D8E3058
:1010200008F46CCF89E09ECFC53DECE5DE0739F4CE
:10103000F8018281882309F44FC083E293CFC63D33
:10104000FCE5DF0740F5F8018281C33DFCE5DF07E1
:1010500029F4882309F440C088E184CFC43DDC45ED
:1010600068F48823C9F10E94340D853128F00E946C
:10107000340D873108F442CF85E174CF882361F1C4
:101080000E94340D893128F00E94340D823208F418
:1010900035CF89E167CFCD3DECE5DE0741F4F801BE
:1010A00082818823C9F082E00E94B22615C0CE3D1D
:1010B000FCE5DF0739F4F8018281882369F00E949A
:1010C00000200AC0CC3DDC4509F09CCEF8018281AD
:1010D000882311F080E0E8CF80E0DF91CF911F916D
:1010E0000F91089580E090E008950895E72FF0E0D3
:1010F00095E0899FE00DF11D112484E0EE0FFF1FA4
:101100008A95E1F7E60FF11DEE0FFF1FE65BFE4F3C
:10111000859194910895880F991FFC01E657FA4F25
:10112000859194910895CF93DF930E9476080E9451
:10113000840AEC01811521E5920708F042C081156F
:1011400040E5940708F02FC1883E910500F5803EE8
:10115000910508F0D5C1883A910570F4853A91055A
:1011600008F0A4C08130910509F4CAC108F47BC11C
:10117000049708F0C5C177C18F3B910508F4A1C061
:10118000803C910508F46FC1805C9109FBC0C115DA
:1011900080E3D80780F4C11520E2D20708F0F0C040
:1011A000C03FD10508F45FC1CF3FD10511F008F071
:1011B000A7C1D065A5C1C11540E4D40708F0F0C0AF
:1011C000E5C0C11589E5D80760F5C11528E5D20746
:1011D00008F035C1C11544E5D40778F4C11583E59D
:1011E000D80708F011C1C11522E5D20708F0F6C0F2
:1011F000DC2FCC27C16FD06A83C1C11545E5D40768
:1012000008F418C1C11586E5D80708F02CC18C2F49
:101210000E94000B8F71C82FD0E0DC2FCC27D0624A
:101220006FC1CD3B2CE5D20709F414C1F0F4CB3BE0
:101230008CE5D80709F408C108F009C1C1154AE5D1
:10124000D40708F010C18C2F8F700E94000B94E01F
:10125000D695C7959A95E1F7CF70D0E0DC2FCC27D3
:10126000D06A8F70806EC82B4BC1C03C8CE5D8070C
:1012700009F4F6C060F4CE3B4CE5D40709F4EDC0A8
:10128000CF3BDC4509F0EFC0C0E0D2ED39C1CE0163
:1012900090568115904208F0E6C08D2F8F710E9404
:1012A000000BDD27D0628F71D82B2AC1853A9105BA
:1012B00009F4DCC0863A910509F0DBC0C2E8D0E44D
:1012C0001FC1883A910509F4D7C0893A910509F4FC
:1012D000D6C08A3A910509F4D5C08B3A910509F434
:1012E000D4C08C3A910509F4D3C08B3B910509F425
:1012F000D2C08C3B910509F4D1C08D3A910509F417
:10130000D0C0803B910509F4CFC08E3A910509F415
:10131000CEC08F3A910509F4CDC0813B910509F407
:10132000CCC0823B910509F4CBC0833B910509F405
:10133000CAC0843B910509F4C9C0853B910509F4F5
:10134000C8C0863B910509F4C7C0873B910509F4E5
:10135000C6C0883B910509F4C5C0893B910509F4D5
:10136000C4C08D3B910509F4C3C08E3B910509F4BF
:10137000C2C08A3B910509F4C1C0C0E0D4E4C0C03A
:10138000CE019F700E948B08EC01BAC0CE01992754
:10139000D3FF03C0EC01D86CB3C0EC01D06CB0C07B
:1013A000DF70D06AADC074E0969587957A95E1F7C5
:1013B00083709C2F937021E030E002C0220F331F16
:1013C0009A95E2F73C68382BCF70C695C69540E2F7
:1013D000C49FE0011124C22BD32B92C0CE01837095
:1013E000992721E030E002C0220F331F8A95E2F7EF
:1013F0008C2F8695869540E2849FC0011124E901D7
:10140000C82BD92BDC687CC0CE018370992721E0E2
:1014100030E002C0220F331F8A95E2F78C2F8695A9
:10142000869540E2849FC0011124E901C82BD92B85
:10143000DA6866C0DC2FCC27C46FD06A61C0DC2FAD
:10144000CC27C06FD06A5CC0C0E0D4ED59C0C0E00A
:10145000D5ED56C0C0E0D1ED53C0C0E0D0ED50C0D6
:10146000C0E0D3ED4DC0C0E0D0E04AC0C1E8D0E458
:1014700047C0C3E8D0E444C0C2EED4E441C0C9EEE2
:10148000D4E43EC0CAEED4E43BC0C5EBD4E438C0DB
:10149000C6EBD4E435C0C3EBD4E432C0C4EBD4E42F
:1014A0002FC0C7EBD4E42CC0CCECD4E429C0CDECE5
:1014B000D4E426C0C3E8D5E423C0CAE8D5E420C0FC
:1014C000C2E9D5E41DC0C4E9D5E41AC0C1E2D6E43E
:1014D00017C0C3E2D6E414C0C4E2D6E411C0C5E22A
:1014E000D6E40EC0C6E2D6E40BC0C7E2D6E408C01C
:1014F000CFE6D4E405C0C0E7D4E402C0CAE2D6E433
:10150000CE01DF91CF9108958238910549F1B0F471
:101510008133910509F459C048F48932910509F4E1
:101520004FC08A32910509F455C00895853391055D
:1015300009F441C08933910599F00895833E9105DE
:1015400031F138F4803E910591F0823E9105A9F089
:101550000895863E910501F1873E910539F1089580
:101560002091510220FD3BC021FD39C0089580919A
:10157000510280FF34C089E341C08091510282FF53
:1015800030C08091510284FD2EC083EE37C080911F
:10159000510282FD26C0F5CF8091510283FF25C004
:1015A0008091510284FD1FC087EE28C080915102B6
:1015B00083FD1BC0F5CF8091510285FD18C019C075
:1015C0008091510285FD15C012C08091510286FDA7
:1015D00012C013C08091510286FD0FC00CC080EE76
:1015E0000DC082EE0BC080E009C086EE07C089E224
:1015F00005C085E303C08AE201C081E390E008955D
:101600009091510292FF0DC0282F2871283019F4B3
:10161000877F846006C0282F2471243011F48B7FCB
:10162000886093FF0DC0282F2871283119F4877E18
:10163000846106C0282F2471243111F48B7E8861C7
:1016400094FD877E0895E82FF0E0EE0FFF1FEE591E
:10165000FE4F8081918108950895CF93DF93A4E395
:10166000B1E049E351E061E070E08D91E82FE2954F
:10167000EF70F0E091A18F709B0101C0220F8A955D
:10168000EAF7822F8095892381A34A175B0769F7C0
:10169000A4E2B1E044E351E061E070E08D91E82F15
:1016A000E295EF70F0E021A18F70EB0102C0CC0F4A
:1016B000DD1F8A95E2F7CE019C2F9095922391A38E
:1016C00092A1892B82A34A175B0741F7ECE6F1E070
:1016D000A2E6B1E086E791E0119211921D921D926F
:1016E0008E179F07C9F785E00E94190CDF91CF91F3
:1016F0000C944A063F924F925F926F927F928F9224
:101700009F92AF92BF92CF92DF92EF92FF920F9390
:101710001F93CF93DF9364E371E0ACE6B1E026E77B
:10172000622E21E0722E412C01E010E05D018D90CF
:101730009C90119711961C921E92EB018991BE010B
:10174000E82FE295EF70F0E021A18F70A80102C0B0
:10175000440F551F8A95E2F7CA01242B21A322A129
:10176000342E3094232122A350EA5A95F1F794E2C3
:10177000E92E91E0F92E40E050E0E70159907E011A
:10178000252D22952F7030E0E90128A1CD90DC9025
:10179000119730E0D52DDF7002C035952795DA9589
:1017A000E2F720FD08C09801042E02C0220F331F6B
:1017B0000A94E2F702C020E030E0C22AD32A119650
:1017C000DC92CE924F5F5F4F40315105B1F691A14F
:1017D000D32DD923D1A392A1892B82A3129681E084
:1017E000F501208131812815390509F480E0482A66
:1017F0006A167B0609F09ACF242D45E062E671E077
:101800008CE691E00E941A0C0E947405842DDF91F1
:10181000CF911F910F91FF90EF90DF90CF90BF90ED
:10182000AF909F908F907F906F905F904F903F9080
:1018300008950895FF920F931F93CF93DF93F82E8F
:10184000092F162FD72FC42F222349F081E0809330
:1018500078010E94E920909377018093760180912E
:1018600078018823D9F080917601909177010E94C8
:10187000F520069798F0EF2DF02FA12FBD2F80E0D7
:1018800090E04C2F50E08417950734F4219131916A
:101890002D933D930196F7CF10927801DF91CF9170
:1018A0001F910F91FF900895CF92DF92EF92FF92D8
:1018B0000F931F93CF93DF93362F472F282FE82FB7
:1018C000F0E0711106C0EF55F94F6491762F862F25
:1018D0007BC0072F10E056E0659FC0011124CFEFB9
:1018E000D0E0BE010E948D2B5BEA5603C001579FDA
:1018F000900D1124830F911D830F911D982F990F27
:10190000980F7E01E01AF10AEE9ED001EF9EB00D15
:10191000FE9EB00D11248B2F499FA0011124452F4D
:1019200055277E01E41AF50AEE9EA001EF9E500DA8
:10193000FE9E500D11246E01C91AD108C09E70017F
:10194000C19EF00CD09EF00C11240F2D1127C01B4E
:10195000D10BCE9F8001CF9F100DDE9F100D112463
:101960006230710591F048F461157105E1F0613064
:101970007105B1F49B2FE52F0AC06430710569F041
:1019800040F06630710579F00BC0912FEB2F822F5C
:101990000DC0922FEB2F852F09C0922FE12F06C08B
:1019A000952FE22F03C09B2FE22F812FF0E0EF5500
:1019B000F94F7491E82FF0E0EF55F94F6491E92F5A
:1019C000F0E0EF55F94F8491DF91CF911F910F9186
:1019D000FF90EF90DF90CF9008950895CF93DF931D
:1019E000762FE901682F842F0E94540C7983688335
:1019F0008A83DF91CF91089580913402282F269514
:101A000030E02115310519F48170826005C025325E
:101A1000310524F08170886480933402089588E051
:101A200090E00C940C2CCF92DF92EF92FF926B011E
:101A30007C010E94FC0CB701A60188E090E0FF90B9
:101A4000EF90DF90CF900C942A2CE4E3F2E083E057
:101A5000808311828FEF82838383148260817181FE
:101A6000828193810C94130D8091340280FF02C017
:101A70008695089580E0089580913802833018F4A7
:101A80008F5F8093380260913402709135028091AB
:101A90003602909137020C94130D809138028823FE
:101AA00019F08150809338026091340270913502B0
:101AB00080913602909137020C94130D60910501CC
:101AC00070E08091340280FF0AC080917D0123E0A4
:101AD000829FC0011124875C9D4F0C945412809109
:101AE0007C0190910401891780F7E82FF0E09F01B5
:101AF000220F331FE20FF31FE75CFD4F11821082AC
:101B000012828F5FF0CF9091340290FF16C09091B7
:101B10007C0120910401921770F4E92FF0E0DF01BD
:101B2000AA0FBB1FEA0FFB1FE75CFD4F8183608399
:101B300042839F5FF0CF0C945E0D0895CF93DF93A7
:101B400000D01F92CDB7DEB79091340290FF0AC04B
:101B50009E012F5F3F4F0E94EE0C4B8169818A816D
:101B60000E94830D0F900F900F90DF91CF910895F9
:101B7000CF93DF93EC01EC81F0E0E456FA4F44910F
:101B8000E4E3F2E0628181810E949E0D8C818F5F8F
:101B90008C83DF91CF910895CF93DF93EC01E4E341
:101BA000F2E0438162818C810E949E0D8C818F5F67
:101BB0008C83DF91CF9108950F931F93CF93DF9381
:101BC00000D01F92CDB7DEB78C01809179018111D1
:101BD0000AC09E012F5F3F4F4FEF6FEF0E94EE0C48
:101BE0008A8180937901F8018481813051F028F055
:101BF000823061F4409179010AC08091790140E01E
:101C000007C06091790140E080E003C040E080E0DF
:101C100060E00E94830DF801848190E0019663E00A
:101C200070E00E94A12B84830F900F900F90DF91A2
:101C3000CF911F910F910895AF92BF92CF92DF92F3
:101C4000EF92FF920F931F93CF93DF9300D01F92D9
:101C5000CDB7DEB7182FF62E042FE22E9091340266
:101C600090FF6DC0E92FE695AE2FB0E0A75CBE4FA8
:101C70008C91809385019E7F923061F49E012F5F4D
:101C80003F4F812F0E94EE0C4B8169818A810E9417
:101C9000830D43C0823019F4009137023EC0863074
:101CA00019F41091350239C08930D9F38931A9F579
:101CB000E9518E2F8170D82EE695F0E0E456F94F69
:101CC000A590B490C12CBB2460910301C61618F5F1
:101CD0002C2D30E0A29EC001A39E900DB29E900DCF
:101CE000112470E00E948D2B812FD11002C0860F2D
:101CF00001C0861B90917C01290F311DA901440F61
:101D0000551F240F351F275C3D4F402F6F2D0E941C
:101D1000EE0CC394D9CF0E945E0D10933502F09261
:101D2000360200933702EE2051F060913402709138
:101D3000350280913602909137020E94130D0F9068
:101D40000F900F90DF91CF911F910F91FF90EF9027
:101D5000DF90CF90BF90AF900895E4E3F2E09181DF
:101D6000282F4381628188E0890F0C941C0E81E04A
:101D70000C94AD0EE4E3F2E09181282F438162815F
:101D800088EF890F0C941C0E81E00C94BA0EE4E3EA
:101D9000F2E0628128E0620F08F46FEF282F4381A0
:101DA00081810C941C0E81E00C94C70EE4E3F2E0F8
:101DB000628128E0621B08F460E0282F4381818162
:101DC0000C941C0E81E00C94D60EE4E3F2E0438107
:101DD00028E0420F08F44FEF282F628181810C9494
:101DE0001C0E81E00C94E50EE4E3F2E0438128E070
:101DF000421B08F440E0282F628181810C941C0E64
:101E000081E00C94F40E20E00C941C0EFF920F93D2
:101E10001F93CF93DF93EC01F12C0FEF10E0609153
:101E20000301F616F0F480917C012F2D30E0280F8D
:101E3000311DC901880F991F280F391F275C3D4F9D
:101E400070E0C8010E94A12B962F8C81409137022F
:101E500060913602F99E800D11240E94EE0CF394DD
:101E6000DECF0E945E0D9A818C8190FF02C08F5F51
:101E700001C081508C83DF91CF911F910F91FF9012
:101E80000895BF92CF92DF92EF92FF920F931F932C
:101E9000CF93DF93FC01828180FF02C00FEF01C06E
:101EA00001E010E0809103011817E0F580917C01BA
:101EB000C12ED12CE601C80FD11DCE01880F991F6C
:101EC000C80FD91FC75CDD4F198218821A8234E00F
:101ED000E32EF12CB12C80917B018B0D87FF03C089
:101EE00090910301890F082E000C990BC816D90692
:101EF00091F4809137028E9DA0018F9D500D112489
:101F000055954795559547959E016091360280916C
:101F100035020E94EE0CB00EF1E0EF1AF108D9F68E
:101F20001F5FC0CF0E945E0D80917B01013031F4B4
:101F3000811102C080910301815007C090E0019699
:101F40006091030170E00E94A12B80937B01DF91DF
:101F5000CF911F910F91FF90EF90DF90CF90BF90A6
:101F60000895CF9380917C0190910401891770F4BA
:101F7000E82FF0E09F01220F331FE20FF31FE75C11
:101F8000FD4F1182108212828F5FF0CFC0E060910E
:101F90000301C617C0F5EC2FF0E070E0CF010E94FE
:101FA000A12B20917C01820F20917A01022E000C3E
:101FB000330B90E0E217F307CCF020910201022EE0
:101FC000000C330B2E173F078CF09C01220F331FA0
:101FD000820F931F9C01275C3D4F40913702609117
:101FE0003602809135020E94EE0C0BC0FC01EE0F10
:101FF000FF1F8E0F9F1FFC01E75CFD4F11821082B7
:102000001282CF5FC4CF0E945E0D209101018091AA
:102010007A01820F80937A0190910201920F90933E
:10202000020119165CF4082E000C990B4091030173
:1020300050E041505109841795071CF021952093D9
:102040000101CF9108950F931F93CF93DF938C01DC
:10205000FC01848195810196817099279583848301
:10206000C0E0D5E580910301C81700F580917C019F
:102070002C2F30E0280F311DC901880F991F280F20
:10208000391F275C3D4F4C2F4695F801848195817F
:10209000840F911D817040913702609136028D9FAF
:1020A000802D11240E94EE0CCF5FDCCFDF91CF9109
:1020B0001F910F910C945E0D0F931F93CF93DF939D
:1020C000EC0100E010E080910301282F30E00217BE
:1020D000130724F590917C019801290F311DA90166
:1020E000440F551F240F351F275C3D4F869590E008
:1020F0004C81081719071CF4442331F002C0411128
:1021000003C04091370201C040E0609136028091E7
:1021100035020E94EE0C0F5F1F4FD5CF0E945E0D5F
:102120008C8190E00196817099278C83DF91CF910B
:102130001F910F910895E4E3F2E080818E7F808308
:1021400060817181828193810E94130D10928601BA
:102150002FEF80E792E0215080409040E1F700C0EF
:1021600000000C945E0DE4E3F2E080818E7F8083BA
:10217000109286012FEF80E792E02150804090403E
:10218000E1F700C000000C945E0D6091340266958A
:1021900070E04BE050E086E091E00E94F72B892B45
:1021A00019F481E0809386010E94E92090937F01D9
:1021B00080937E0108959091340290FF35C0917014
:1021C000811102C0926006C0853210F0986402C08E
:1021D000880F982B90933402662351F0609134025B
:1021E0007091350280913602909137020E94130D52
:1021F00060913402669570E04BE050E086E091E03B
:102200000E94F72B892B19F01092860102C00E94C0
:10221000C51081E0809381014091370260913602C0
:10222000809135020C94030F0895682F9091340229
:10223000969581E0890F853208F081E00C94DB10DF
:1022400081E00C941511682F9091340296958FEFD0
:10225000890F09F484E20C94DB1081E00C942311C3
:1022600061E00C94DB10E4E3F2E080818160808324
:1022700086950C9430118091340280FD0C949B1053
:102280000C94331160E00C94DB1080918401811177
:1022900033C080911B02816080931B020E94781FD3
:1022A000811104C00E9400200E94250D0E940F0D84
:1022B0006093340270933502809336029093370214
:1022C0006E7F61F40E94250D0E940F0D6093340211
:1022D0007093350280933602909337020E94FC0C73
:1022E000109286018091340280FF03C086950E947F
:1022F000421181E0809384010895E4E3F2E080815B
:102300008160808386950C94421110928601089515
:102310000F931F93CF93DF9380918601882309F455
:102320008CC080918501E0913402E695E81BE09332
:102330008001823049F4F0E0E856FA4FE491CE2F64
:10234000D0E008EB1DE049C0863049F4F0E0EB56E0
:10235000FA4FE491CE2FD0E00CEC1DE03EC0893066
:1023600051F4E695F0E0EE56FA4FE491CE2FD0E02E
:1023700006E01FE032C08F3051F4E695F0E0E157FF
:10238000FA4FE491CE2FD0E001E41FE026C0853162
:1023900049F4F0E0E457FA4FE491CE2FD0E001EB9E
:1023A0001FE01BC0883181F0833239F4EAE8F5E0A0
:1023B000C591D4910CED1DE010C0843251F4C4EFEE
:1023C000D1E00CE510E109C0C8EED3E003E210E172
:1023D00004C0C0EDD7E00DEE1CE0809181018823A0
:1023E00089F0109281010E94E9209E01209530958C
:1023F000820F931F90937F0180937E01109283013F
:102400001092820180917E0190917F010E94F520BF
:102410008C179D0790F0E0917E01F0917F01CE0F27
:10242000DF1FD0937F01C0937E018EE791E0F8011A
:10243000DF91CF911F910F910994DF91CF911F915F
:102440000F9108952EB1342F309523233EB1432BA5
:102450003FB7F894FC01680F791FE617F70789F07A
:10246000819198E04EB9000000C087FF2EB9880F17
:10247000000000C000C000C02EB900C09A9591F7BE
:10248000ECCF3FBF08952DB1242B2DB99B01220F16
:10249000331F620F731F0E94221287EC90E0019796
:1024A000F1F700C00000089544E00C9443120F932C
:1024B0001F93CF93DF93C62FD42F122FFC0182815D
:1024C0008823C9F0609389010E94E92090938801D4
:1024D0008093870180E28C0F883008F057C0C77066
:1024E00081E001C0880FCA95EAF7DF91CF911F9173
:1024F0000F910C94101680918901681330C080915F
:102500008701909188010E94F520883C910538F55B
:1025100000E20D0FCD17B9F080E28C0F883040F447
:10252000C77081E001C0880FCA95EAF70E941716AC
:10253000083028F581E09D2F977001C0880F9A958B
:10254000EAF70E941016812F0E94FD150830F0F462
:10255000D77081E001C0880FDA95EAF70AC080E2FF
:102560008C0F883098F4C77081E001C0880FCA953D
:10257000EAF7DF91CF911F910F910C941716812FDD
:10258000DF91CF911F910F910C94FD15DF91CF91A9
:102590001F910F9108959C01CB01203F4CE534071A
:1025A000F9F078F4283DFCE53F07B9F0293D4CE50A
:1025B000340711F1273D3C4531F526E241EE61EE4D
:1025C0001EC0223FFCE53F0799F070F0233F3C45D9
:1025D000D1F427E245EE66EE12C027E245EE0EC0CA
:1025E00026E241EE60EE0BC027E245EE64EE07C046
:1025F00026E241EE62EE03C028E241E065EE0E9471
:10260000571280E00895FC018281882319F010920E
:102610008901089581E0089590938F0180938E0140
:102620000895E0918E01F0918F01309721F0019093
:10263000F081E02D099480E00895E0918E01F09101
:102640008F01309721F00280F381E02D09940895E5
:10265000E0918E01F0918F01309739F022E0DC019A
:102660002C930480F581E02D0994089520918C012C
:1026700030918D012817390771F090938D01809367
:102680008C01E0918E01F0918F01309721F006804E
:10269000F781E02D0994089520918A0130918B01F2
:1026A0002817390771F090938B0180938A01E0918C
:1026B0008E01F0918F01309721F00084F185E02D9B
:1026C0000994089585B7806885BF85B7806885BF00
:1026D000089508950C9469130C946A130C9469136B
:1026E0000C9469130E9462130E946E130C946C1375
:1026F00081E008950E94E0200E942D0B0E94692134
:102700000E94A3230E9445110C9470135F926F9254
:102710007F928F929F92AF92BF92CF92DF92EF9271
:10272000FF920F931F93CF93DF93CDB7DEB72A9716
:102730000FB6F894DEBF0FBECDBF0E947A0B0E9489
:102740007813811111C08FEF89838A831B820E94C5
:10275000E9208160782F9D838C8349815A816B8128
:102760008D810E94431456C091E9692E91E0792E23
:1027700000E010E088248394912C502E802F0E943A
:10278000230B6C01F301A190B1903F01A826B9265B
:10279000A114B10431F40F5F1F4F0530110569F723
:1027A000D2CF80911B0281FD0E942C0B80E090E033
:1027B0007401082E02C0EE0CFF1C0A94E2F795018A
:1027C0002E213F21232B09F18E835F82CE20DF2033
:1027D00081E0CD2809F480E088870E94E9208160AB
:1027E000782F9A8789874E815F8168858A850E94C4
:1027F0004314000F111FF801EF56FE4F80819181A5
:10280000E826F926F182E08205C001968031910523
:1028100079F6C1CF0E94FC220E9411139091900181
:102820008917D9F00E941113809390012A960FB650
:10283000F894DEBF0FBECDBFDF91CF911F910F91F6
:10284000FF90EF90DF90CF90BF90AF909F908F90D0
:102850007F906F905F900C9456062A960FB6F8946E
:10286000DEBF0FBECDBFDF91CF911F910F91FF90C3
:10287000EF90DF90CF90BF90AF909F908F907F9020
:102880006F905F900895CF93DF93CDB7DEB72B970E
:102890000FB6F894DEBF0FBECDBF4F835887698750
:1028A0007A878B87DE01119686E0FD0111928A9569
:1028B000E9F785E0FE01379601900D928A95E1F7E0
:1028C00049815A816B817C818D819E810E94AE1BE2
:1028D0002B960FB6F894DEBF0FBECDBFDF91CF9120
:1028E0000895FC01808191810E94821E08958823B1
:1028F00009F41AC18238C1F40E94111381FD14C178
:1029000069E380911101909112010E9435200E948B
:102910000F1F2FEF81EE94E0215080409040E1F7AF
:1029200000C0000069E319C08338F9F40E94111354
:1029300080FDFAC063E580911101909112010E941F
:1029400035200E940F1F2FEF81EE94E02150804030
:102950009040E1F700C0000063E580911101909183
:1029600012010E9437200C940F1F8438C1F40E947A
:10297000111382FDD9C067E4809111019091120179
:102980000E9435200E940F1F2FEF81EE94E021500E
:1029900080409040E1F700C0000067E4DECF9CEF8C
:1029A000980F913A40F4682F809111019091120193
:1029B0000E943520D8CF90E2980F983050F487705D
:1029C00091E001C0990F8A95EAF7892F0E94C41EF1
:1029D000CACF9BE5980F933070F4853A29F0863A78
:1029E00031F083E890E005C081E890E002C082E821
:1029F00090E00C94361398E5980F973108F08EC04C
:102A0000883A09F445C0893A09F445C08A3A09F47C
:102A100045C08B3A09F445C08C3A09F445C08B3B5C
:102A200009F445C08C3B09F445C08D3A09F445C012
:102A3000803B09F445C08E3A09F445C08F3A09F449
:102A400045C0813B09F445C0823B09F445C0833B46
:102A500009F445C0843B09F445C0853B09F445C0F1
:102A6000863B09F445C0873B09F445C0883B09F41F
:102A700045C0893B09F445C08D3B09F445C08E3BF8
:102A800009F445C08A3B09F445C080E090E044C0A9
:102A900082EE90E041C089EE90E03EC08AEE90E088
:102AA0003BC085EB90E038C086EB90E035C083EB0F
:102AB00090E032C084EB90E02FC087EB90E02CC018
:102AC0008CEC90E029C08DEC90E026C083E891E08A
:102AD00023C08AE891E020C082E991E01DC084E92A
:102AE00091E01AC081E292E017C083E292E014C044
:102AF00084E292E011C085E292E00EC086E292E0AC
:102B00000BC087E292E008C08FE690E005C080E746
:102B100090E002C08AE292E00C944C13803F20F0D7
:102B20000E9404220C94F1220895882309F464C0C1
:102B3000823879F40E94111381FF5EC069E38091AD
:102B40001101909112010E9435200E940F1F69E32C
:102B500010C08338B1F40E94111380FF4DC063E5AB
:102B600080911101909112010E9435200E940F1F47
:102B700063E580911101909112010E9437200C941D
:102B80000F1F843879F40E94111382FF35C067E467
:102B900080911101909112010E9435200E940F1F17
:102BA00067E4E7CF9CEF980F913A10F4682FE1CFDC
:102BB00090E2980F983050F4877091E001C0990F1F
:102BC0008A95EAF7892F0E94CA1ED9CF9BE5980FF4
:102BD000933020F480E090E00C94361398E5980F41
:102BE000973120F480E090E00C944C13803F20F06B
:102BF0000E946C220C94F1220895CF93C82F0E945A
:102C00007714C93349F42FEF83EC99E021508040C9
:102C10009040E1F700C000008C2FCF910C949515E7
:102C2000882321F00E94C41E0C940F1F089588234E
:102C300021F00E94CA1E0C940F1F08958F929F923C
:102C4000AF92BF92DF92EF92FF920F931F93CF93B9
:102C5000DF937C01062FC72FFC01158112951F7091
:102C6000D281D1110E94E11E0E94BA1E882379F000
:102C7000DD2369F080E2800F883048F082E00E9416
:102C8000591F0E94BA1E91E0D82ED92601C0D12C1E
:102C9000BC2EB2948FE0B8228B2D90E0FC01E85955
:102CA000FF4F0C94D72B8C2F807FCF70882311F08F
:102CB000C295C07FDD2399F0CC2309F4BAC180E22C
:102CC000800F883010F0011104C08C2F0E94C41EA8
:102CD00003C08C2F0E94D41E0E940F1FAAC1802FF8
:102CE0000E949515CC2309F4EAC180E2800F883058
:102CF00010F0011104C08C2F0E94CA1E03C08C2F3B
:102D00000E94DA1E0E940F1FDAC18C2F807FCF70C5
:102D1000803211F0C295C07F002319F00130C9F054
:102D200022C0DD2371F0112341F0113031F40E94F3
:102D3000F41E8C2B0E94FC1EC2C10E94F41E8C2B20
:102D400030C1112319F0113009F4B9C10E94051FD7
:102D500018C0DD2321F0163008F0B1C10EC01530C7
:102D600008F0ADC10EC0DD2351F0112331F0F701A1
:102D7000858180FF5EC18F7085838C2F12C11111F8
:102D800069C18C2F14C18C2F86958695837019F09C
:102D9000813061F094C1DD2321F0802F9C2F93704E
:102DA00002C080E090E00E94361396C1DD2321F03E
:102DB000802F9C2F937002C080E090E00E944C1303
:102DC0008BC1DD23F9F0053F51F0063F71F0043F60
:102DD000A9F480914B0290914C0281600BC08091CC
:102DE0004B0290914C02826005C080914B02909101
:102DF0004C02846090934C0280934B02802F0E947F
:102E000004221EC0053F51F0063F71F0043FA9F4B3
:102E100080914B0290914C028E7F0BC080914B02AF
:102E200090914C028D7F05C080914B0290914C0295
:102E30008B7F90934C0280934B02802F0E946C22D8
:102E40000E94F12249C18C2F837009F047C0D11133
:102E50003FC1202F229526952770220F220F602F29
:102E60006F70862F90E0A0E0B0E04C015D01022E73
:102E700004C0880C991CAA1CBB1C0A94D2F704FF3E
:102E800010C08FE090E0A0E0B0E004C0880F991F70
:102E9000AA1FBB1F2A95D2F780959095A095B09553
:102EA00003C080E090E0DC01C695C695C370BC010C
:102EB000CD01682979298A299B29C23049F058F423
:102EC000C13019F00E94FF1C03C10E94ED1C00C11B
:102ED0000E94111DFDC00E94EB1CFAC0DD2319F0F9
:102EE0008C2F817001C08695882309F4F1C0202FB2
:102EF000229526952770220F220F602F6F70862F44
:102F000090E0A0E0B0E04C015D01022E04C0880C0E
:102F1000991CAA1CBB1C0A94D2F704FF10C08FE0B6
:102F200090E0A0E0B0E004C0880F991FAA1FBB1F6B
:102F30002A95D2F780959095A095B09503C080E032
:102F400090E0DC01C695C695C370BC01CD0168292F
:102F500079298A299B29C23049F058F4C13019F0E7
:102F60000E94C41DB5C00E94B21DB2C00E94D61DF1
:102F7000AFC00E94251DACC0802F90E0FC01E05E38
:102F8000F109E531F10508F050C0E858FF4F0C9405
:102F9000D72B0F708C2F8F71DD2331F00E944B1DCA
:102FA000802F0E9410168BC00E946C1D802F0E94E3
:102FB000171685C0DD2341F0153008F080C08C2F36
:102FC0008F710E94911D7BC0163008F078C0F7CF3A
:102FD000DD2339F08C2F8F710E944B1D70C0DD23D3
:102FE000C9F38C2F8F710E946C1D69C0DD2329F0FD
:102FF0008C2F8F710E94361D62C00E94311D5FC0F0
:10300000DD2349F0CF718C2F0E944B1D63E08C2F84
:103010000E94441F54C081E00E94591F123008F4DE
:103020004EC082E00E94591F4AC0DD2331F01123B7
:1030300089F2802F0E94771442C0112391F2093344
:1030400049F4FFEF23EC89E0F15020408040E1F7A4
:1030500000C00000802F0E94951531C04C2F4F708A
:10306000602FC7010E9472080E945C1C35C0D111FC
:1030700033C0CF70C23091F038F4CC2361F0C1304E
:10308000F1F40E94DD2328C0C43071F050F0C53047
:10309000B1F480E00AC00E94C0231EC00E941C241C
:1030A0001BC00E94232418C085E00E94462414C03F
:1030B0004C2F4F70602FC7010E9475080DC098E01B
:1030C000B91631F0B91640F086EF8B0D823020F43E
:1030D0000E9411130E945606DD20E1F00E94B61EE8
:1030E00080FD18C0F70112820E94B01E0E944B1D85
:1030F000C7010E9496180E94B01EDF91CF911F91C8
:103100000F91FF90EF90DF90BF90AF909F908F90C6
:103110000C946C1DDF91CF911F910F91FF90EF9058
:10312000DF90BF90AF909F908F9008950F931F9363
:10313000CF93DF93EC01988189812B813C81232BF4
:1031400031F08F3F31F481E09F3F19F403C081E0FB
:1031500001C080E080FD13C0CE010E946806882374
:1031600071F0688179818A810E948D1E8C010E9494
:10317000E81D0E94D91CB801CE010E941E16DF91E5
:10318000CF911F910F9108950E94E11E0E94F11EA0
:103190000E940F1F0E9497230E94F12280E090E07E
:1031A0000E94361380E090E00C944C138091110142
:1031B000909112010E9439200C94C4180E94D11ED3
:1031C0000C94D618E92FE295EF704E2F50E0FA01DB
:1031D0003297EE30F105B0F4E357FF4F0C94D72B44
:1031E000803F91F018F4803E68F40EC0843F51F4A3
:1031F0000BC0803E48F0813F29F406C093FB88272E
:1032000080F9089580E0089581E008950E94821E6B
:103210000E94E2180895CF93DF9300D000D01F9250
:10322000CDB7DEB70F900F900F900F900F90DF91FA
:10323000CF910895CF93DF9300D000D000D0CDB7C9
:10324000DEB726960FB6F894DEBF0FBECDBFDF9176
:10325000CF9108951F93CF93DF93C0919C0116E007
:1032600080919D01C81799F0D0E01C9FF0011D9F2F
:10327000F00D1124E256FE4F40815181628173812D
:10328000848195810E941A192196C770E9CFDF9138
:10329000CF911F9108954091CE015091CF0160913F
:1032A000D0017091D1018091D2019091D3010C9401
:1032B0001A19CF938091D30182958F7009F05FC066
:1032C0008091D001882309F45AC080919C01B0916B
:1032D0009D017091CE01A091CF014091D1015091FB
:1032E000D20191E07F3F09F090E0692FC6E08B1793
:1032F00009F445C04115510521F0AF3F21F020E010
:1033000003C021E001C0262F90E020FD35C0C89FFA
:10331000F001C99FF00D1124E256FE4F21812A13BE
:103320002BC02081271328C02281211125C0238191
:1033300034812417350710F421503109241B350B33
:10334000283C3105C8F42091D3012F7020612093CF
:10335000D30126E0289FF001299FF00D1124ED559F
:10336000FE4F80818F70806180838EEC91E00E949F
:103370009618CF910C942A1901968770B8CFCF91E7
:103380000895AF92BF92CF92DF92EF92FF920F9388
:103390001F93CF93DF93CDB7DEB761970FB6F89445
:1033A000DEBF0FBECDBF8C0185E0F801DE011D96AA
:1033B00001900D928A95E1F7D8014C9111965C919C
:1033C00011971296EC903091CE016091CF018091CF
:1033D000D1019091D201009731F06F3F31F421E09B
:1033E0003F3F19F403C021E001C020E0B22FB170CB
:1033F000BB2E20FD60C1F801C380D480A090D00115
:10340000AA2009F4EEC02091D301C816D90628F0ED
:10341000D601A81BB90BCD0104C0809590958C0DE9
:103420009D1DFF24F394883C910580F0F12C207FB2
:1034300009F09CC07C2DD98AC88A6E2D89890E948A
:103440000B198EEC91E00E9496182DC1822F807F7F
:1034500009F054C0561314C0431312C0FE2CE110DF
:103460000FC02F7020612093D3010E944B198EEC66
:1034700091E00E9496188091D301F80185835CC188
:10348000CD2831F05F3F31F481E04F3F19F403C0A4
:1034900081E001C080E080FD03C081E08E2502C094
:1034A00080E090E0F82FF170FF2E80FF1CC080912B
:1034B0009C0120919D0136E0821709F41AC190E029
:1034C000389FF001399FF00D1124E256FE4F6181C3
:1034D000561306C06081461303C06281E61203C022
:1034E00001968770E9CFFE2CEE2009F425C180916A
:1034F000D30181608093D301F12C1EC1561309C002
:10350000431307C0E11005C08091D301F801858302
:10351000A4C04D875E878D859E850E9406198823ED
:1035200079F1EE2069F12091D301822F82958F707D
:1035300090E0029774F08091CE019091CF0198872E
:103540008F831986DB86CA862C87CE0107960E9458
:10355000961886E0F801AEECB1E001900D928A95E4
:10356000E1F70E9459190E944B190DC0561771F0CE
:103570004D875E878D859E850E94061981111AC030
:10358000C8010E949618FF24F394D6C04313F0CFCD
:10359000E110EECF8091D301F8018583C8010E942C
:1035A000961886E0EEECF1E0DF011D928A95E9F7CE
:1035B000FA2CC2C0EE2021F32091D301822F8295F4
:1035C0008F7090E002972CF28091CE019091CF0104
:1035D0009A8389831B82DD82CC822E83CE01019661
:1035E000B6CFC816D90628F0F601E81BF90BCF01B3
:1035F00004C0809590958C0D9D1D883C910548F0E8
:10360000F12C7C2DD98AC88A6E2D89890E940B19CC
:103610004AC0FE2CEE2009F4B3CF561333C0431337
:1036200031C02091D30120FD24C0822F82958F705C
:10363000482F50E041155105E1F0D80115962C9323
:1036400015974F30510549F08F5F982F9295907FD5
:10365000822F8F70892B15968C93C8010E94961823
:1036600086E0F801AEECB1E001900D928A95E1F7A9
:103670003DC086E0F801AEECB1E001900D928A9574
:10368000E1F75AC04D875E878D859E850E94061999
:1036900081115FCF8091D30181608093D301C801F4
:1036A0000E94961849C0EEECF1E086E0DF011D9221
:1036B0008A95E9F71BC0EE2009F462CF4D875E873B
:1036C0008D859E850E940619F82E882309F458CF0F
:1036D00086E0F801AEECB1E001900D928A95E1F739
:1036E0008EEC91E00E9471140E9459190E944B19AE
:1036F00023C04D875E878D859E850E94821E292F5F
:1037000022952F70223028F49F7039F0811105C066
:103710000BC0243028F49F7049F4805E883020F07C
:10372000C8010E949618BF2CFB2C06C0D801159624
:103730009C91907F91F7F8CF8F2D61960FB6F894FA
:10374000DEBF0FBECDBFDF91CF911F910F91FF90D4
:10375000EF90DF90CF90BF90AF9008951F93CF93DD
:10376000DF93CDB7DEB72C970FB6F894DEBF0FBE50
:10377000CDBF4F83588769877A878B879C87CE0117
:1037800007960E94C1198823D1F09F8188852A85D8
:103790003B85232B31F08F3F31F481E09F3F19F4BB
:1037A00003C081E001C080E080FD47C04F815885A3
:1037B00069857A858B859C850E941A193EC086E0B2
:1037C000FE013796DE01119601900D928A95E1F780
:1037D000FF81E8856A857B856115710531F0EF3FD2
:1037E00031F481E0FF3F19F403C081E001C080E0C3
:1037F00080FD23C020919D0130E0C90101968770B2
:10380000992740919C0150E084179507F1F1F983C5
:10381000EA837D836C8396E0929FD001939FB00DE5
:103820001124A256BE4FFE01319601900D929A9539
:10383000E1F780939D010E942A1916E080919C0176
:1038400090919D01891771F1189FC0011124825632
:103850009E4F0E94C119882329F1E0919C011E9F6F
:10386000F0011124E256FE4F408151816281738143
:10387000848195810E941A1980919C0190E00196A3
:103880008770992780939C01D9CF0E94DE181092EF
:103890009D0110929C01EEECF1E086E0DF011D92AB
:1038A0008A95E9F72C960FB6F894DEBF0FBECDBF10
:1038B000DF91CF911F910895EF92FF920F931F9385
:1038C000CF93DF938C01892B09F46CC0F12CEE248B
:1038D000E394E8012196F8018491843740F4843020
:1038E00008F051C0813081F0823019F15BC085371A
:1038F00009F444C0A8F19CE7980F903708F052C033
:103900008F770E94951541C00E5F1F4FFE01849175
:1039100090E2980F983050F48770FE2D01C0FF0F91
:103920008A95EAF78F2F0E94E41E14C00E94771434
:103930002DC00E5F1F4FFE01849190E2980F9830CA
:1039400060F48770FE2D01C0FF0F8A95EAF78F2F74
:103950000E94EA1E0E940F1F19C00E94951516C0F2
:103960000E5F1F4FFE01C491CC2381F08FE99FE0D1
:103970000197F1F700C00000C150F6CF0E5F1F4F56
:10398000FE01F49003C00E9477148E018F2D8823CE
:1039900009F49FCFEFE9FFE03197F1F700C0000095
:1039A0008150F5CFDF91CF911F910F91FF90EF9054
:1039B0000895089508950C94DA1C0C94DB1C0E9461
:1039C000DD1C60930A0270930B0280930C029093AB
:1039D0000D020C94C4180C94DF1C0F931F930091DC
:1039E0000A0210910B0220910C0230910D02602B03
:1039F000712B822B932B1F910F910C94DF1C0F9333
:103A00001F9300910A0210910B0220910C02309139
:103A10000D0260237123822393231F910F910C9435
:103A2000DF1C0F931F9300910A0210910B0220914B
:103A30000C0230910D0260277127822793271F9176
:103A40000F910C94DF1C0C94DA1C0E94231D6093D0
:103A500006027093070280930802909309020C9467
:103A6000C41860E070E0CB010C94251D0F931F93E8
:103A700041E050E060E070E08A019B0104C0000F6B
:103A8000111F221F331F8A95D2F7C901B8011F9158
:103A90000F910C94251D0F931F9341E050E060E0BF
:103AA00070E004C0440F551F661F771F8A95D2F738
:103AB0008091060290910702A0910802B09109023C
:103AC0008A019B01082B192B2A2B3B2BC901B8011A
:103AD0001F910F910C94251D0F931F9341E050E00F
:103AE00060E070E004C0440F551F661F771F8A9581
:103AF000D2F740955095609570958091060290910F
:103B00000702A0910802B09109028A019B010823D3
:103B100019232A233B23C901B8011F910F910C944B
:103B2000251D0F931F9341E050E060E070E004C05A
:103B3000440F551F661F771F8A95D2F780910602A2
:103B400090910702A0910802B09109028A019B019D
:103B5000082719272A273B27C901B8011F910F9170
:103B60000C94251D0F931F930091060210910702DC
:103B70002091080230910902602B712B822B932B2C
:103B80001F910F910C94251D0F931F930091060216
:103B900010910702209108023091090260237123DD
:103BA000822393231F910F910C94251D0F931F9334
:103BB000009106021091070220910802309109023B
:103BC00060277127822793271F910F910C94251D41
:103BD000089520E1929F800D1124E82FE695E69547
:103BE000E695877051E001C0550F8A95EAF785E0A8
:103BF000E89FF0011124EC52FE4F20E030E070E02D
:103C00004081CB01022E02C0969587950A94E2F777
:103C10008170819584278523842781932F5F3F4F6F
:103C20002530310569F7089520E1929F800D112418
:103C3000682F669566956695982F977085E0689FC2
:103C4000B001112440E050E080E0FB01E40FF51FDB
:103C5000EC52FE4F208130E0092E02C036952795A8
:103C60000A94E2F721703327042E01C0220F0A9430
:103C7000EAF7822B4F5F5F4F4530510531F70895CA
:103C8000BF92CF92DF92EF92FF920F931F93CF9349
:103C9000DF938C01C0900602D0900702E0900802EA
:103CA000F090090280910A0290910B02A0910C02FF
:103CB000B0910D02C82AD92AEA2AFB2ACFE1D0E026
:103CC000D701C6010C2E04C0B695A7959795879588
:103CD0000A94D2F780FD04C0219790F7B12C07C059
:103CE000BC2EB8018C2F0E9493080197A9F38B2D4D
:103CF000DF91CF911F910F91FF90EF90DF90CF90C8
:103D0000BF900895CF93DF93EC010E94401EBE0147
:103D10000E949308DF91CF9108951F93CF93DF9373
:103D2000EB0190919B01992321F0CB010E94821E0F
:103D300013C0882349F0CB010E94401E182F682F22
:103D4000CE010E94E91D04C0CB010E94141E182F51
:103D5000BE01812F0E949308DF91CF911F9108959A
:103D600080910E02859585958595089580910E0226
:103D70008770089590910E02977081E009F480E0B9
:103D8000089580911A02089590911A02892B8093C8
:103D90001A020895809590911A02892380931A023D
:103DA000089510921A02089590911902892B809318
:103DB0001902089580959091190289238093190220
:103DC000089510921902089590911802892B8093FA
:103DD0001802089580959091180289238093180203
:103DE000089510921802089580910F020895089581
:103DF0000C94F71E0C94F81E90910F02981721F066
:103E000080930F020C94FA1E089580910F0288236C
:103E100029F010920F0280E00C94FA1E0895E091B0
:103E20001101F091120180911A028083E091110139
:103E3000F0911201908180911902892B8083E09189
:103E40001101F0911201908180911802892B8083D9
:103E500080910F02882381F0E0911101F09112010D
:103E60009081892B808380911101909112010E9491
:103E7000022081110E94051F809111019091120171
:103E80000C941D130C94F71E98E0899F9001112447
:103E9000262B20930E020E944B1D80910E028595C9
:103EA000859585950C94421F10920E0280E00C942B
:103EB000421F20910E028095822380930E02982F3C
:103EC000977079F430E0482F082E000C550B24171A
:103ED000350739F08595859585950E946C1D0C9464
:103EE000541F08956FEF7FEF80E090E00C94362C24
:103EF00080E090E00E94122C21E08D3E9E4F09F060
:103F000020E0822F089582E090E00C94042C83E05E
:103F100090E00C94042C682F83E090E00C94182C13
:103F200084E090E00C94042C682F84E090E00C94E2
:103F3000182C86E090E00C94042C682F86E090E02A
:103F40000C94182CAB01BC018FE090E00C942A2C4F
:103F5000AB01BC0183E190E00C942A2C60E070E09E
:103F6000CB010C94A81F60E070E0CB010E94A21F5F
:103F70000C94AE1F6DEE7EEF80E090E00E94362C38
:103F800060E082E090E00E94182C60E083E090E026
:103F90000E94182C10920A0210920B0210920C022E
:103FA00010920D0260E084E090E00E94182C60E026
:103FB00085E090E00E94182C60E086E090E00E948E
:103FC000182C6FEF87E090E00E94182C40E050E042
:103FD000BA0188E090E00E942A2C60E08DE090E039
:103FE0000E94182C40E050E0BA0188E190E00E9465
:103FF0002A2C60E087E190E00E94182C0C94B31FFB
:104000000C94BA1FFC01329697E080E0915029F0A1
:1040100021912223D9F38F5FF9CF08959C01FC01F0
:1040200032969FEF80E04191461789F09F3F19F447
:10403000411101C0982F8F5F8630A9F79F3F39F05B
:10404000F901E90FF11D97FDFA956283089508952E
:104050009C012A5F3F4FFC014281461301C012823E
:10406000019682179307B9F708950C940E200C94CB
:104070002820029626E0FC0111922A95E9F708957E
:1040800008950C9440200C944020CF930E9443202C
:104090000E947A0B0E944120C0E08C2F0E94230BCB
:1040A000892B29F4CF5FC530C1F780E001C081E0E2
:1040B000CF9108950C9440200C945A200E945C20CB
:1040C00080915802843009F43CC010921C0220E414
:1040D00088E190E00FB6F894A895809360000FBE39
:1040E0002093600080E00E94870580E00E945606D1
:1040F0000E94851180911D0281110AC081E0809388
:104100001D0280913402817080931E020E94B310C0
:104110000E945C2083B7817F846083BF83B7816006
:1041200083BF7894889583B78E7F83BF0FB6F8944A
:10413000A895809160008861809360001092600073
:104140000FBE08950C9440200E94DE180E94A32305
:104150000E9411130E94560610921D0280911E02A9
:1041600081110E947D110E94C5100C94A2201F9203
:104170000F920FB60F9211248F939F93AF93BF931B
:1041800080911C02811113C080914D0290914E02CA
:10419000A0914F02B09150024196A11DB11D809394
:1041A0004D0290934E02A0934F02B0935002BF91E4
:1041B000AF919F918F910F900FBE0F901F90189508
:1041C00082E084BD93E095BD9AEF97BD80936E0029
:1041D00008952FB7F89480914D0290914E02A091CE
:1041E0004F02B09150022FBF0895CF92DF92EF920D
:1041F000FF920F931F932FB7F89440914D02509167
:104200004E0260914F02709150022FBF6A017B01F4
:10421000EE24FF248C0120E030E0C016D106E20637
:10422000F30610F4415051099A01281B390BC901BA
:104230001F910F91FF90EF90DF90CF9008957894A9
:104240001F920F920FB60F9211248F939F93AF93EB
:10425000BF9380914D0290914E02A0914F02B09178
:1042600050020196A11DB11D80934D0290934E0204
:10427000A0934F02B0935002BF91AF919F918F9145
:104280000F900FBE0F901F90189581E08093E00073
:1042900080E28093D8001092C9008FE19EE40197DC
:1042A000F1F700C0000087E090EBDC018093610231
:1042B00090936202A0936302B09364029CE088E151
:1042C0000FB6F894A895809360000FBE909360009D
:1042D000FFCF0E94781F811102C00E9400200E941F
:1042E000831F80931B020E94901F90E090935202C4
:1042F000809351020E94871F682F70E080E090E059
:104300000C94EB1C8091220280FF0BC0609116017F
:1043100085E0689FB001112475956795759567953F
:104320002BC081FF09C06091160185E0689FB00134
:1043300011247595679520C082FF07C06091160112
:1043400085E0689FB001112417C090912102992344
:10435000D1F060911501961788F72091160185E03C
:10436000289F90011124929FA001939F500D11242A
:1043700070E0CA010E94A12B6038710540F46115FC
:10438000710519F406C065E070E0862F08958FE787
:10439000089581E008958091220280FF08C0609115
:1043A000140170E0759567957595679521C081FF3B
:1043B00006C06091140170E07595679519C082FF81
:1043C00004C06091140170E010C090912102992303
:1043D00099F0609113019617A0F780911401899FBD
:1043E000C001112470E00E94A12B6038710540F4D7
:1043F0006115710519F406C061E070E0862F08951B
:104400008FE7089581E00895803F21F40E94822182
:10441000819504C0813F29F40E9482218093260265
:104420000895823F21F40E948221819504C0833F38
:1044300029F40E948221809325020895893F19F46E
:104440000E94CB2105C08A3F31F40E94CB21819587
:104450008093270208958B3F21F40E94CB21819500
:1044600004C08C3F29F40E94CB2180932802089538
:10447000843F21F480912402816017C0853F21F49C
:1044800080912402826011C0863F21F48091240231
:1044900084600BC0873F21F480912402886005C0AE
:1044A000883F31F480912402806180932402089532
:1044B0008D3F21F48091220281600BC08E3F21F458
:1044C00080912202826005C08F3F29F480912202F0
:1044D0008460809322020895803F39F480912602FF
:1044E00087FF6CC01092260269C0813F29F4809139
:1044F00026021816BCF362C090912502823F29F46F
:1045000097FF5CC01092250259C0833F19F4191619
:10451000CCF354C0893F41F48091270218160CF067
:104520004DC0109227024AC08A3F29F48091270289
:1045300087FF44C0F6CF8B3F39F48091280287FF74
:104540003DC0109228023AC08C3F29F48091280285
:104550001816BCF333C0843F21F4809124028E7F6F
:1045600017C0853F21F4809124028D7F11C0863FC2
:1045700021F4809124028B7F0BC0873F21F480912E
:104580002402877F05C0883F31F4809124028F7E0A
:104590008093240213C08D3F21F4809122028E7FEC
:1045A0000BC08E3F21F4809122028D7F05C08F3F8A
:1045B00029F4809122028B7F809322028091250230
:1045C00081110EC08091260281110AC080912702BC
:1045D000811106C080912802811102C0109221022F
:1045E000089583E292E00E9428130E94E9209093AC
:1045F000200280931F0208951F93CF93DF93809131
:104600001F02909120020E94F520AC01909121029E
:10461000992321F02091170130E006C02091180164
:104620008AE0289F900111244217530708F47BC0A9
:1046300080912502C0912602D09127021091280274
:10464000811107C0C1116BC0D11169C0111167C0C0
:104650006AC09F3F19F09F5F90932102181624F4BF
:104660000E948221809325028091250287FF05C048
:104670000E9482218195809325021C1624F40E94B9
:104680008221809326028091260287FF05C00E9426
:104690008221819580932602309125023323E1F017
:1046A000209126022223C1F045EB3403C0011124DE
:1046B000992319F09093250203C081E0809325028D
:1046C00035EB2303C0011124992319F0909326029E
:1046D00003C081E0809326021D1624F40E94CB21A2
:1046E000809327028091270287FF05C00E94CB217B
:1046F000819580932702111624F40E94CB21809388
:1047000028028091280287FF05C00E94CB21819555
:1047100080932802DF91CF911F910C94F1229F3F4B
:1047200009F099CFAACFDF91CF911F910895E3E2CD
:10473000F2E086E0DF011D928A95E9F710922102EE
:104740001092220208950E94781F811102C00E94D7
:1047500000200E94991F80935302282F269530E055
:104760002630310524F081708A6080935302809155
:10477000530280FF02C0869501C080E00C9487053B
:1047800020915302822F8695482F50E045305105E5
:1047900044F48F5F982F990F822F8170892B80931B
:1047A0005302809153028160809353020E949D1FA7
:1047B0008091530286950C94870580915302982F1F
:1047C000969591F09158990F8170892B809353029F
:1047D0008E7F91E009F490E08091530290FB80F984
:1047E000809353020E949D1F8091530286950C94E2
:1047F00087058091530280FD11C081608093530230
:10480000813019F483E080935302809153020E9417
:104810009D1F8091530286950C9487050895809181
:10482000530280FF08C08E7F809353020E949D1F19
:1048300080E00C94870508958091530280FD0C94CC
:104840000F240C94F92390915302892F86958F5F42
:104850008F779170863028F4880F892B80935302CC
:1048600002C090935302809153028E7F91E009F42D
:1048700090E08091530290FB80F9809353020E9454
:104880009D1F8091530286950C948705863008F011
:1048900085E0880F909153029170892B8093530289
:1048A0008E7F91E009F490E08091530290FB80F9B3
:1048B000809353020E949D1F8091530286950C9411
:1048C000870580915302869508958091310208955D
:1048D0000F931F93CF93DF9300D01F92CDB7DEB716
:1048E0008C010E94C226823011F0843021F584E0D0
:1048F00089831B830A8382E08093E9008FEF909184
:10490000E800815095FD06C095ED9A95F1F70000FD
:104910008111F5CF8091E80085FF0DC040E050E0A7
:1049200063E070E0CE0101960E94DF268091E800EE
:104930008E778093E8000F900F900F90DF91CF91CA
:104940001F910F910895CF93DF9300D01F92CDB7A1
:10495000DEB720915802243031F523E029838058B6
:1049600091099B838A8382E08093E9008FEF909185
:10497000E800815095FD06C095ED9A95F1F700008D
:104980008111F5CF8091E80085FF0DC040E050E037
:1049900063E070E0CE0101960E94DF268091E8007E
:1049A0008E778093E8000F900F900F90DF91CF915A
:1049B0000895CF93DF93EC010E94C226823011F05C
:1049C0008430F9F482E08093E9008FEF9091E80061
:1049D000815095FD06C095ED9A95F1F70000811183
:1049E000F5CF8091E80085FF0CC040E050E066E024
:1049F00070E0CE010E94DF268091E8008E778093E0
:104A0000E800DF91CF910895CF93DF93EC010E94EE
:104A1000C226823011F0843039F581E08093E900BC
:104A20008FEF9091E800815095FD06C095ED9A9525
:104A3000F1F700008111F5CF8091E80085FF14C0E7
:104A400040E050E068E070E0CE010E94DF268091F7
:104A5000E8008E778093E80088E0FE01A9E2B2E0EA
:104A600001900D928A95E1F7DF91CF9108958091A1
:104A70005702811109C00E9470280E94CD288091A0
:104A8000E20084608093E200089510925702089536
:104A9000089508950C94A42042E061EC81E00E9406
:104AA000E92742E261EC82E00C94E92780915A0206
:104AB000833009F460C030F4813071F0823009F441
:104AC00099C008958A3009F485C08B3009F46BC011
:104AD000893009F0A7C020C080915902813A09F0BD
:104AE000A1C08091E800877F8093E80080915D02FB
:104AF00090915E02892B21F468E089E292E003C084
:104B000060E080E090E070E00E942A278091E80059
:104B10008B778093E800089580915902813209F0E3
:104B200081C080915D0290915E02029708F07AC088
:104B30008091E800877F8093E8008091E80082FD03
:104B400005C0809158028111F8CF6CC02091F3000C
:104B50008091F20090E0922B029729F48091F1006D
:104B60008B7F813021F48091F1008093310280911C
:104B7000E8008B7753C080915902813A09F052C006
:104B800080915D0290915E02892B09F04BC080916B
:104B9000E800877F8093E8008091E80080FFFCCFE9
:104BA0008091230136C0809159028132D9F58091DC
:104BB0005D0290915E02892BA9F58091E800877FC4
:104BC0008093E8000E941E2880915B02809323015D
:104BD0000C94DE1880915902813221F58091E80011
:104BE000877F8093E8000E941E2880915C0280935A
:104BF0003202089580915902813AA1F48091E8002F
:104C0000877F8093E8008091E80080FFFCCF80914F
:104C100032028093F1008091E8008E778093E80063
:104C20000C941E28089584B7877F84BF0FB6F8942C
:104C3000A895809160008861809360001092600068
:104C40000FBE80E880936100109261000E94721391
:104C50000E9470280E94CD288091E2008460809399
:104C6000E20078940E94622B0E947A1389E191E01D
:104C70000E940C1380915802853069F40E945E20D6
:104C8000809156028823B1F30E944520882391F336
:104C90000E94C926EFCF0E9486130E948811EACF96
:104CA0000C945226292F332723303105C9F060F4A4
:104CB0002130310581F02230310509F04AC08BE303
:104CC00090E027ED37E049C02132310511F1223261
:104CD000310579F13EC082E190E022E138E03DC04B
:104CE00099278130910561F040F08230910559F0AB
:104CF000039779F5E1EAF7E008C0E3EDF7E005C0D6
:104D0000E9EBF7E002C0E7EAF7E0849190E09F0169
:104D100024C06115710541F061307105D1F489E05D
:104D200090E022E038E019C089E090E029EE37E019
:104D300014C06115710541F06130710551F485E8C9
:104D400090E024E238E009C080E490E029EA38E00D
:104D500004C080E090E020E030E0FA01318320835D
:104D600008950895CF93C82F0E94B126C0933302AF
:104D7000CF91089580915802843011F081E0089518
:104D800082E0089580913302811102C00C94BA260A
:104D9000089580E189BD82E189BD09B400FEFDCF9F
:104DA0008091D8008F7D8093D8008091E000826050
:104DB0008093E0008091E00081FDFCCF0895CF92C8
:104DC000DF92EF92FF920F931F93CF93DF93EC014B
:104DD0008B017A010E943D28811133C0E114F10456
:104DE00039F0F70180819181081B190BC80FD91F79
:104DF000C12CD12C0115110519F18091E80085FD18
:104E000016C08091E8008E778093E800E114F104E9
:104E100049F0F70180819181C80ED91ED182C082EC
:104E200085E00FC00E943D28882321F30AC08991A4
:104E30008093F10001501109FFEFCF1ADF0ADACF9A
:104E400080E0DF91CF911F910F91FF90EF90DF9065
:104E5000CF90089520915F023091600226173707A6
:104E600048F06115710539F42091E8002E77209300
:104E7000E80001C0B901FC0120E06115710579F17C
:104E8000809158028823F1F18530F1F18091E8009A
:104E900083FD3CC08091E80082FD2EC08091E80037
:104EA00080FFEBCF2091F3008091F20090E0922BF5
:104EB0006115710551F08830910538F421912093E6
:104EC000F100615071090196F3CF21E0089709F0D4
:104ED00020E08091E8008E778093E800CECF21110A
:104EE000CFCF0AC080915802882361F0853061F0ED
:104EF0008091E80083FD0AC08091E80082FFF2CF34
:104F000080E0089582E0089583E0089581E00895A7
:104F100020915F02309160022617370748F0611533
:104F2000710539F42091E8002E772093E80001C044
:104F3000B901FC0120E06115710591F180915802E1
:104F4000882309F440C0853009F43FC08091E8000F
:104F500083FD3DC08091E80082FD2FC08091E80074
:104F600080FFE9CF2091F3008091F20090E0922B36
:104F70006115710559F08830910540F42491209312
:104F8000F1003196615071090196F2CF21E0089746
:104F900009F020E08091E8008E778093E800CBCF85
:104FA0002111CCCF0AC080915802882361F085304E
:104FB00061F08091E80083FD0AC08091E80082FFE3
:104FC000F2CF80E0089582E0089583E0089581E0C3
:104FD0000895982F973068F59093E900981739F065
:104FE0007091EC002091ED005091F00003C0242F4F
:104FF000762F50E021FD02C09F5FECCF3091EB0097
:105000003E7F3093EB003091ED003D7F3093ED001B
:105010003091EB0031603093EB007093EC00209303
:10502000ED005093F0002091EE0027FDE5CF80E0E9
:1050300008958F708093E90081E00895809159026E
:1050400087FF11C08091E80082FD05C08091580261
:105050008111F8CF11C08091E8008B770BC080914F
:105060005802882349F08091E80080FFF8CF8091B2
:10507000E8008E778093E80008952091E400309155
:10508000E50095E64091EC00842F817040FF23C03D
:105090008091E80080FD1DC080915802882399F01E
:1050A000853099F08091EB0085FD11C04091E400BE
:1050B0005091E5002417350729F3915011F09A011A
:1050C000E1CF84E0089582E0089583E0089581E0CF
:1050D000089580E008954091E80042FFDDCF0895F3
:1050E0000E94DE280E94E628E0EEF0E080818160E8
:1050F0008083E8EDF0E080818F77808319BCA7ED95
:10510000B0E08C918E7F8C9380818F7E8083109213
:10511000570208950F931F93CF93DF930E94DE28C9
:105120000E94E628C8EDD0E088818F778883888147
:105130008068888388818F7D888319BC109258028B
:1051400010925402109256021092550200EE10E096
:10515000F80180818B7F808388818160888342E031
:1051600060E080E00E94E927E1EEF0E080818E7F40
:105170008083E2EEF0E080818160808380818860BE
:105180008083F80180818E7F80838881806188831D
:10519000DF91CF911F910F910895E8EDF0E08081AC
:1051A0008F7E8083E7EDF0E080818160808384E002
:1051B00082BF81E0809357020C948A28E8EDF0E0EA
:1051C00080818E7F80831092E20008951092DA0031
:1051D0001092E10008951F920F920FB60F921124C2
:1051E0002F933F934F935F936F937F938F939F93EF
:1051F000AF93BF93EF93FF938091E10082FF0BC0C9
:105200008091E20082FF07C08091E1008B7F809354
:10521000E1000E94612B8091DA0080FF1FC0809125
:10522000D80080FF1BC08091DA008E7F8093DA0067
:105230008091D90080FF0DC080E189BD82E189BDE8
:1052400009B400FEFDCF81E0809358020E9437250B
:1052500005C019BC109258020E9445258091E100BA
:1052600080FF19C08091E20080FF15C08091E200AC
:105270008E7F8093E2008091E20080618093E20063
:105280008091D80080628093D80019BC85E080931B
:1052900058020E9449258091E10084FF30C080912E
:1052A000E20084FF2CC080E189BD82E189BD09B4A0
:1052B00000FEFDCF8091D8008F7D8093D800809133
:1052C000E1008F7E8093E1008091E2008F7E8093E9
:1052D000E2008091E20081608093E20080915402BC
:1052E000882311F084E007C08091E30087FD02C0AD
:1052F00081E001C083E0809358020E944A2580919A
:10530000E10083FF29C08091E20083FF25C08091E6
:10531000E100877F8093E10082E080935802109241
:1053200054028091E1008E7F8093E1008091E20041
:105330008E7F8093E2008091E20080618093E200A2
:1053400042E060E080E00E94E9278091F000886000
:105350008093F0000E944825FF91EF91BF91AF919B
:105360009F918F917F916F915F914F913F912F917D
:105370000F900FBE0F901F9018951F920F920FB6AF
:105380000F9211242F933F934F935F936F937F93CB
:105390008F939F93AF93BF93CF93DF93EF93FF933D
:1053A000C091E900CF708091EC00D82FD17080FDC2
:1053B000D0E81092E9008091F000877F8093F000A0
:1053C00078940E94012A1092E9008091F000886090
:1053D0008093F000CD2BCF70C093E900FF91EF9147
:1053E000DF91CF91BF91AF919F918F917F916F91FD
:1053F0005F914F913F912F910F900FBE0F901F9093
:1054000018951F93CF93DF93CDB7DEB7AA970FB64A
:10541000F894DEBF0FBECDBFE9E5F2E08091F10068
:10542000819322E0E136F207C9F70E945625809168
:10543000E80083FF2EC18091590290915A02492FB2
:1054400050E04A30510508F024C1FA01E556FF4FFB
:105450000C94D72B803821F0823809F01AC108C08B
:105460008091550290915602992389F082600FC075
:1054700080915D028F70873008F00BC18093E90046
:105480008091EB0085FB882780F91092E9009091CC
:10549000E800977F9093E8008093F1001092F1006C
:1054A000D1C0282F2D7F09F0F4C0882319F0823055
:1054B00061F0EFC080915B02813009F0EAC0933067
:1054C00009F080E0809356022EC080915B0281112A
:1054D0002AC080915D028F702FEF280F263008F0D0
:1054E000D8C08093E9002091EB0020FF1CC09330CE
:1054F00021F48091EB00806214C09091EB009061E8
:105500009093EB0021E030E0A90102C0440F551F49
:105510008A95E2F74093EA001092EA008091EB004E
:1055200088608093EB001092E9008091E800877F0B
:105530008093E8000E941E28ACC08111AAC010917F
:105540005B021F778091E3008078812B8093E300DA
:105550008091E800877F8093E8000E941E28809158
:10556000E80080FFFCCF8091E30080688093E30037
:10557000111102C082E001C083E08093580289C00B
:105580008058823008F085C080915B0290915C0267
:105590008C3D53E0950779F583E08A838AE289831D
:1055A0004FB7F894DE01139620E03EE051E2E32F7E
:1055B000F0E050935700E49120FF03C0E295EF70B4
:1055C0003F5FEF708E2F90E0EA3010F0C79601C079
:1055D000C0968D939D932F5F243149F74FBF8091E3
:1055E000E800877F8093E8006AE270E0CE010196D0
:1055F0000E942A2716C060915D0270915E02AE0182
:105600004F5F5F4F0E945026BC01892B09F441C0B7
:105610009091E800977F9093E80089819A810E9499
:1056200088278091E8008B778093E80032C080382B
:1056300081F58091E800877F8093E8008091540293
:105640008093F1008091E8008E7772CF811121C0A4
:1056500080915B0290915C0299270297D4F480912B
:10566000E800877F8093E80080915B02809354027A
:105670000E941E2880915402811106C08091E3008F
:1056800087FD02C081E001C084E0809358020E943F
:105690004C258091E80083FF0AC08091E800877F55
:1056A0008093E8008091EB0080628093EB00AA96E3
:1056B0000FB6F894DEBF0FBECDBFDF91CF911F9123
:1056C00008950895CF93809158028823A1F0C09146
:1056D000E900CF709091EC00892F817090FD80E8F7
:1056E000C82B1092E9008091E80083FD0E94012AF6
:1056F000CF70C093E900CF910895DB018F939F9302
:105700000E94EC2BBF91AF91A29F800D911DA39F92
:10571000900DB29F900D11240895AA1BBB1B51E15F
:1057200007C0AA1FBB1FA617B70710F0A61BB70B11
:10573000881F991F5A95A9F780959095BC01CD01B6
:10574000089597FB072E16F4009407D077FD09D033
:105750000E948D2B07FC05D03EF4909581959F4FBC
:105760000895709561957F4F0895A1E21A2EAA1BA6
:10577000BB1BFD010DC0AA1FBB1FEE1FFF1FA21701
:10578000B307E407F50720F0A21BB30BE40BF50BFE
:10579000661F771F881F991F1A9469F76095709587
:1057A000809590959B01AC01BD01CF010895EE0F4E
:1057B000FF1F0590F491E02D0994A29FB001B39FC3
:1057C000C001A39F700D811D1124911DB29F700D0A
:1057D000811D1124911D08950E94DD2BA59F900D20
:1057E000B49F900DA49F800D911D11240895FC017C
:1057F0004150504030F001900616D1F73197CF015B
:105800000895882799270895F999FECF92BD81BD03
:10581000F89A992780B50895A6E1B0E044E050E0F9
:105820000C943E2CA8E1B0E042E050E00C943E2CF9
:10583000262FF999FECF92BD81BDF89A019700B449
:10584000021639F01FBA20BD0FB6F894FA9AF99AE9
:105850000FBE08950396272F0E94192C0E94182C22
:10586000252F0E94192C242F0C94192C0196272FD8
:105870000E94192C0C94182CDC01CB01FC01F99925
:10588000FECF06C0F2BDE1BDF89A319600B40D928C
:0C58900041505040B8F70895F894FFCF45
:10589C0006010206060601191A1B1C1D1E1F2021DB
:1058AC002210022808140A321E65240425D924A3C8
:1058BC00246824013033F5F6F7676636353497964D
:1058CC00949593929091F0F4F10001020202020679
:1058DC0006060909090909090F0F0F0F0F0F1515F6
:0E58EC00151819191919191919191919232440
:00000001FF
