:100000000C94D5030C941C040C941C040C941C0438
:100010000C941C040C941C040C941C040C941C04E0
:100020000C941C040C941C040C942E280C94002991
:100030000C94FA1F0C941C040C941C040C941C04C7
:100040000C941C040C941C040C941C040C941C04B0
:100050000C940D050C9462200C941C040C941C044C
:100060000C941C040C941C040C941C040C941C0490
:100070000C941C040C941C040C941C040C941C0480
:100080000C941C040C941C040C941C040C941C0470
:100090000C941C040C941C040C941C040C941C0460
:1000A0000C941C040C941C040C941C0410061206E2
:1000B0001D061406160618061A061C061F0621063B
:1000C00023062E062506270629062B062D063006B2
:1000D0009B159B15CD15CD150B162916A717A71720
:1000E0006B16A7170417041776177F17A717A01703
:1000F00011171117111711171117111711171117C0
:1001000011171117111711171117111711171117AF
:100110002217301737173E174817381838184A185B
:100120004A1841184A184A184A18381838184618F0
:100130004A184A1846186D2994298C2A94298C2A21
:10014000E029032A8C2A5A2A692A29001E001F0046
:100150002000210022002300240025002600270083
:100160002D002E002A002A0035002B00000014006C
:100170001A000800150017001C0018000C001200DF
:1001800013002F00300031004C0029000000040053
:100190001600070009000A000B000D000E000F00FA
:1001A00033003400280000004B00E100E1001D0096
:1001B0001B00060019000500110010003600370072
:1001C00038000000E10052004E00E000E3000000B3
:1001D000E20000002C0000002C002C000000E300D6
:1001E00001510000500051004F00005C025300001C
:1001F00000000000000000000000000000000000FF
:10020000470048000000000000000000000000005F
:100210005200000000000000000000000000CB5C65
:10022000CC5CC55CC65C0000C25C010000005000F4
:1002300051004F000000000000000000D25C0000F0
:10024000C95CCA5C00000000C35C01000100000042
:10025000000000000000000000000000000000009E
:10026000AE0000000100A900C45C00000000000016
:10027000000000000000000000000000000000007E
:1002800001000000AC00AA00AB0035001E001F00FA
:100290002000210022002300240025002600270042
:1002A0002D002E002A002A007F002B0000001400E1
:1002B0001A000800150017001C0018000C0012009E
:1002C00013002F00300031004C0029000000040012
:1002D0001600070009000A000B000D000E000F00B9
:1002E00033003400280000004B00D75CD75C1D00B1
:1002F0001B00060019000500110010003600370031
:1003000038000000D85C52004E00E000E20000001F
:10031000E30000002C0000002C002C000000E7008F
:1003200003510000500051004F0000000253000034
:1003300000000000000000000000000000000000BD
:1003400047007F00000000000000000000000000E7
:100350005200000000000000000000000000CB5C24
:10036000CC5CC55CC65C0000C25C010000005000B3
:1003700051004F000000000000000000D25C0000AF
:10038000C95CCA5C00000000C35C01000100000001
:10039000000000000000000000000000000000005D
:1003A000AE00000001008000C45C000000000000FE
:1003B000000000000000000000000000000000003D
:1003C00001000000BC008100BB0000000000000034
:1003D000000000000001010203040506080A0C0FDA
:1003E0001114181C2024292E33393F464C535B62CC
:1003F0006A7179818A929AA2AAB2B9C1C8CFD5DCB2
:10040000E1E7EBF0F4F7FAFCFDFEFFFEFDFCFAF786
:10041000F4F0EBE7E1DCD5CFC8C1B9B2AAA29A9259
:100420008A8179716A625B534C463F39332E2924A5
:10043000201C1814110F0C0A080605040302010100
:100440000000000000000000000000047F3F1F6467
:100450003214643214783C1E1E140A052223252609
:1004600028292A2C2D2F3032333536383A3B3D3E61
:100470004042434547494A4C4E5051535557595AAB
:100480005C5E6062646668696B6D6F7173757779C5
:100490007B7D7F81838587898A8C8E9092949698C4
:1004A0009A9C9E9FA1A3A5A7A8AAACAEAFB1B3B4D6
:1004B000B6B8B9BBBCBEBFC1C2C3C5C6C7C9CACB2B
:1004C000CCCDCED0D1D2D2D3D4D5D6D7D7D8D9D9F6
:1004D000DADADBDBDBDCDCDCDCDCDDDDDDDDDCDC5F
:1004E000DCDCDCDBDBDBDADAD9D9D8D7D7D6D5D47C
:1004F000D3D2D2D1D0CECDCCCBCAC9C7C6C5C3C248
:10050000C1BFBEBCBBB9B8B6B4B3B1AFAEACAAA89C
:10051000A7A5A3A19F9E9C9A98969492908E8C8A50
:1005200089878583817F7D7B79777573716F6D6B2B
:100530006968666462605E5C5A5957555351504E03
:100540004C4A4947454342403E3D3B3A38363533B5
:1005500032302F2D2C2A292826252322FFAA7F5529
:100560004000000000000000000000010101010146
:10057000010101010202020202020202030303035B
:100580000303030404040404050505050506060623
:10059000060607070707080808080909090A0A0ADA
:1005A0000B0B0B0C0C0C0D0D0D0E0E0E0F0F101077
:1005B00010111112121313141415151616171718FB
:1005C0001819191A1A1B1C1C1D1D1E1F1F20212162
:1005D00022232324252526272828292A2B2C2C2DA5
:1005E0002E2F30313132333435363738393A3B3CBF
:1005F0003D3E3F404142434445464748494B4C4DB0
:100600004E4F50525354555758595A5C5D5E606175
:1006100063646567686A6B6C6E6F71727476777904
:100620007A7C7D7F8182848687898B8D8E9092945F
:100630009597999B9D9FA1A2A4A6A8AAACAEB0B283
:10064000B4B6B9BBBDBFC1C3C5C8CACCCED0D3D563
:10065000D7DADCDEE1E3E6E8EAEDEFF2F4F7F9FC05
:10066000FF040330000000100353007000610063BA
:100670000065003600350000001803470072006175
:100680000079002000530074007500640069006F59
:100690000000000403090409023B00020100A0FA63
:1006A00009040000010301010009211101000122D8
:1006B00040000705810308000A0904010001030046
:1006C0000000092111010001228500070582032095
:1006D000000A1201100100000008EDFE00000100F8
:1006E0000102030105010902A10185020901A1001E
:1006F00005091901290515002501950575018102D6
:100700009501750381010501093009311581257FA6
:1007100095027508810609381581257F95017508B0
:100720008106050C0A38021581257F95017508811F
:1007300006C0C005010980A101850316010026033A
:10074000001A81002A8300751095018100C0050CF4
:100750000901A1018504160100269C021A01002A44
:100760009C02751095018100C005010906A10105D3
:100770000719E029E7150025019508750181029503
:100780000175088101050819012905950575019173
:10079000029501750391010507190029FF1500262F
:1007A000FF00950675088100C00011241FBECFEF21
:1007B000DAE0DEBFCDBF04B603FE27C08091610240
:1007C00090916202A0916302B09164028730904BD5
:1007D000A740B04BD1F410926102109262021092C5
:1007E00063021092640214BE84B7877F84BF0FB681
:1007F000F894A895809160008861809360001092C1
:1008000060000FBEE0E0F8E3099511E0A0E0B1E080
:10081000E2E2F7E502C005900D92AE35B107D9F7D7
:1008200022E0AEE5B1E001C01D92A136B207E1F7CA
:100830000E9456250C948F2B0C9400000C94690A8E
:100840000C94680A0C94690481FF02C0769A01C076
:1008500076980C949A05CF92DF92EF92FF928C37A4
:1008600024E1920728F469E070E00E94D02A29C0B0
:10087000A0E0B0E08A50974DAF4FBF4F6627782F6A
:10088000892F9A2F25EF38E241E050E00E94F82AA4
:1008900069017A01CA01B9010E94C02A9B01AC0119
:1008A000C701B6010E94C02ABB27A92F982F872F06
:1008B000009721E0A207B10511F0BC0102C06FEF63
:1008C0007FEFCB01FF90EF90DF90CF90089581E014
:1008D000089581E008951F93CF93DF9300D000D057
:1008E0001F92CDB7DEB749835A836B8320919B015A
:1008F00089819A81211112C0662349F00E94881DC6
:10090000182F682F89819A810E94311D03C00E948F
:100910005C1D182F69817A81812F04C00E94881D77
:1009200069817A810F900F900F900F900F90DF9157
:10093000CF911F910C94BB07FC01408151816281D2
:10094000738184810C946B040E94C20A8FE39CE93A
:100950000197F1F700C000000E94C20A80E00E94E7
:100960006B0A80FF04C00E94BA1E0C948820089570
:100970000C942004E82FE295EF70F0E032A1282FCC
:100980002F7081E090E001C0880F2A95EAF78095EA
:10099000832382A30895863030F4811105C090919D
:1009A0008000977F04C085E09091800098609093CC
:1009B0008000282F30E0AFEFBFEF0E94202B25E012
:1009C00030E040E050E00E94F82AC9010E942B0468
:1009D00090938D0080938C00089580916F008170BA
:1009E000089510925F0110925E0110926001EFE68F
:1009F000F0E08081816080830895EFE6F0E08081FF
:100A00008E7F80830E94A4230C94CB040E94ED046B
:100A100081110C94FD040C94F1041F920F920FB6F7
:100A20000F9211242F933F934F935F936F937F9374
:100A30008F939F93AF93BF93CF93EF93FF932091A7
:100A4000000180915E0190915F01019644EF249F27
:100A500090011124B9010E94D02A90935F018093E4
:100A60005E01B901660F672F661F770B71950E94B3
:100A7000D02A6F7780916001823019F4603451F48C
:100A800004C0813039F46F3729F480916F008E7F74
:100A900080936F00E62FF0E0E653FC4FC4910E9474
:100AA000A423282F41E051E0C49FC001C59F900DB1
:100AB000112465E070E00E94D02A269FC001279F84
:100AC000900D11240E942B0490938D0080938C0034
:100AD000FF91EF91CF91BF91AF919F918F917F91B6
:100AE0006F915F914F913F912F910F900FBE0F909B
:100AF0001F901895279A87E30E94BA048AE0809392
:100B0000800089E1809381008FEF9FEF90938700B1
:100B1000809386000E94E6220C94F1040E94A404B3
:100B20000E94C01E811102C00E94431F0E947A05CC
:100B30000C941E0408950C94240408950E94261811
:100B40000E949D052FEF84E39CE02150804090405F
:100B5000E1F700C000000C9488200F931F93CF93FF
:100B6000DF938C010E949C04EC01B8010E942204D6
:100B7000882309F4F6C1B801CE010E94131288231C
:100B800009F4EFC1CA3CFCE5DF0741F4F8018281BA
:100B9000882309F4E6C10E94480EE3C1CB3C8CE5F2
:100BA000D80708F012C1C23C9CE5D90741F4F8010E
:100BB0008281882309F4D5C10E948310D2C1C33C2D
:100BC000ECE5DE0708F0B7C0C531FCE5DF0708F04B
:100BD0007BC0C2308CE5D80708F452C0F80182818E
:100BE000882309F454C00E94C01E811102C00E94D3
:100BF000431F0E94D31E90E09093520280935102B3
:100C0000FE01E350FC45E231F10530F4EA5AFF4FB2
:100C1000809151020C941A2B80915102816027C05F
:100C2000826025C0846023C0806121C080621FC0B3
:100C300080641DC080681BC08460886018C08E7F7F
:100C400016C08D7F14C08B7F12C08F7E10C08F7D29
:100C50000EC08F7B0CC08F770AC08B7F877F07C049
:100C600087FB222720F991E0922790FB87F9809358
:100C70005102809151020E94D71E0E94261871C114
:100C8000C1159CE5D90751F0C130DC4579F0C801A8
:100C9000DF91CF911F910F910C946704F80182812D
:100CA000882309F45EC10E949E055BC1F801828120
:100CB000882309F456C180911B02982F909590FBD0
:100CC00080F980931B024DC1C631FCE5DF0739F581
:100CD0000E94091E982FF801828120911101309104
:100CE0001201882379F09A7A81E009F480E08093F8
:100CF0006101911102C069E201C065E3C9010E946E
:100D0000781F0AC080916101811102C069E201C0AF
:100D100065E3C9010E947A1F0E94571E22C1C13C8F
:100D2000DC4509F0B4CFF8018281882309F419C1A8
:100D30000E94060516C1F8018281C63CFCE5DF076A
:100D400031F4882309F40DC10E940C0E0AC1C73C7E
:100D50009CE5D90708F5C43CECE5DE0751F488238F
:100D600009F4FFC00E94091E827269F40E94751086
:100D7000F8C0C53CDC4550F4882309F4F2C00E9459
:100D8000091E827299F70E946810EBC0882309F44B
:100D9000E8C00E94FF0DE5C0C83C9CE5D90731F4CE
:100DA000882309F4DEC00E942A0EDBC0C93CDC4562
:100DB00030F4882309F4D5C00E941B0ED2C08823CA
:100DC00009F4CFC00E94390ECCC0C13DFCE5DF075D
:100DD00089F4F8018281882309F4C3C00E947C0C45
:100DE0008F3020F00E947C0C843168F28FE00E94EA
:100DF0007810B7C0C23D8CE5D80708F05AC0CD3C8A
:100E00009CE5D90739F4F8018281882309F4A9C047
:100E100081E0EDCFCE3CECE5DE07C0F4CB3CFCE559
:100E2000DF0741F4F8018281882309F49AC00E9407
:100E3000840C97C0CC3CDC4509F029CFF8018281B5
:100E4000882309F48EC00E94950C8BC0F801828122
:100E5000CF3CFCE5DF0771F4882309F482C00E94CF
:100E60007C0C863028F00E947C0C883008F48BCFF4
:100E700086E0BDCFC03DDC4570F4882309F471C025
:100E80000E947C0C823028F00E947C0C853008F493
:100E90007ACF82E0ACCF882309F463C00E947C0C37
:100EA000893028F00E947C0C8E3008F46CCF89E0E9
:100EB0009ECFC53DECE5DE0739F4F8018281882339
:100EC00009F44FC083E293CFC63DFCE5DF0740F550
:100ED000F8018281C33DFCE5DF0729F4882309F48A
:100EE00040C088E184CFC43DDC4568F48823C9F163
:100EF0000E947C0C853128F00E947C0C873108F41C
:100F000042CF85E174CF882361F10E947C0C893146
:100F100028F00E947C0C823208F435CF89E167CF3B
:100F2000CD3DECE5DE0741F4F80182818823C9F06C
:100F300082E00E94F52515C0CE3DFCE5DF0739F4BF
:100F4000F8018281882369F00E94431F0AC0CC3DCA
:100F5000DC4509F09CCEF8018281882311F080E005
:100F6000E8CF80E0DF91CF911F910F91089580E04D
:100F700090E008950895E72FF0E095E0899FE00D57
:100F8000F11D112484E0EE0FFF1F8A95E1F7E60FB3
:100F9000F11DEE0FFF1FE65BFE4F859194910895C2
:100FA000880F991FFC01E65BFB4F85919491089592
:100FB000CF93DF930E94BB070E94C909EC01811502
:100FC00021E5920708F042C0811540E5940708F03A
:100FD0002FC1883E910500F5803E910508F0D5C1EE
:100FE000883A910570F4853A910508F0A4C08130E3
:100FF000910509F4CAC108F47BC1049708F0C5C182
:1010000077C18F3B910508F4A1C0803C910508F49D
:101010006FC1805C9109FBC0C11580E3D80780F4E3
:10102000C11520E2D20708F0F0C0C03FD10508F496
:101030005FC1CF3FD10511F008F0A7C1D065A5C1B0
:10104000C11540E4D40708F0F0C0E5C0C11589E53A
:10105000D80760F5C11528E5D20708F035C1C115DC
:1010600044E5D40778F4C11583E5D80708F011C129
:10107000C11522E5D20708F0F6C0DC2FCC27C16FDE
:10108000D06A83C1C11545E5D40708F418C1C1155C
:1010900086E5D80708F02CC18C2F0E94450A8F7175
:1010A000C82FD0E0DC2FCC27D0626FC1CD3B2CE520
:1010B000D20709F414C1F0F4CB3B8CE5D80709F44E
:1010C00008C108F009C1C1154AE5D40708F010C1EC
:1010D0008C2F8F700E94450A94E0D695C7959A95FB
:1010E000E1F7CF70D0E0DC2FCC27D06A8F70806E14
:1010F000C82B4BC1C03C8CE5D80709F4F6C060F49E
:10110000CE3B4CE5D40709F4EDC0CF3BDC4509F0FC
:10111000EFC0C0E0D2ED39C1CE01905681159042AA
:1011200008F0E6C08D2F8F710E94450ADD27D0623E
:101130008F71D82B2AC1853A910509F4DCC0863A13
:10114000910509F0DBC0C2E8D0E41FC1883A9105DF
:1011500009F4D7C0893A910509F4D6C08A3A9105B5
:1011600009F4D5C08B3A910509F4D4C08C3A9105A5
:1011700009F4D3C08B3B910509F4D2C08C3B910597
:1011800009F4D1C08D3A910509F4D0C0803B910596
:1011900009F4CFC08E3A910509F4CEC08F3A91057B
:1011A00009F4CDC0813B910509F4CCC0823B910587
:1011B00009F4CBC0833B910509F4CAC0843B910577
:1011C00009F4C9C0853B910509F4C8C0863B910567
:1011D00009F4C7C0873B910509F4C6C0883B910557
:1011E00009F4C5C0893B910509F4C4C08D3B910544
:1011F00009F4C3C08E3B910509F4C2C08A3B910536
:1012000009F4C1C0C0E0D4E4C0C0CE019F700E9408
:10121000D007EC01BAC0CE019927D3FF03C0EC017F
:10122000D86CB3C0EC01D06CB0C0DF70D06AADC078
:1012300074E0969587957A95E1F783709C2F93706B
:1012400021E030E002C0220F331F9A95E2F73C689C
:10125000382BCF70C695C69540E2C49FE00111249B
:10126000C22BD32B92C0CE018370992721E030E0AE
:1012700002C0220F331F8A95E2F78C2F8695869540
:1012800040E2849FC0011124E901C82BD92BDC68FE
:101290007CC0CE018370992721E030E002C0220F8C
:1012A000331F8A95E2F78C2F8695869540E2849FBE
:1012B000C0011124E901C82BD92BDA6866C0DC2FE4
:1012C000CC27C46FD06A61C0DC2FCC27C06FD06A36
:1012D0005CC0C0E0D4ED59C0C0E0D5ED56C0C0E060
:1012E000D1ED53C0C0E0D0ED50C0C0E0D3ED4DC053
:1012F000C0E0D0E04AC0C1E8D0E447C0C3E8D0E4D1
:1013000044C0C2EED4E441C0C9EED4E43EC0CAEE4B
:10131000D4E43BC0C5EBD4E438C0C6EBD4E435C05C
:10132000C3EBD4E432C0C4EBD4E42FC0C7EBD4E4A5
:101330002CC0CCECD4E429C0CDECD4E426C0C3E866
:10134000D5E423C0CAE8D5E420C0C2E9D5E41DC075
:10135000C4E9D5E41AC0C1E2D6E417C0C3E2D6E4BA
:1013600014C0C4E2D6E411C0C5E2D6E40EC0C6E2A1
:10137000D6E40BC0C7E2D6E408C0CFE6D4E405C08B
:10138000C0E7D4E402C0CAE2D6E4CE01DF91CF9137
:1013900008958238910549F1B0F48133910509F43B
:1013A00059C048F48932910509F44FC08A32910539
:1013B00009F455C008958533910509F441C0893376
:1013C000910599F00895833E910531F138F4803EFE
:1013D000910591F0823E9105A9F00895863E910510
:1013E00001F1873E910539F108952091510220FDC8
:1013F0003BC021FD39C008958091510280FF34C067
:1014000089E341C08091510282FF30C08091510236
:1014100084FD2EC083EE37C08091510282FD26C02C
:10142000F5CF8091510283FF25C08091510284FD48
:101430001FC087EE28C08091510283FD1BC0F5CFED
:101440008091510285FD18C019C08091510285FD1F
:1014500015C012C08091510286FD12C013C0809148
:10146000510286FD0FC00CC080EE0DC082EE0BC095
:1014700080E009C086EE07C089E205C085E303C0AD
:101480008AE201C081E390E008959091510292FFB9
:101490000DC0282F2871283019F4877F846006C07A
:1014A000282F2471243011F48B7F886093FF0DC0A6
:1014B000282F2871283119F4877E846106C0282FCF
:1014C0002471243111F48B7E886194FD877E089508
:1014D00008950C94680AE82FF0E0EE0FFF1FEE5914
:1014E000FE4F8081918108950895CF93DF93A4E307
:1014F000B1E049E351E061E070E08D91E82FE295C1
:10150000EF70F0E091A18F709B0101C0220F8A95CE
:10151000EAF7822F8095892381A34A175B0769F731
:10152000A4E2B1E044E351E061E070E08D91E82F86
:10153000E295EF70F0E021A18F70EB0102C0CC0FBB
:10154000DD1F8A95E2F7CE019C2F9095922391A3FF
:1015500092A1892B82A34A175B0741F7ECE6F1E0E1
:10156000A2E6B1E086E791E0119211921D921D92E0
:101570008E179F07C9F785E00E94610BDF91CF911D
:101580000C948E053F924F925F926F927F928F9252
:101590009F92AF92BF92CF92DF92EF92FF920F9302
:1015A0001F93CF93DF9364E371E0ACE6B1E026E7ED
:1015B000622E21E0722E412C01E010E05D018D9041
:1015C0009C90119711961C921E92EB018991BE017D
:1015D000E82FE295EF70F0E021A18F70A80102C022
:1015E000440F551F8A95E2F7CA01242B21A322A19B
:1015F000342E3094232122A350EA5A95F1F794E235
:10160000E92E91E0F92E40E050E0E70159907E018B
:10161000252D22952F7030E0E90128A1CD90DC9096
:10162000119730E0D52DDF7002C035952795DA95FA
:10163000E2F720FD08C09801042E02C0220F331FDC
:101640000A94E2F702C020E030E0C22AD32A1196C1
:10165000DC92CE924F5F5F4F40315105B1F691A1C0
:10166000D32DD923D1A392A1892B82A3129681E0F5
:10167000F501208131812815390509F480E0482AD7
:101680006A167B0609F09ACF242D45E062E671E0E8
:101690008CE691E00E94620B0E94B804842DDF91D9
:1016A000CF911F910F91FF90EF90DF90CF90BF905F
:1016B000AF909F908F907F906F905F904F903F90F2
:1016C00008950895FF920F931F93CF93DF93F82E01
:1016D000092F162FD72FC42F222349F081E08093A2
:1016E00078010E942C20909377018093760180915D
:1016F00078018823D9F080917601909177010E943A
:101700003820069798F0EF2DF02FA12FBD2F80E005
:1017100090E04C2F50E08417950734F421913191DB
:101720002D933D930196F7CF10927801DF91CF91E1
:101730001F910F91FF900895CF92DF92EF92FF9249
:101740000F931F93CF93DF93362F472F282FE82F28
:10175000F0E0711106C0EF59FA4F6491762F862F91
:101760007BC0072F10E056E0659FC0011124CFEF2A
:10177000D0E0BE010E94D02A5BEA5603C001579F09
:10178000900D1124830F911D830F911D982F990F98
:10179000980F7E01E01AF10AEE9ED001EF9EB00D87
:1017A000FE9EB00D11248B2F499FA0011124452FBF
:1017B00055277E01E41AF50AEE9EA001EF9E500D1A
:1017C000FE9E500D11246E01C91AD108C09E7001F1
:1017D000C19EF00CD09EF00C11240F2D1127C01BC0
:1017E000D10BCE9F8001CF9F100DDE9F100D1124D5
:1017F0006230710591F048F461157105E1F06130D6
:101800007105B1F49B2FE52F0AC06430710569F0B2
:1018100040F06630710579F00BC0912FEB2F822FCD
:101820000DC0922FEB2F852F09C0922FE12F06C0FC
:10183000952FE22F03C09B2FE22F812FF0E0EF596D
:10184000FA4F7491E82FF0E0EF59FA4F6491E92FC5
:10185000F0E0EF59FA4F8491DF91CF911F910F91F2
:10186000FF90EF90DF90CF9008950895CF93DF938E
:10187000762FE901682F842F0E949C0B798368835F
:101880008A83DF91CF91089580913402282F269585
:1018900030E02115310519F48170826005C02532D0
:1018A000310524F08170886480933402089588E0C3
:1018B00090E00C944F2BCF92DF92EF92FF926B014E
:1018C0007C010E94440CB701A60188E090E0FF90E3
:1018D000EF90DF90CF900C946D2BE4E3F2E083E087
:1018E000808311828FEF8283838314826081718170
:1018F000828193810C945B0C8091340280FF02C042
:101900008695089580E0089580913802833018F418
:101910008F5F80933802609134027091350280911C
:101920003602909137020C945B0C80913802882328
:1019300019F0815080933802609134027091350221
:1019400080913602909137020C945B0C60910501F6
:1019500070E08091340280FF0AC080917D0123E015
:10196000829FC0011124875C9D4F0C949C11809133
:101970007C0190910401891780F7E82FF0E09F0126
:10198000220F331FE20FF31FE75CFD4F118210821D
:1019900012828F5FF0CF9091340290FF16C0909129
:1019A0007C0120910401921770F4E92FF0E0DF012F
:1019B000AA0FBB1FEA0FFB1FE75CFD4F818360830B
:1019C00042839F5FF0CF0C94A60C0895CF93DF93D2
:1019D00000D01F92CDB7DEB79091340290FF0AC0BD
:1019E0009E012F5F3F4F0E94360C4B8169818A8197
:1019F0000E94CB0C0F900F900F90DF91CF91089524
:101A0000CF93DF93EC01EC81F0E0E45AFB4F44917B
:101A1000E4E3F2E0628181810E94E60C8C818F5FB9
:101A20008C83DF91CF910895CF93DF93EC01E4E3B2
:101A3000F2E0438162818C810E94E60C8C818F5F91
:101A40008C83DF91CF9108950F931F93CF93DF93F2
:101A500000D01F92CDB7DEB78C0180917901811142
:101A60000AC09E012F5F3F4F4FEF6FEF0E94360C71
:101A70008A8180937901F8018481813051F028F0C6
:101A8000823061F4409179010AC08091790140E08F
:101A900007C06091790140E080E003C040E080E051
:101AA00060E00E94CB0CF801848190E0019663E035
:101AB00070E00E94E42A84830F900F900F90DF91D2
:101AC000CF911F910F910895AF92BF92CF92DF9265
:101AD000EF92FF920F931F93CF93DF9300D01F924B
:101AE000CDB7DEB7182FF62E042FE22E90913402D8
:101AF00090FF6DC0E92FE695AE2FB0E0A75CBE4F1A
:101B00008C91809385019E7F923061F49E012F5FBE
:101B10003F4F812F0E94360C4B8169818A810E9440
:101B2000CB0C43C0823019F4009137023EC086309E
:101B300019F41091350239C08930D9F38931A9F5EA
:101B4000E9518E2F8170D82EE695F0E0E45AFA4FD5
:101B5000A590B490C12CBB2460910301C61618F562
:101B60002C2D30E0A29EC001A39E900DB29E900D40
:101B7000112470E00E94D02A812FD11002C0860F5C
:101B800001C0861B90917C01290F311DA901440FD2
:101B9000551F240F351F275C3D4F402F6F2D0E948E
:101BA000360CC394D9CF0E94A60C10933502F09244
:101BB000360200933702EE2051F0609134027091AA
:101BC000350280913602909137020E945B0C0F9093
:101BD0000F900F90DF91CF911F910F91FF90EF9099
:101BE000DF90CF90BF90AF900895E4E3F2E0918151
:101BF000282F4381628188E0890F0C94640D81E075
:101C00000C94F50DE4E3F2E09181282F4381628189
:101C100088EF890F0C94640D81E00C94020EE4E3CC
:101C2000F2E0628128E0620F08F46FEF282F438111
:101C300081810C94640D81E00C940F0EE4E3F2E0DA
:101C4000628128E0621B08F460E0282F43818181D3
:101C50000C94640D81E00C941E0EE4E3F2E04381E9
:101C600028E0420F08F44FEF282F628181810C9405
:101C7000640D81E00C942D0EE4E3F2E0438128E052
:101C8000421B08F440E0282F628181810C94640D8E
:101C900081E00C943C0E20E00C94640DFF920F93B5
:101CA0001F93CF93DF93EC01F12C0FEF10E06091C5
:101CB0000301F616F0F480917C012F2D30E0280FFF
:101CC000311DC901880F991F280F391F275C3D4F0F
:101CD00070E0C8010E94E42A962F8C81409137025F
:101CE00060913602F99E800D11240E94360CF39407
:101CF000DECF0E94A60C9A818C8190FF02C08F5F7C
:101D000001C081508C83DF91CF911F910F91FF9083
:101D10000895BF92CF92DF92EF92FF920F931F939D
:101D2000CF93DF93FC01828180FF02C00FEF01C0DF
:101D300001E010E0809103011817E0F580917C012B
:101D4000C12ED12CE601C80FD11DCE01880F991FDD
:101D5000C80FD91FC75CDD4F198218821A8234E080
:101D6000E32EF12CB12C80917B018B0D87FF03C0FA
:101D700090910301890F082E000C990BC816D90603
:101D800091F4809137028E9DA0018F9D500D1124FA
:101D900055954795559547959E01609136028091DE
:101DA00035020E94360CB00EF1E0EF1AF108D9F6B8
:101DB0001F5FC0CF0E94A60C80917B01013031F4DF
:101DC000811102C080910301815007C090E001960B
:101DD0006091030170E00E94E42A80937B01DF910F
:101DE000CF911F910F91FF90EF90DF90CF90BF9018
:101DF0000895CF9380917C0190910401891770F42C
:101E0000E82FF0E09F01220F331FE20FF31FE75C82
:101E1000FD4F1182108212828F5FF0CFC0E060917F
:101E20000301C617C0F5EC2FF0E070E0CF010E946F
:101E3000E42A20917C01820F20917A01022E000C6D
:101E4000330B90E0E217F307CCF020910201022E51
:101E5000000C330B2E173F078CF09C01220F331F11
:101E6000820F931F9C01275C3D4F40913702609188
:101E70003602809135020E94360C0BC0FC01EE0F39
:101E8000FF1F8E0F9F1FFC01E75CFD4F1182108228
:101E90001282CF5FC4CF0E94A60C209101018091D5
:101EA0007A01820F80937A0190910201920F9093B0
:101EB000020119165CF4082E000C990B40910301E5
:101EC00050E041505109841795071CF0219520934B
:101ED0000101CF9108950F931F93CF93DF938C014E
:101EE000FC01848195810196817099279583848373
:101EF000C0E0D5E580910301C81700F580917C0111
:101F00002C2F30E0280F311DC901880F991F280F91
:101F1000391F275C3D4F4C2F4695F80184819581F0
:101F2000840F911D817040913702609136028D9F20
:101F3000802D11240E94360CCF5FDCCFDF91CF9132
:101F40001F910F910C94A60C0F931F93CF93DF93C7
:101F5000EC0100E010E080910301282F30E002172F
:101F6000130724F590917C019801290F311DA901D7
:101F7000440F551F240F351F275C3D4F869590E079
:101F80004C81081719071CF4442331F002C0411199
:101F900003C04091370201C040E060913602809159
:101FA00035020E94360C0F5F1F4FD5CF0E94A60C42
:101FB0008C8190E00196817099278C83DF91CF917D
:101FC0001F910F910895E4E3F2E080818E7F80837A
:101FD00060817181828193810E945B0C10928601E5
:101FE0002FEF80E792E0215080409040E1F700C061
:101FF00000000C94A60CE4E3F2E080818E7F8083E5
:10200000109286012FEF80E792E0215080409040AF
:10201000E1F700C000000C94A60C609134026695B4
:1020200070E04BE050E086E091E00E943A2B892B73
:1020300019F481E0809386010E942C2090937F0107
:1020400080937E0108959091340290FF35C0917085
:10205000811102C0926006C0853210F0986402C0FF
:10206000880F982B90933402662351F060913402CC
:102070007091350280913602909137020E945B0C7C
:1020800060913402669570E04BE050E086E091E0AC
:102090000E943A2B892B19F01092860102C00E94EF
:1020A0000D1081E0809381014091370260913602EA
:1020B000809135020C944B0E0895682F9091340254
:1020C000969581E0890F853208F081E00C94231009
:1020D00081E00C945D10682F9091340296958FEFFB
:1020E000890F09F484E20C94231081E00C946B10A6
:1020F00061E00C942310E4E3F2E08081816080834E
:1021000086950C9478108091340280FD0C94E30F36
:102110000C947B1060E00C94231080918401811159
:1021200033C080911B02816080931B020E94C01EFD
:10213000811104C00E94431F0E946D0C0E94570C25
:102140006093340270933502809336029093370285
:102150006E7F61F40E946D0C0E94570C60933402F4
:102160007093350280933602909337020E94440C9C
:10217000109286018091340280FF03C086950E94F0
:102180008A1081E0809384010895E4E3F2E0808185
:102190008160808386950C948A1010928601089540
:1021A0000F931F93CF93DF9380918601882309F4C7
:1021B0008CC080918501E0913402E695E81BE093A4
:1021C0008001823049F4F0E0E85AFB4FE491CE2FD1
:1021D000D0E000E01DE049C0863049F4F0E0EB5A61
:1021E000FB4FE491CE2FD0E004E11DE03EC08930EA
:1021F00051F4E695F0E0EE5AFB4FE491CE2FD0E09B
:102200000EE41EE032C08F3051F4E695F0E0E15B61
:10221000FB4FE491CE2FD0E009E81EE026C08531C7
:1022200049F4F0E0E45BFB4FE491CE2FD0E009EFFE
:102230001EE01BC0883181F0833239F4EAE4F4E017
:10224000C591D49104E21DE010C0843251F4C4EF72
:10225000D1E004EA1FE009C0C8EED3E00BE61FE0BE
:1022600004C0C0EDD7E005E31CE080918101882324
:1022700089F0109281010E942C209E0120953095BA
:10228000820F931F90937F0180937E0110928301B0
:102290001092820180917E0190917F010E943820EE
:1022A0008C179D0790F0E0917E01F0917F01CE0F99
:1022B000DF1FD0937F01C0937E018EE791E0F8018C
:1022C000DF91CF911F910F910994DF91CF911F91D1
:1022D0000F9108952EB1342F309523233EB1432B17
:1022E0003FB7F894FC01680F791FE617F70789F0EC
:1022F000819198E04EB9000000C087FF2EB9880F89
:10230000000000C000C000C02EB900C09A9591F72F
:10231000ECCF3FBF08952DB1242B2DB99B01220F87
:10232000331F620F731F0E946A1187EC90E00197C0
:10233000F1F700C00000089544E00C948B110F9356
:102340001F93CF93DF93C62FD42F122FFC018281CE
:102350008823C9F0609389010E942C209093880102
:102360008093870180E28C0F883008F057C0C770D7
:1023700081E001C0880FCA95EAF7DF91CF911F91E4
:102380000F910C94581580918901681330C0809189
:102390008701909188010E943820883C910538F58A
:1023A00000E20D0FCD17B9F080E28C0F883040F4B9
:1023B000C77081E001C0880FCA95EAF70E945F15D7
:1023C000083028F581E09D2F977001C0880F9A95FD
:1023D000EAF70E945815812F0E9445150830F0F445
:1023E000D77081E001C0880FDA95EAF70AC080E271
:1023F0008C0F883098F4C77081E001C0880FCA95AF
:10240000EAF7DF91CF911F910F910C945F15812F07
:10241000DF91CF911F910F910C944515DF91CF91D2
:102420001F910F9108959C01CB01203F4CE534078B
:10243000F9F078F4283DFCE53F07B9F0293D4CE57B
:10244000340711F1273D3C4531F526E241EE61EEBE
:102450001EC0223FFCE53F0799F070F0233F3C454A
:10246000D1F427E245EE66EE12C027E245EE0EC03B
:1024700026E241EE60EE0BC027E245EE64EE07C0B7
:1024800026E241EE62EE03C028E241E065EE0E94E2
:102490009F1180E00895FC018281882319F0109239
:1024A0008901089581E0089590938F0180938E01B2
:1024B0000895E0918E01F0918F01309721F0019005
:1024C000F081E02D099480E00895E0918E01F09173
:1024D0008F01309721F00280F381E02D0994089557
:1024E000E0918E01F0918F01309739F022E0DC010C
:1024F0002C930480F581E02D0994089520918C019E
:1025000030918D012817390771F090938D018093D8
:102510008C01E0918E01F0918F01309721F00680BF
:10252000F781E02D0994089520918A0130918B0163
:102530002817390771F090938B0180938A01E091FD
:102540008E01F0918F01309721F00084F185E02D0C
:102550000994089585B7806885BF85B7806885BF71
:10256000089508950C94B1120C94B2120C94B11207
:102570000C94B1120E94AA120E94B6120C94B412CA
:1025800081E008950E9423200E94750A0E94AC20D9
:102590000E94E6220E948D100C94B8125F926F92F6
:1025A0007F928F929F92AF92BF92CF92DF92EF92E3
:1025B000FF920F931F93CF93DF93CDB7DEB72A9788
:1025C0000FB6F894DEBF0FBECDBF0E94C20A0E94B4
:1025D000C012811111C08FEF89838A831B820E94F0
:1025E0002C208160782F9D838C8349815A816B8157
:1025F0008D810E948B1356C091E9692E91E0792E4E
:1026000000E010E088248394912C502E802F0E94AB
:102610006B0A6C01F301A190B1903F01A826B92685
:10262000A114B10431F40F5F1F4F0530110569F794
:10263000D2CF80911B0281FD0E94740A80E090E05D
:102640007401082E02C0EE0CFF1C0A94E2F79501FB
:102650002E213F21232B09F18E835F82CE20DF20A4
:1026600081E0CD2809F480E088870E942C208160D9
:10267000782F9A8789874E815F8168858A850E9435
:102680008B13000F111FF801EF56FE4F80819181CF
:10269000E826F926F182E08205C001968031910595
:1026A00079F6C1CF0E943F220E9459129091900169
:1026B0008917D9F00E945912809390012A960FB67B
:1026C000F894DEBF0FBECDBFDF91CF911F910F9168
:1026D000FF90EF90DF90CF90BF90AF909F908F9042
:1026E0007F906F905F900C949B052A960FB6F8949C
:1026F000DEBF0FBECDBFDF91CF911F910F91FF9035
:10270000EF90DF90CF90BF90AF909F908F907F9091
:102710006F905F900895CF93DF93CDB7DEB72B977F
:102720000FB6F894DEBF0FBECDBF4F8358876987C1
:102730007A878B87DE01119686E0FD0111928A95DA
:10274000E9F785E0FE01379601900D928A95E1F751
:1027500049815A816B817C818D819E810E94F61A0C
:102760002B960FB6F894DEBF0FBECDBFDF91CF9191
:102770000895FC01808191810E94CA1D08958823DB
:1027800009F41AC18238C1F40E94591281FD14C1A2
:1027900069E380911101909112010E94781F0E94BB
:1027A000571E2FEF81EE94E0215080409040E1F7DA
:1027B00000C0000069E319C08338F9F40E9459127F
:1027C00080FDFAC063E580911101909112010E9491
:1027D000781F0E94571E2FEF81EE94E02150804019
:1027E0009040E1F700C0000063E5809111019091F5
:1027F00012010E947A1F0C94571E8438C1F40E9463
:10280000591282FDD9C067E48091110190911201A3
:102810000E94781F0E94571E2FEF81EE94E02150F6
:1028200080409040E1F700C0000067E4DECF9CEFFD
:10283000980F913A40F4682F809111019091120104
:102840000E94781FD8CF90E2980F983050F487708C
:1028500091E001C0990F8A95EAF7892F0E940C1E1A
:10286000CACF9BE5980F933070F4853A29F0863AE9
:1028700031F083E890E005C081E890E002C082E892
:1028800090E00C947E1298E5980F973108F08EC076
:10289000883A09F445C0893A09F445C08A3A09F4EE
:1028A00045C08B3A09F445C08C3A09F445C08B3BCE
:1028B00009F445C08C3B09F445C08D3A09F445C084
:1028C000803B09F445C08E3A09F445C08F3A09F4BB
:1028D00045C0813B09F445C0823B09F445C0833BB8
:1028E00009F445C0843B09F445C0853B09F445C063
:1028F000863B09F445C0873B09F445C0883B09F491
:1029000045C0893B09F445C08D3B09F445C08E3B69
:1029100009F445C08A3B09F445C080E090E044C01A
:1029200082EE90E041C089EE90E03EC08AEE90E0F9
:102930003BC085EB90E038C086EB90E035C083EB80
:1029400090E032C084EB90E02FC087EB90E02CC089
:102950008CEC90E029C08DEC90E026C083E891E0FB
:1029600023C08AE891E020C082E991E01DC084E99B
:1029700091E01AC081E292E017C083E292E014C0B5
:1029800084E292E011C085E292E00EC086E292E01D
:102990000BC087E292E008C08FE690E005C080E7B8
:1029A00090E002C08AE292E00C949412803F20F002
:1029B0000E9447210C9434220895882309F464C0AE
:1029C000823879F40E94591281FF5EC069E38091D8
:1029D0001101909112010E94781F0E94571E69E315
:1029E00010C08338B1F40E94591280FF4DC063E5D6
:1029F00080911101909112010E94781F0E94571E30
:102A000063E580911101909112010E947A1F0C944C
:102A1000571E843879F40E94591282FF35C067E44A
:102A200080911101909112010E94781F0E94571EFF
:102A300067E4E7CF9CEF980F913A10F4682FE1CF4D
:102A400090E2980F983050F4877091E001C0990F90
:102A50008A95EAF7892F0E94121ED9CF9BE5980F1D
:102A6000933020F480E090E00C947E1298E5980F6B
:102A7000973120F480E090E00C949412803F20F095
:102A80000E94AF210C9434220895CF93C82F0E9446
:102A9000BF13C93349F42FEF83EC99E021508040F4
:102AA0009040E1F700C000008C2FCF910C94DD1412
:102AB000882321F00E940C1E0C94571E0895882331
:102AC00021F00E94121E0C94571E08958F929F921F
:102AD000AF92BF92DF92EF92FF920F931F93CF932B
:102AE000DF937C01062FC72FFC01158112951F7003
:102AF000D281D1110E94291E0E94021E882379F0E2
:102B0000DD2369F080E2800F883048F082E00E9487
:102B1000A11E0E94021E91E0D82ED92601C0D12C00
:102B2000BC2EB2948FE0B8228B2D90E0FC01E859C6
:102B3000FF4F0C941A2B8C2F807FCF70882311F0BD
:102B4000C295C07FDD2399F0CC2309F4BAC180E29D
:102B5000800F883010F0011104C08C2F0E940C1ED1
:102B600003C08C2F0E941C1E0E94571EAAC1802FDA
:102B70000E94DD14CC2309F4EAC180E2800F883082
:102B800010F0011104C08C2F0E94121E03C08C2F64
:102B90000E94221E0E94571EDAC18C2F807FCF70A8
:102BA000803211F0C295C07F002319F00130C9F0C6
:102BB00022C0DD2371F0112341F0113031F40E9465
:102BC0003C1E8C2B0E94441EC2C10E943C1E8C2BBA
:102BD00030C1112319F0113009F4B9C10E944D1E02
:102BE00018C0DD2321F0163008F0B1C10EC0153039
:102BF00008F0ADC10EC0DD2351F0112331F0F70113
:102C0000858180FF5EC18F7085838C2F12C1111169
:102C100069C18C2F14C18C2F86958695837019F00D
:102C2000813061F094C1DD2321F0802F9C2F9370BF
:102C300002C080E090E00E947E1296C1DD2321F068
:102C4000802F9C2F937002C080E090E00E9494122D
:102C50008BC1DD23F9F0053F51F0063F71F0043FD1
:102C6000A9F480914B0290914C0281600BC080913D
:102C70004B0290914C02826005C080914B02909172
:102C80004C02846090934C0280934B02802F0E94F0
:102C900047211EC0053F51F0063F71F0043FA9F4E3
:102CA00080914B0290914C028E7F0BC080914B0221
:102CB00090914C028D7F05C080914B0290914C0207
:102CC0008B7F90934C0280934B02802F0E94AF2108
:102CD0000E94342249C18C2F837009F047C0D11162
:102CE0003FC1202F229526952770220F220F602F9B
:102CF0006F70862F90E0A0E0B0E04C015D01022EE5
:102D000004C0880C991CAA1CBB1C0A94D2F704FFAF
:102D100010C08FE090E0A0E0B0E004C0880F991FE1
:102D2000AA1FBB1F2A95D2F780959095A095B095C4
:102D300003C080E090E0DC01C695C695C370BC017D
:102D4000CD01682979298A299B29C23049F058F494
:102D5000C13019F00E94471C03C10E94351C00C1FC
:102D60000E94591CFDC00E94331CFAC0DD2319F0DB
:102D70008C2F817001C08695882309F4F1C0202F23
:102D8000229526952770220F220F602F6F70862FB5
:102D900090E0A0E0B0E04C015D01022E04C0880C80
:102DA000991CAA1CBB1C0A94D2F704FF10C08FE028
:102DB00090E0A0E0B0E004C0880F991FAA1FBB1FDD
:102DC0002A95D2F780959095A095B09503C080E0A4
:102DD00090E0DC01C695C695C370BC01CD016829A1
:102DE00079298A299B29C23049F058F4C13019F059
:102DF0000E940C1DB5C00E94FA1CB2C00E941E1D8C
:102E0000AFC00E946D1CACC0802F90E0FC01E05E62
:102E1000F109E531F10508F050C0E858FF4F0C9476
:102E20001A2B0F708C2F8F71DD2331F00E94931CB1
:102E3000802F0E9458158BC00E94B41C802F0E94C6
:102E40005F1585C0DD2341F0153008F080C08C2F60
:102E50008F710E94D91C7BC0163008F078C0F7CF64
:102E6000DD2339F08C2F8F710E94931C70C0DD23FD
:102E7000C9F38C2F8F710E94B41C69C0DD2329F027
:102E80008C2F8F710E947E1C62C00E94791C5FC0D3
:102E9000DD2349F0CF718C2F0E94931C63E08C2FAF
:102EA0000E948C1E54C081E00E94A11E123008F4C2
:102EB0004EC082E00E94A11E4AC0DD2331F01123E2
:102EC00089F2802F0E94BF1342C0112391F209336F
:102ED00049F4FFEF23EC89E0F15020408040E1F716
:102EE00000C00000802F0E94DD1431C04C2F4F70B5
:102EF000602FC7010E94B7070E94A41B35C0D111E3
:102F000033C0CF70C23091F038F4CC2361F0C130BF
:102F1000F1F40E94202328C0C43071F050F0C53075
:102F2000B1F480E00AC00E9403231EC00E945F2308
:102F30001BC00E94662318C085E00E94892314C02C
:102F40004C2F4F70602FC7010E94BA070DC098E048
:102F5000B91631F0B91640F086EF8B0D823020F4AF
:102F60000E9459120E949B05DD20E1F00E94FE1D87
:102F700080FD18C0F70112820E94F81D0E94931C68
:102F8000C7010E94DE170E94F81DDF91CF911F91AB
:102F90000F91FF90EF90DF90BF90AF909F908F9038
:102FA0000C94B41CDF91CF911F910F91FF90EF9083
:102FB000DF90BF90AF909F908F9008950F931F93D5
:102FC000CF93DF93EC01988189812B813C81232B66
:102FD00031F08F3F31F481E09F3F19F403C081E06D
:102FE00001C080E080FD13C0CE010E94AD058823A2
:102FF00071F0688179818A810E94D51D8C010E94BF
:10300000301D0E94211CB801CE010E946615DF917F
:10301000CF911F910F9108950E94291E0E94391E81
:103020000E94571E0E94DA220E94342280E090E023
:103030000E947E1280E090E00C9494128091110125
:10304000909112010E947C1F0C940C180E94191E72
:103050000C941E18E92FE295EF704E2F50E0FA0104
:103060003297EE30F105B0F4E357FF4F0C941A2B72
:10307000803F91F018F4803E68F40EC0843F51F414
:103080000BC0803E48F0813F29F406C093FB88279F
:1030900080F9089580E0089581E008950E94CA1D96
:1030A0000E942A180895CF93DF9300D000D01F927A
:1030B000CDB7DEB70F900F900F900F900F90DF916C
:1030C000CF910895CF93DF9300D000D000D0CDB73B
:1030D000DEB726960FB6F894DEBF0FBECDBFDF91E8
:1030E000CF9108951F93CF93DF93C0919C0116E079
:1030F00080919D01C81799F0D0E01C9FF0011D9FA1
:10310000F00D1124E256FE4F40815181628173819E
:10311000848195810E9462182196C770E9CFDF9162
:10312000CF911F9108954091CE015091CF016091B0
:10313000D0017091D1018091D2019091D3010C9472
:103140006218CF938091D30182958F7009F05FC090
:103150008091D001882309F45AC080919C01B091DC
:103160009D017091CE01A091CF014091D10150916C
:10317000D20191E07F3F09F090E0692FC6E08B1704
:1031800009F445C04115510521F0AF3F21F020E081
:1031900003C021E001C0262F90E020FD35C0C89F6C
:1031A000F001C99FF00D1124E256FE4F21812A1330
:1031B0002BC02081271328C02281211125C0238103
:1031C00034812417350710F421503109241B350BA5
:1031D000283C3105C8F42091D3012F702061209341
:1031E000D30126E0289FF001299FF00D1124ED5511
:1031F000FE4F80818F70806180838EEC91E00E9411
:10320000DE17CF910C94721801968770B8CFCF91CA
:103210000895AF92BF92CF92DF92EF92FF920F93F9
:103220001F93CF93DF93CDB7DEB761970FB6F894B6
:10323000DEBF0FBECDBF8C0185E0F801DE011D961B
:1032400001900D928A95E1F7D8014C9111965C910D
:1032500011971296EC903091CE016091CF01809140
:10326000D1019091D201009731F06F3F31F421E00C
:103270003F3F19F403C021E001C020E0B22FB1703C
:10328000BB2E20FD60C1F801C380D480A090D00186
:10329000AA2009F4EEC02091D301C816D90628F05F
:1032A000D601A81BB90BCD0104C0809590958C0D5B
:1032B0009D1DFF24F394883C910580F0F12C207F24
:1032C00009F09CC07C2DD98AC88A6E2D89890E94FC
:1032D00053188EEC91E00E94DE172DC1822F807F63
:1032E00009F054C0561314C0431312C0FE2CE11051
:1032F0000FC02F7020612093D3010E9493188EEC91
:1033000091E00E94DE178091D301F80185835CC1B2
:10331000CD2831F05F3F31F481E04F3F19F403C015
:1033200081E001C080E080FD03C081E08E2502C005
:1033300080E090E0F82FF170FF2E80FF1CC080919C
:103340009C0120919D0136E0821709F41AC190E09A
:10335000389FF001399FF00D1124E256FE4F618134
:10336000561306C06081461303C06281E61203C093
:1033700001968770E9CFFE2CEE2009F425C18091DB
:10338000D30181608093D301F12C1EC1561309C073
:10339000431307C0E11005C08091D301F801858374
:1033A000A4C04D875E878D859E850E944E18882318
:1033B00079F1EE2069F12091D301822F82958F70EF
:1033C00090E0029774F08091CE019091CF019887A0
:1033D0008F831986DB86CA862C87CE0107960E94CA
:1033E000DE1786E0F801AEECB1E001900D928A950F
:1033F000E1F70E94A1180E9493180DC0561771F0B2
:103400004D875E878D859E850E944E1881111AC05A
:10341000C8010E94DE17FF24F394D6C04313F0CFF7
:10342000E110EECF8091D301F8018583C8010E949D
:10343000DE1786E0EEECF1E0DF011D928A95E9F7F8
:10344000FA2CC2C0EE2021F32091D301822F829565
:103450008F7090E002972CF28091CE019091CF0175
:103460009A8389831B82DD82CC822E83CE010196D2
:10347000B6CFC816D90628F0F601E81BF90BCF0124
:1034800004C0809590958C0D9D1D883C910548F059
:10349000F12C7C2DD98AC88A6E2D89890E945318F7
:1034A0004AC0FE2CEE2009F4B3CF561333C04313A9
:1034B00031C02091D30120FD24C0822F82958F70CE
:1034C000482F50E041155105E1F0D80115962C9395
:1034D00015974F30510549F08F5F982F9295907F47
:1034E000822F8F70892B15968C93C8010E94DE174E
:1034F00086E0F801AEECB1E001900D928A95E1F71B
:103500003DC086E0F801AEECB1E001900D928A95E5
:10351000E1F75AC04D875E878D859E850E944E18C3
:1035200081115FCF8091D30181608093D301C80165
:103530000E94DE1749C0EEECF1E086E0DF011D924B
:103540008A95E9F71BC0EE2009F462CF4D875E87AC
:103550008D859E850E944E18F82E882309F458CF39
:1035600086E0F801AEECB1E001900D928A95E1F7AA
:103570008EEC91E00E94B9130E94A1180E9493184A
:1035800023C04D875E878D859E850E94CA1D292F89
:1035900022952F70223028F49F7039F0811105C0D8
:1035A0000BC0243028F49F7049F4805E883020F0EE
:1035B000C8010E94DE17BF2CFB2C06C0D80115964F
:1035C0009C91907F91F7F8CF8F2D61960FB6F8946C
:1035D000DEBF0FBECDBFDF91CF911F910F91FF9046
:1035E000EF90DF90CF90BF90AF9008951F93CF934F
:1035F000DF93CDB7DEB72C970FB6F894DEBF0FBEC2
:10360000CDBF4F83588769877A878B879C87CE0188
:1036100007960E9409198823D1F09F8188852A8501
:103620003B85232B31F08F3F31F481E09F3F19F42C
:1036300003C081E001C080E080FD47C04F81588514
:1036400069857A858B859C850E9462183EC086E0DC
:10365000FE013796DE01119601900D928A95E1F7F1
:10366000FF81E8856A857B856115710531F0EF3F43
:1036700031F481E0FF3F19F403C081E001C080E034
:1036800080FD23C020919D0130E0C9010196877023
:10369000992740919C0150E084179507F1F1F98337
:1036A000EA837D836C8396E0929FD001939FB00D57
:1036B0001124A256BE4FFE01319601900D929A95AB
:1036C000E1F780939D010E94721816E080919C01A1
:1036D00090919D01891771F1189FC00111248256A4
:1036E0009E4F0E940919882329F1E0919C011E9F99
:1036F000F0011124E256FE4F4081518162817381B5
:10370000848195810E94621880919C0190E00196CD
:103710008770992780939C01D9CF0E942618109218
:103720009D0110929C01EEECF1E086E0DF011D921C
:103730008A95E9F72C960FB6F894DEBF0FBECDBF81
:10374000DF91CF911F910895EF92FF920F931F93F6
:10375000CF93DF938C01892B09F46CC0F12CEE24FC
:10376000E394E8012196F8018491843740F4843091
:1037700008F051C0813081F0823019F15BC085378B
:1037800009F444C0A8F19CE7980F903708F052C0A4
:103790008F770E94DD1441C00E5F1F4FFE018491A0
:1037A00090E2980F983050F48770FE2D01C0FF0F03
:1037B0008A95EAF78F2F0E942C1E14C00E94BF1317
:1037C0002DC00E5F1F4FFE01849190E2980F98303C
:1037D00060F48770FE2D01C0FF0F8A95EAF78F2FE6
:1037E0000E94321E0E94571E19C00E94DD1416C08E
:1037F0000E5F1F4FFE01C491CC2381F08FE99FE043
:103800000197F1F700C00000C150F6CF0E5F1F4FC7
:10381000FE01F49003C00E94BF138E018F2D8823F8
:1038200009F49FCFEFE9FFE03197F1F700C0000006
:103830008150F5CFDF91CF911F910F91FF90EF90C5
:103840000895089508950C94221C0C94231C0E9442
:10385000251C60930A0270930B0280930C029093D4
:103860000D020C940C180C94271C0F931F930091BD
:103870000A0210910B0220910C0230910D02602B74
:10388000712B822B932B1F910F910C94271C0F935C
:103890001F9300910A0210910B0220910C023091AB
:1038A0000D0260237123822393231F910F910C94A7
:1038B000271C0F931F9300910A0210910B02209175
:1038C0000C0230910D0260277127822793271F91E8
:1038D0000F910C94271C0C94221C0E946B1C60936B
:1038E00006027093070280930802909309020C94D9
:1038F0000C1860E070E0CB010C946D1C0F931F93CB
:1039000041E050E060E070E08A019B0104C0000FDC
:10391000111F221F331F8A95D2F7C901B8011F91C9
:103920000F910C946D1C0F931F9341E050E060E0E9
:1039300070E004C0440F551F661F771F8A95D2F7A9
:103940008091060290910702A0910802B0910902AD
:103950008A019B01082B192B2A2B3B2BC901B8018B
:103960001F910F910C946D1C0F931F9341E050E039
:1039700060E070E004C0440F551F661F771F8A95F2
:10398000D2F7409550956095709580910602909180
:103990000702A0910802B09109028A019B01082345
:1039A00019232A233B23C901B8011F910F910C94BD
:1039B0006D1C0F931F9341E050E060E070E004C085
:1039C000440F551F661F771F8A95D2F78091060214
:1039D00090910702A0910802B09109028A019B010F
:1039E000082719272A273B27C901B8011F910F91E2
:1039F0000C946D1C0F931F93009106021091070207
:103A00002091080230910902602B712B822B932B9D
:103A10001F910F910C946D1C0F931F930091060240
:103A2000109107022091080230910902602371234E
:103A3000822393231F910F910C946D1C0F931F935E
:103A400000910602109107022091080230910902AC
:103A500060277127822793271F910F910C946D1C6B
:103A6000089520E1929F800D1124E82FE695E695B8
:103A7000E695877051E001C0550F8A95EAF785E019
:103A8000E89FF0011124EC52FE4F20E030E070E09E
:103A90004081CB01022E02C0969587950A94E2F7E9
:103AA0008170819584278523842781932F5F3F4FE1
:103AB0002530310569F7089520E1929F800D11248A
:103AC000682F669566956695982F977085E0689F34
:103AD000B001112440E050E080E0FB01E40FF51F4D
:103AE000EC52FE4F208130E0092E02C0369527951A
:103AF0000A94E2F721703327042E01C0220F0A94A2
:103B0000EAF7822B4F5F5F4F4530510531F708953B
:103B1000BF92CF92DF92EF92FF920F931F93CF93BA
:103B2000DF938C01C0900602D0900702E09008025B
:103B3000F090090280910A0290910B02A0910C0270
:103B4000B0910D02C82AD92AEA2AFB2ACFE1D0E097
:103B5000D701C6010C2E04C0B695A79597958795F9
:103B60000A94D2F780FD04C0219790F7B12C07C0CA
:103B7000BC2EB8018C2F0E94D8070197A9F38B2D7A
:103B8000DF91CF911F910F91FF90EF90DF90CF9039
:103B9000BF900895CF93DF93EC010E94881DBE0172
:103BA0000E94D807DF91CF9108951F93CF93DF93A1
:103BB000EB0190919B01992321F0CB010E94CA1D3A
:103BC00013C0882349F0CB010E94881D182F682F4D
:103BD000CE010E94311D04C0CB010E945C1D182F34
:103BE000BE01812F0E94D807DF91CF911F910895C8
:103BF00080910E02859585958595089580910E0298
:103C00008770089590910E02977081E009F480E02A
:103C1000089580911A02089590911A02892B809339
:103C20001A020895809590911A02892380931A02AE
:103C3000089510921A02089590911902892B809389
:103C40001902089580959091190289238093190291
:103C5000089510921902089590911802892B80936B
:103C60001802089580959091180289238093180274
:103C7000089510921802089580910F0208950895F2
:103C80000C943F1E0C94401E90910F02981721F047
:103C900080930F020C94421E089580910F02882396
:103CA00029F010920F0280E00C94421E0895E091DA
:103CB0001101F091120180911A028083E0911101AB
:103CC000F0911201908180911902892B8083E091FB
:103CD0001101F0911201908180911802892B80834B
:103CE00080910F02882381F0E0911101F09112017F
:103CF0009081892B808380911101909112010E9403
:103D0000451F81110E944D1E809111019091120159
:103D10000C9465120C943F1E98E0899F9001112429
:103D2000262B20930E020E94931C80910E028595F3
:103D3000859585950C948A1E10920E0280E00C9455
:103D40008A1E20910E028095822380930E02982F66
:103D5000977079F430E0482F082E000C550B24178B
:103D6000350739F08595859585950E94B41C0C948E
:103D70009C1E08956FEF7FEF80E090E00C94792B0C
:103D800080E090E00E94552B21E08D3E9E4F09F08F
:103D900020E0822F089582E090E00C94472B83E08E
:103DA00090E00C94472B84E090E00C94472B682F14
:103DB00084E090E00C945B2B86E090E00C94472B21
:103DC000682F86E090E00C945B2BAB01BC018FE088
:103DD00090E00C946D2BAB01BC0183E190E00C945E
:103DE0006D2B60E070E0CB010C94EB1E60E070E0A6
:103DF000CB010E94E51E0C94F11E6DEE7EEF80E07B
:103E000090E00E94792B60E082E090E00E945B2BC2
:103E100060E083E090E00E945B2B10920A02109217
:103E20000B0210920C0210920D0260E084E090E010
:103E30000E945B2B60E085E090E00E945B2B60E0DD
:103E400086E090E00E945B2B6FEF87E090E00E949D
:103E50005B2B40E050E0BA0188E090E00E946D2BBF
:103E600060E08DE090E00E945B2B40E050E0BA0102
:103E700088E190E00E946D2B60E087E190E00E9475
:103E80005B2B0C94F61E0C94FD1EFC01329697E001
:103E900080E0915029F021912223D9F38F5FF9CF4F
:103EA00008959C01FC0132969FEF80E041914617F6
:103EB00089F09F3F19F4411101C0982F8F5F863020
:103EC000A9F79F3F39F0F901E90FF11D97FDFA9528
:103ED0006283089508959C012A5F3F4FFC0142814F
:103EE000461301C01282019682179307B9F708950D
:103EF0000C94511F0C946B1F029626E0FC0111924A
:103F00002A95E9F7089508950C94831F0C94831F54
:103F1000CF930E94861F0E94C20A0E94841FC0E0A5
:103F20008C2F0E946B0A892B29F4CF5FC530C1F713
:103F300080E001C081E0CF9108950C94831F0C9420
:103F40009D1F0E949F1F80915802843009F43CC03D
:103F500010921C0220E488E190E00FB6F894A89536
:103F6000809360000FBE2093600080E00E94CB042D
:103F700080E00E949B050E94CD1080911D0281115E
:103F80000AC081E080931D02809134028170809389
:103F90001E020E94FB0F0E949F1F83B7817F8460D7
:103FA00083BF83B7816083BF7894889583B78E7F02
:103FB00083BF0FB6F894A8958091600088618093C4
:103FC0006000109260000FBE08950C94831F0E9441
:103FD00026180E94E6220E9459120E949B05109208
:103FE0001D0280911E0281110E94C5100E940D10B9
:103FF0000C94E51F1F920F920FB60F9211248F930E
:104000009F93AF93BF9380911C02811113C0809145
:104010004D0290914E02A0914F02B09150024196F4
:10402000A11DB11D80934D0290934E02A0934F02AB
:10403000B0935002BF91AF919F918F910F900FBE9F
:104040000F901F90189582E084BD93E095BD9AEF84
:1040500097BD80936E0008952FB7F89480914D021C
:1040600090914E02A0914F02B09150022FBF08953F
:10407000CF92DF92EF92FF920F931F932FB7F89496
:1040800040914D0250914E0260914F02709150024A
:104090002FBF6A017B01EE24FF248C0120E030E079
:1040A000C016D106E206F30610F4415051099A01F8
:1040B000281B390BC9011F910F91FF90EF90DF90E2
:1040C000CF90089578941F920F920FB60F921124FB
:1040D0008F939F93AF93BF9380914D0290914E0227
:1040E000A0914F02B09150020196A11DB11D809385
:1040F0004D0290934E02A0934F02B0935002BF9195
:10410000AF919F918F910F900FBE0F901F901895B8
:1041100081E08093E00080E28093D8001092C90093
:104120008FE19EE40197F1F700C0000087E090EB7B
:10413000DC018093610290936202A0936302B093CA
:1041400064029CE088E10FB6F894A8958093600023
:104150000FBE90936000FFCF0E94C01E811102C06D
:104160000E94431F0E94CB1E80931B020E94D31EFD
:1041700090E090935202809351020E94CF1E682FCC
:1041800070E080E090E00C94331C8091220280FF6C
:104190000BC06091160185E0689FB00111247595F0
:1041A0006795759567952BC081FF09C060911601D1
:1041B00085E0689FB00111247595679520C082FF46
:1041C00007C06091160185E0689FB001112417C0F7
:1041D000909121029923D1F060911501961788F7EB
:1041E0002091160185E0289F90011124929FA00143
:1041F000939F500D112470E0CA010E94E42A603898
:10420000710540F46115710519F406C065E070E0B0
:10421000862F08958FE7089581E008958091220206
:1042200080FF08C06091140170E0759567957595E1
:10423000679521C081FF06C06091140170E07595FB
:10424000679519C082FF04C06091140170E010C02E
:1042500090912102992399F0609113019617A0F78C
:1042600080911401899FC001112470E00E94E42A0A
:104270006038710540F46115710519F406C061E0FC
:1042800070E0862F08958FE7089581E00895803FBC
:1042900021F40E94C520819504C0813F29F40E9429
:1042A000C520809326020895823F21F40E94C520F4
:1042B000819504C0833F29F40E94C5208093250284
:1042C0000895893F19F40E940E2105C08A3F31F4F8
:1042D0000E940E2181958093270208958B3F21F43F
:1042E0000E940E21819504C08C3F29F40E940E216A
:1042F000809328020895843F21F4809124028160F4
:1043000017C0853F21F480912402826011C0863F4E
:1043100021F48091240284600BC0873F21F48091B6
:104320002402886005C0883F31F4809124028061B6
:104330008093240208958D3F21F4809122028160B0
:104340000BC08E3F21F480912202826005C08F3F16
:1043500029F4809122028460809322020895803F94
:1043600039F48091260287FF6CC01092260269C042
:10437000813F29F4809126021816BCF362C0909107
:104380002502823F29F497FF5CC01092250259C094
:10439000833F19F41916CCF354C0893F41F480913E
:1043A000270218160CF04DC0109227024AC08A3F0F
:1043B00029F48091270287FF44C0F6CF8B3F39F460
:1043C0008091280287FF3DC0109228023AC08C3F9E
:1043D00029F4809128021816BCF333C0843F21F4DD
:1043E000809124028E7F17C0853F21F480912402A2
:1043F0008D7F11C0863F21F4809124028B7F0BC0FA
:10440000873F21F480912402877F05C0883F31F4E3
:10441000809124028F7E8093240213C08D3F21F46B
:10442000809122028E7F0BC08E3F21F48091220268
:104430008D7F05C08F3F29F4809122028B7F80936E
:1044400022028091250281110EC0809126028111E5
:104450000AC080912702811106C080912802811133
:1044600002C010922102089583E292E00E9470122D
:104470000E942C209093200280931F0208951F9386
:10448000CF93DF9380911F02909120020E943820E9
:10449000AC0190912102992321F02091170130E085
:1044A00006C0209118018AE0289F9001112442172C
:1044B000530708F47BC080912502C0912602D09159
:1044C000270210912802811107C0C1116BC0D111C0
:1044D00069C0111167C06AC09F3F19F09F5F909338
:1044E0002102181624F40E94C52080932502809191
:1044F000250287FF05C00E94C52081958093250273
:104500001C1624F40E94C520809326028091260266
:1045100087FF05C00E94C5208195809326023091B7
:1045200025023323E1F0209126022223C1F045EB3E
:104530003403C0011124992319F09093250203C07C
:1045400081E08093250235EB2303C00111249923D8
:1045500019F09093260203C081E0809326021D1675
:1045600024F40E940E21809327028091270287FF66
:1045700005C00E940E21819580932702111624F414
:104580000E940E21809328028091280287FF05C097
:104590000E940E21819580932802DF91CF911F9177
:1045A0000C9434229F3F09F099CFAACFDF91CF918D
:1045B0001F910895E3E2F2E086E0DF011D928A9503
:1045C000E9F7109221021092220208950E94C01E63
:1045D000811102C00E94431F0E94DC1E809353027F
:1045E000282F269530E02630310524F081708A602E
:1045F000809353028091530280FF02C0869501C0D0
:1046000080E00C94CB0420915302822F8695482F92
:1046100050E04530510544F48F5F982F990F822F59
:104620008170892B80935302809153028160809323
:1046300053020E94E01E8091530286950C94CB0495
:1046400080915302982F969591F09158990F81700F
:10465000892B809353028E7F91E009F490E0809142
:10466000530290FB80F9809353020E94E01E8091D8
:10467000530286950C94CB048091530280FD11C0A7
:10468000816080935302813019F483E08093530258
:10469000809153020E94E01E8091530286950C94F3
:1046A000CB0408958091530280FF08C08E7F8093D1
:1046B00053020E94E01E80E00C94CB040895809188
:1046C000530280FD0C9452230C943C23909153028E
:1046D000892F86958F5F8F779170863028F4880FA9
:1046E000892B8093530202C090935302809153020E
:1046F0008E7F91E009F490E08091530290FB80F965
:10470000809353020E94E01E8091530286950C9480
:10471000CB04863008F085E0880F909153029170A9
:10472000892B809353028E7F91E009F490E0809171
:10473000530290FB80F9809353020E94E01E809107
:10474000530286950C94CB0480915302869508956C
:104750008091310208950F931F93CF93DF9300D080
:104760001F92CDB7DEB78C010E940526823011F072
:10477000843021F584E089831B830A8382E080935F
:10478000E9008FEF9091E800815095FD06C095ED0E
:104790009A95F1F700008111F5CF8091E80085FF2F
:1047A0000DC040E050E063E070E0CE0101960E9451
:1047B00022268091E8008E778093E8000F900F907A
:1047C0000F90DF91CF911F910F910895CF93DF93B9
:1047D00000D01F92CDB7DEB720915802243031F5BA
:1047E00023E02983805891099B838A8382E0809308
:1047F000E9008FEF9091E800815095FD06C095ED9E
:104800009A95F1F700008111F5CF8091E80085FFBE
:104810000DC040E050E063E070E0CE0101960E94E0
:1048200022268091E8008E778093E8000F900F9009
:104830000F90DF91CF910895CF93DF93EC010E9409
:104840000526823011F08430F9F482E08093E9008B
:104850008FEF9091E800815095FD06C095ED9A95F7
:10486000F1F700008111F5CF8091E80085FF0CC0C1
:1048700040E050E066E070E0CE010E942226809188
:10488000E8008E778093E800DF91CF910895CF9371
:10489000DF93EC010E940526823011F0843039F557
:1048A00081E08093E9008FEF9091E800815095FDC1
:1048B00006C095ED9A95F1F700008111F5CF809132
:1048C000E80085FF14C040E050E068E070E0CE01F1
:1048D0000E9422268091E8008E778093E80088E08D
:1048E000FE01A9E2B2E001900D928A95E1F7DF9115
:1048F000CF91089580915702811109C00E94B3277A
:104900000E9410288091E20084608093E200089564
:10491000109257020895089508950C94E71F42E0FD
:1049200061EC81E00E942C2742E261EC82E00C9471
:104930002C2780915A02833009F460C030F4813012
:1049400071F0823009F499C008958A3009F485C065
:104950008B3009F46BC0893009F0A7C020C080916A
:104960005902813A09F0A1C08091E800877F8093C5
:10497000E80080915D0290915E02892B21F468E04D
:1049800089E292E003C060E080E090E070E00E9485
:104990006D268091E8008B778093E80008958091E0
:1049A0005902813209F081C080915D0290915E02CE
:1049B000029708F07AC08091E800877F8093E80032
:1049C0008091E80082FD05C0809158028111F8CFE6
:1049D0006CC02091F3008091F20090E0922B02973E
:1049E00029F48091F1008B7F813021F48091F100D6
:1049F000809331028091E8008B7753C080915902F7
:104A0000813A09F052C080915D0290915E02892B3B
:104A100009F04BC08091E800877F8093E800809187
:104A2000E80080FFFCCF8091230136C080915902BD
:104A30008132D9F580915D0290915E02892BA9F5B2
:104A40008091E800877F8093E8000E946127809131
:104A50005B02809323010C942618809159028132C5
:104A600021F58091E800877F8093E8000E9461270C
:104A700080915C0280933202089580915902813ABC
:104A8000A1F48091E800877F8093E8008091E8009E
:104A900080FFFCCF809132028093F1008091E8008A
:104AA0008E778093E8000C946127089584B7877F00
:104AB00084BF0FB6F894A8958091600088618093B8
:104AC0006000109260000FBE80E880936100109239
:104AD00061000E94BA120E94B3270E9410288091A0
:104AE000E20084608093E20078940E94A52A0E94EC
:104AF000C21289E191E00E945412809158028530DF
:104B000069F40E94A11F809156028823B1F30E948C
:104B1000881F882391F30E940C26EFCF0E94CE12AB
:104B20000E94D010EACF0C949525292F33272330EB
:104B30003105C9F060F42130310581F022303105B2
:104B400009F04AC08BE390E027E936E049C0213202
:104B5000310511F12232310579F13EC082E190E058
:104B600022ED36E03DC099278130910561F040F09B
:104B70008230910559F0039779F5E1E6F6E008C037
:104B8000E3E9F6E005C0E9E7F6E002C0E7E6F6E0B3
:104B9000849190E09F0124C06115710541F061305E
:104BA0007105D1F489E090E022EC36E019C089E08B
:104BB00090E029EA36E014C06115710541F06130DA
:104BC000710551F485E890E024EE36E009C080E4F8
:104BD00090E029E637E004C080E090E020E030E09B
:104BE000FA013183208308950895CF93C82F0E943E
:104BF000F425C0933302CF910895809158028430F8
:104C000011F081E0089582E00895809133028111CE
:104C100002C00C94FD25089580E189BD82E189BD23
:104C200009B400FEFDCF8091D8008F7D8093D8001D
:104C30008091E00082608093E0008091E00081FD3F
:104C4000FCCF0895CF92DF92EF92FF920F931F93C4
:104C5000CF93DF93EC018B017A010E9480278111B1
:104C600033C0E114F10439F0F70180819181081B10
:104C7000190BC80FD91FC12CD12C0115110519F121
:104C80008091E80085FD16C08091E8008E778093C2
:104C9000E800E114F10449F0F70180819181C80E28
:104CA000D91ED182C08285E00FC00E948027882350
:104CB00021F30AC089918093F10001501109FFEF9F
:104CC000CF1ADF0ADACF80E0DF91CF911F910F91E9
:104CD000FF90EF90DF90CF90089520915F02309188
:104CE00060022617370748F06115710539F42091E5
:104CF000E8002E772093E80001C0B901FC0120E014
:104D00006115710579F1809158028823F1F18530A0
:104D1000F1F18091E80083FD3CC08091E80082FDC4
:104D20002EC08091E80080FFEBCF2091F3008091AE
:104D3000F20090E0922B6115710551F088309105D9
:104D400038F421912093F100615071090196F3CF5D
:104D500021E0089709F020E08091E8008E778093A9
:104D6000E800CECF2111CFCF0AC08091580288230E
:104D700061F0853061F08091E80083FD0AC0809188
:104D8000E80082FFF2CF80E0089582E0089583E09A
:104D9000089581E0089520915F0230916002261706
:104DA000370748F06115710539F42091E8002E7736
:104DB0002093E80001C0B901FC0120E061157105F4
:104DC00091F180915802882309F440C0853009F49C
:104DD0003FC08091E80083FD3DC08091E80082FDE6
:104DE0002FC08091E80080FFE9CF2091F3008091EF
:104DF000F20090E0922B6115710559F08830910511
:104E000040F424912093F10031966150710901968C
:104E1000F2CF21E0089709F020E08091E8008E773A
:104E20008093E800CBCF2111CCCF0AC080915802EB
:104E3000882361F0853061F08091E80083FD0AC02D
:104E40008091E80082FFF2CF80E0089582E008952B
:104E500083E0089581E00895982F973068F5909346
:104E6000E900981739F07091EC002091ED00509115
:104E7000F00003C0242F762F50E021FD02C09F5F79
:104E8000ECCF3091EB003E7F3093EB003091ED00A2
:104E90003D7F3093ED003091EB0031603093EB00BB
:104EA0007093EC002093ED005093F0002091EE0001
:104EB00027FDE5CF80E008958F708093E90081E0C1
:104EC00008958091590287FF11C08091E80082FD0A
:104ED00005C0809158028111F8CF11C08091E8007F
:104EE0008B770BC080915802882349F08091E800AD
:104EF00080FFF8CF8091E8008E778093E8000895D6
:104F00002091E4003091E50095E64091EC00842F7B
:104F1000817040FF23C08091E80080FD1DC080911A
:104F20005802882399F0853099F08091EB0085FD37
:104F300011C04091E4005091E5002417350729F392
:104F4000915011F09A01E1CF84E0089582E0089534
:104F500083E0089581E0089580E008954091E8009D
:104F600042FFDDCF08950E9421280E942928E0EE0B
:104F7000F0E0808181608083E8EDF0E080818F77D0
:104F8000808319BCA7EDB0E08C918E7F8C938081DB
:104F90008F7E80831092570208950F931F93CF93B3
:104FA000DF930E9421280E942928C8EDD0E0888143
:104FB0008F77888388818068888388818F7D8883C4
:104FC00019BC10925802109254021092560210927C
:104FD000550200EE10E0F80180818B7F808388818C
:104FE0008160888342E060E080E00E942C27E1EE4F
:104FF000F0E080818E7F8083E2EEF0E0808181604E
:105000008083808188608083F80180818E7F8083A7
:10501000888180618883DF91CF911F910F910895DE
:10502000E8EDF0E080818F7E8083E7EDF0E0808125
:105030008160808384E082BF81E0809357020C947A
:10504000CD27E8EDF0E080818E7F80831092E20032
:1050500008951092DA001092E10008951F920F92C5
:105060000FB60F9211242F933F934F935F936F933B
:105070007F938F939F93AF93BF93EF93FF93809111
:10508000E10082FF0BC08091E20082FF07C08091A7
:10509000E1008B7F8093E1000E94A42A8091DA00D6
:1050A00080FF1FC08091D80080FF1BC08091DA0074
:1050B0008E7F8093DA008091D90080FF0DC080E15F
:1050C00089BD82E189BD09B400FEFDCF81E08093F6
:1050D00058020E947A2405C019BC109258020E94FE
:1050E00088248091E10080FF19C08091E20080FF58
:1050F00015C08091E2008E7F8093E2008091E200F3
:1051000080618093E2008091D80080628093D80013
:1051100019BC85E0809358020E948C248091E100A4
:1051200084FF30C08091E20084FF2CC080E189BD03
:1051300082E189BD09B400FEFDCF8091D8008F7D4A
:105140008093D8008091E1008F7E8093E100809170
:10515000E2008F7E8093E2008091E2008160809384
:10516000E20080915402882311F084E007C080910E
:10517000E30087FD02C081E001C083E08093580214
:105180000E948D248091E10083FF29C08091E2007C
:1051900083FF25C08091E100877F8093E10082E05A
:1051A00080935802109254028091E1008E7F809388
:1051B000E1008091E2008E7F8093E2008091E20026
:1051C00080618093E20042E060E080E00E942C2752
:1051D0008091F00088608093F0000E948B24FF9102
:1051E000EF91BF91AF919F918F917F916F915F915F
:1051F0004F913F912F910F900FBE0F901F901895D8
:105200001F920F920FB60F9211242F933F934F933B
:105210005F936F937F938F939F93AF93BF93CF933E
:10522000DF93EF93FF93C091E900CF708091EC0082
:10523000D82FD17080FDD0E81092E9008091F00065
:10524000877F8093F00078940E9444291092E900AF
:105250008091F00088608093F000CD2BCF70C093D8
:10526000E900FF91EF91DF91CF91BF91AF919F91B5
:105270008F917F916F915F914F913F912F910F90FF
:105280000FBE0F901F9018951F93CF93DF93CDB74C
:10529000DEB7AA970FB6F894DEBF0FBECDBFE9E523
:1052A000F2E08091F100819322E0E136F207C9F744
:1052B0000E9499248091E80083FF2EC180915902B9
:1052C00090915A02492F50E04A30510508F024C10C
:1052D000FA01E556FF4F0C941A2B803821F08238E2
:1052E00009F01AC108C08091550290915602992385
:1052F00089F082600FC080915D028F70873008F066
:105300000BC18093E9008091EB0085FB882780F931
:105310001092E9009091E800977F9093E8008093C5
:10532000F1001092F100D1C0282F2D7F09F0F4C0B8
:10533000882319F0823061F0EFC080915B028130E8
:1053400009F0EAC0933009F080E0809356022EC045
:1053500080915B0281112AC080915D028F702FEFD6
:10536000280F263008F0D8C08093E9002091EB0088
:1053700020FF1CC0933021F48091EB00806214C0A8
:105380009091EB0090619093EB0021E030E0A90157
:1053900002C0440F551F8A95E2F74093EA0010922D
:1053A000EA008091EB0088608093EB001092E900A6
:1053B0008091E800877F8093E8000E946127ACC05D
:1053C0008111AAC010915B021F778091E300807861
:1053D000812B8093E3008091E800877F8093E80031
:1053E0000E9461278091E80080FFFCCF8091E3005C
:1053F00080688093E300111102C082E001C083E065
:105400008093580289C08058823008F085C080910E
:105410005B0290915C028C3D53E0950779F583E047
:105420008A838AE289834FB7F894DE01139620E0DD
:105430003EE051E2E32FF0E050935700E49120FF6B
:1054400003C0E295EF703F5FEF708E2F90E0EA307F
:1054500010F0C79601C0C0968D939D932F5F2431A5
:1054600049F74FBF8091E800877F8093E8006AE2A8
:1054700070E0CE0101960E946D2616C060915D021B
:1054800070915E02AE014F5F5F4F0E949325BC0199
:10549000892B09F441C09091E800977F9093E80030
:1054A00089819A810E94CB268091E8008B77809336
:1054B000E80032C0803881F58091E800877F8093D2
:1054C000E800809154028093F1008091E8008E778B
:1054D00072CF811121C080915B0290915C0299276B
:1054E0000297D4F48091E800877F8093E800809150
:1054F0005B02809354020E946127809154028111C3
:1055000006C08091E30087FD02C081E001C084E015
:10551000809358020E948F248091E80083FF0AC084
:105520008091E800877F8093E8008091EB008062A3
:105530008093EB00AA960FB6F894DEBF0FBECDBFE6
:10554000DF91CF911F9108950895CF9380915802D4
:105550008823A1F0C091E900CF709091EC00892FD1
:10556000817090FD80E8C82B1092E9008091E800DE
:1055700083FD0E944429CF70C093E900CF91089524
:10558000DB018F939F930E942F2BBF91AF91A29F1E
:10559000800D911DA39F900DB29F900D1124089531
:1055A000AA1BBB1B51E107C0AA1FBB1FA617B70749
:1055B00010F0A61BB70B881F991F5A95A9F7809565
:1055C0009095BC01CD01089597FB072E16F4009429
:1055D00007D077FD09D00E94D02A07FC05D03EF401
:1055E000909581959F4F0895709561957F4F08958F
:1055F000A1E21A2EAA1BBB1BFD010DC0AA1FBB1FD7
:10560000EE1FFF1FA217B307E407F50720F0A21B48
:10561000B30BE40BF50B661F771F881F991F1A94B5
:1056200069F760957095809590959B01AC01BD01DF
:10563000CF010895EE0FFF1F0590F491E02D09941E
:10564000A29FB001B39FC001A39F700D811D1124C3
:10565000911DB29F700D811D1124911D08950E940E
:10566000202BA59F900DB49F900DA49F800D911DA0
:1056700011240895FC014150504030F0019006166D
:10568000D1F73197CF010895882799270895F9997F
:10569000FECF92BD81BDF89A992780B50895A6E105
:1056A000B0E044E050E00C94812BA8E1B0E042E08F
:1056B00050E00C94812B262FF999FECF92BD81BD2D
:1056C000F89A019700B4021639F01FBA20BD0FB640
:1056D000F894FA9AF99A0FBE08950396272F0E941C
:1056E0005C2B0E945B2B252F0E945C2B242F0C949B
:1056F0005C2B0196272F0E945C2B0C945B2BDC010A
:10570000CB01FC01F999FECF06C0F2BDE1BDF89ACC
:10571000319600B40D9241505040B8F70895F89476
:02572000FFCFB9
:1057220006010206060601191A1B1C1D1E1F202156
:105732002210022808140A321EA82347241C24E639
:1057420023AB23013033F5F6F76766363534979687
:10575200949593929091F0F4F100010202020206F4
:1057620006060909090909090F0F0F0F0F0F151571
:0E5772001518191919191919191919192324BB
:00000001FF
